{
  "contractName": "GovernorAlpha",
  "abi": [
    {
      "inputs": [
        {
          "internalType": "address",
          "name": "timelock_",
          "type": "address"
        },
        {
          "internalType": "address",
          "name": "_nfy",
          "type": "address"
        },
        {
          "internalType": "address",
          "name": "guardian_",
          "type": "address"
        },
        {
          "internalType": "address",
          "name": "_nft",
          "type": "address"
        },
        {
          "internalType": "address",
          "name": "_stake",
          "type": "address"
        }
      ],
      "stateMutability": "nonpayable",
      "type": "constructor"
    },
    {
      "anonymous": false,
      "inputs": [
        {
          "indexed": false,
          "internalType": "uint256",
          "name": "id",
          "type": "uint256"
        }
      ],
      "name": "ProposalCanceled",
      "type": "event"
    },
    {
      "anonymous": false,
      "inputs": [
        {
          "indexed": false,
          "internalType": "uint256",
          "name": "id",
          "type": "uint256"
        },
        {
          "indexed": false,
          "internalType": "address",
          "name": "proposer",
          "type": "address"
        },
        {
          "indexed": false,
          "internalType": "address[]",
          "name": "targets",
          "type": "address[]"
        },
        {
          "indexed": false,
          "internalType": "uint256[]",
          "name": "values",
          "type": "uint256[]"
        },
        {
          "indexed": false,
          "internalType": "string[]",
          "name": "signatures",
          "type": "string[]"
        },
        {
          "indexed": false,
          "internalType": "bytes[]",
          "name": "calldatas",
          "type": "bytes[]"
        },
        {
          "indexed": false,
          "internalType": "uint256",
          "name": "startBlock",
          "type": "uint256"
        },
        {
          "indexed": false,
          "internalType": "uint256",
          "name": "endBlock",
          "type": "uint256"
        },
        {
          "indexed": false,
          "internalType": "string",
          "name": "description",
          "type": "string"
        }
      ],
      "name": "ProposalCreated",
      "type": "event"
    },
    {
      "anonymous": false,
      "inputs": [
        {
          "indexed": false,
          "internalType": "uint256",
          "name": "id",
          "type": "uint256"
        }
      ],
      "name": "ProposalExecuted",
      "type": "event"
    },
    {
      "anonymous": false,
      "inputs": [
        {
          "indexed": false,
          "internalType": "uint256",
          "name": "id",
          "type": "uint256"
        },
        {
          "indexed": false,
          "internalType": "uint256",
          "name": "eta",
          "type": "uint256"
        }
      ],
      "name": "ProposalQueued",
      "type": "event"
    },
    {
      "anonymous": false,
      "inputs": [
        {
          "indexed": false,
          "internalType": "address",
          "name": "voter",
          "type": "address"
        },
        {
          "indexed": false,
          "internalType": "uint256",
          "name": "proposalId",
          "type": "uint256"
        },
        {
          "indexed": false,
          "internalType": "bool",
          "name": "support",
          "type": "bool"
        },
        {
          "indexed": false,
          "internalType": "uint256",
          "name": "votes",
          "type": "uint256"
        }
      ],
      "name": "VoteCast",
      "type": "event"
    },
    {
      "inputs": [],
      "name": "guardian",
      "outputs": [
        {
          "internalType": "address",
          "name": "",
          "type": "address"
        }
      ],
      "stateMutability": "view",
      "type": "function"
    },
    {
      "inputs": [
        {
          "internalType": "address",
          "name": "",
          "type": "address"
        }
      ],
      "name": "latestProposalIds",
      "outputs": [
        {
          "internalType": "uint256",
          "name": "",
          "type": "uint256"
        }
      ],
      "stateMutability": "view",
      "type": "function"
    },
    {
      "inputs": [],
      "name": "name",
      "outputs": [
        {
          "internalType": "string",
          "name": "",
          "type": "string"
        }
      ],
      "stateMutability": "view",
      "type": "function"
    },
    {
      "inputs": [],
      "name": "nft",
      "outputs": [
        {
          "internalType": "contract IERC721",
          "name": "",
          "type": "address"
        }
      ],
      "stateMutability": "view",
      "type": "function"
    },
    {
      "inputs": [],
      "name": "nfy",
      "outputs": [
        {
          "internalType": "contract IERC20",
          "name": "",
          "type": "address"
        }
      ],
      "stateMutability": "view",
      "type": "function"
    },
    {
      "inputs": [],
      "name": "proposalCount",
      "outputs": [
        {
          "internalType": "uint256",
          "name": "",
          "type": "uint256"
        }
      ],
      "stateMutability": "view",
      "type": "function"
    },
    {
      "inputs": [
        {
          "internalType": "uint256",
          "name": "",
          "type": "uint256"
        }
      ],
      "name": "proposals",
      "outputs": [
        {
          "internalType": "uint256",
          "name": "id",
          "type": "uint256"
        },
        {
          "internalType": "address",
          "name": "proposer",
          "type": "address"
        },
        {
          "internalType": "uint256",
          "name": "eta",
          "type": "uint256"
        },
        {
          "internalType": "uint256",
          "name": "startBlock",
          "type": "uint256"
        },
        {
          "internalType": "uint256",
          "name": "endBlock",
          "type": "uint256"
        },
        {
          "internalType": "uint256",
          "name": "forVotes",
          "type": "uint256"
        },
        {
          "internalType": "uint256",
          "name": "againstVotes",
          "type": "uint256"
        },
        {
          "internalType": "bool",
          "name": "canceled",
          "type": "bool"
        },
        {
          "internalType": "bool",
          "name": "executed",
          "type": "bool"
        },
        {
          "internalType": "string",
          "name": "message",
          "type": "string"
        }
      ],
      "stateMutability": "view",
      "type": "function"
    },
    {
      "inputs": [],
      "name": "stake",
      "outputs": [
        {
          "internalType": "contract StakeInterface",
          "name": "",
          "type": "address"
        }
      ],
      "stateMutability": "view",
      "type": "function"
    },
    {
      "inputs": [],
      "name": "timelock",
      "outputs": [
        {
          "internalType": "contract TimelockInterface",
          "name": "",
          "type": "address"
        }
      ],
      "stateMutability": "view",
      "type": "function"
    },
    {
      "inputs": [
        {
          "internalType": "address",
          "name": "",
          "type": "address"
        }
      ],
      "name": "userDetails",
      "outputs": [
        {
          "internalType": "uint256",
          "name": "votePower",
          "type": "uint256"
        },
        {
          "internalType": "uint256",
          "name": "tokenLocker",
          "type": "uint256"
        },
        {
          "internalType": "uint256",
          "name": "stakeRecord",
          "type": "uint256"
        },
        {
          "internalType": "uint256",
          "name": "tokenRecord",
          "type": "uint256"
        }
      ],
      "stateMutability": "view",
      "type": "function"
    },
    {
      "inputs": [],
      "name": "quorumVotes",
      "outputs": [
        {
          "internalType": "uint256",
          "name": "",
          "type": "uint256"
        }
      ],
      "stateMutability": "pure",
      "type": "function"
    },
    {
      "inputs": [],
      "name": "proposalThreshold",
      "outputs": [
        {
          "internalType": "uint256",
          "name": "",
          "type": "uint256"
        }
      ],
      "stateMutability": "pure",
      "type": "function"
    },
    {
      "inputs": [],
      "name": "proposalMaxOperations",
      "outputs": [
        {
          "internalType": "uint256",
          "name": "",
          "type": "uint256"
        }
      ],
      "stateMutability": "pure",
      "type": "function"
    },
    {
      "inputs": [],
      "name": "votingDelay",
      "outputs": [
        {
          "internalType": "uint256",
          "name": "",
          "type": "uint256"
        }
      ],
      "stateMutability": "pure",
      "type": "function"
    },
    {
      "inputs": [],
      "name": "votingPeriod",
      "outputs": [
        {
          "internalType": "uint256",
          "name": "",
          "type": "uint256"
        }
      ],
      "stateMutability": "pure",
      "type": "function"
    },
    {
      "inputs": [
        {
          "internalType": "uint256",
          "name": "amount",
          "type": "uint256"
        }
      ],
      "name": "depositToken",
      "outputs": [],
      "stateMutability": "nonpayable",
      "type": "function"
    },
    {
      "inputs": [
        {
          "internalType": "uint256",
          "name": "amount",
          "type": "uint256"
        }
      ],
      "name": "withdrawToken",
      "outputs": [],
      "stateMutability": "nonpayable",
      "type": "function"
    },
    {
      "inputs": [
        {
          "internalType": "uint256",
          "name": "nftId",
          "type": "uint256"
        }
      ],
      "name": "depositStakedToken",
      "outputs": [],
      "stateMutability": "nonpayable",
      "type": "function"
    },
    {
      "inputs": [
        {
          "internalType": "uint256",
          "name": "nftId",
          "type": "uint256"
        }
      ],
      "name": "withdrawStakedToken",
      "outputs": [],
      "stateMutability": "nonpayable",
      "type": "function"
    },
    {
      "inputs": [
        {
          "internalType": "address[]",
          "name": "targets",
          "type": "address[]"
        },
        {
          "internalType": "uint256[]",
          "name": "values",
          "type": "uint256[]"
        },
        {
          "internalType": "string[]",
          "name": "signatures",
          "type": "string[]"
        },
        {
          "internalType": "bytes[]",
          "name": "calldatas",
          "type": "bytes[]"
        },
        {
          "internalType": "string",
          "name": "description",
          "type": "string"
        }
      ],
      "name": "propose",
      "outputs": [
        {
          "internalType": "uint256",
          "name": "",
          "type": "uint256"
        }
      ],
      "stateMutability": "nonpayable",
      "type": "function"
    },
    {
      "inputs": [
        {
          "internalType": "uint256",
          "name": "proposalId",
          "type": "uint256"
        }
      ],
      "name": "queue",
      "outputs": [],
      "stateMutability": "nonpayable",
      "type": "function"
    },
    {
      "inputs": [
        {
          "internalType": "uint256",
          "name": "proposalId",
          "type": "uint256"
        }
      ],
      "name": "execute",
      "outputs": [],
      "stateMutability": "payable",
      "type": "function"
    },
    {
      "inputs": [
        {
          "internalType": "uint256",
          "name": "proposalId",
          "type": "uint256"
        }
      ],
      "name": "cancel",
      "outputs": [],
      "stateMutability": "nonpayable",
      "type": "function"
    },
    {
      "inputs": [
        {
          "internalType": "uint256",
          "name": "proposalId",
          "type": "uint256"
        }
      ],
      "name": "getActions",
      "outputs": [
        {
          "internalType": "address[]",
          "name": "targets",
          "type": "address[]"
        },
        {
          "internalType": "uint256[]",
          "name": "values",
          "type": "uint256[]"
        },
        {
          "internalType": "string[]",
          "name": "signatures",
          "type": "string[]"
        },
        {
          "internalType": "bytes[]",
          "name": "calldatas",
          "type": "bytes[]"
        }
      ],
      "stateMutability": "view",
      "type": "function"
    },
    {
      "inputs": [
        {
          "internalType": "uint256",
          "name": "proposalId",
          "type": "uint256"
        },
        {
          "internalType": "address",
          "name": "voter",
          "type": "address"
        }
      ],
      "name": "getReceipt",
      "outputs": [
        {
          "components": [
            {
              "internalType": "bool",
              "name": "hasVoted",
              "type": "bool"
            },
            {
              "internalType": "bool",
              "name": "support",
              "type": "bool"
            },
            {
              "internalType": "uint256",
              "name": "votes",
              "type": "uint256"
            }
          ],
          "internalType": "struct GovernorAlpha.Receipt",
          "name": "",
          "type": "tuple"
        }
      ],
      "stateMutability": "view",
      "type": "function"
    },
    {
      "inputs": [
        {
          "internalType": "uint256",
          "name": "proposalId",
          "type": "uint256"
        }
      ],
      "name": "state",
      "outputs": [
        {
          "internalType": "enum GovernorAlpha.ProposalState",
          "name": "",
          "type": "uint8"
        }
      ],
      "stateMutability": "view",
      "type": "function"
    },
    {
      "inputs": [
        {
          "internalType": "uint256",
          "name": "proposalId",
          "type": "uint256"
        },
        {
          "internalType": "bool",
          "name": "support",
          "type": "bool"
        }
      ],
      "name": "castVote",
      "outputs": [],
      "stateMutability": "nonpayable",
      "type": "function"
    },
    {
      "inputs": [],
      "name": "__acceptAdmin",
      "outputs": [],
      "stateMutability": "nonpayable",
      "type": "function"
    },
    {
      "inputs": [],
      "name": "__abdicate",
      "outputs": [],
      "stateMutability": "nonpayable",
      "type": "function"
    },
    {
      "inputs": [
        {
          "internalType": "address",
          "name": "newPendingAdmin",
          "type": "address"
        },
        {
          "internalType": "uint256",
          "name": "eta",
          "type": "uint256"
        }
      ],
      "name": "__queueSetTimelockPendingAdmin",
      "outputs": [],
      "stateMutability": "nonpayable",
      "type": "function"
    },
    {
      "inputs": [
        {
          "internalType": "address",
          "name": "newPendingAdmin",
          "type": "address"
        },
        {
          "internalType": "uint256",
          "name": "eta",
          "type": "uint256"
        }
      ],
      "name": "__executeSetTimelockPendingAdmin",
      "outputs": [],
      "stateMutability": "nonpayable",
      "type": "function"
    }
  ],
  "bytecode": "0x60806040523480156200001157600080fd5b506040516200615d3803806200615d83398181016040528101906200003791906200019d565b846000806101000a81548173ffffffffffffffffffffffffffffffffffffffff021916908373ffffffffffffffffffffffffffffffffffffffff16021790555083600160006101000a81548173ffffffffffffffffffffffffffffffffffffffff021916908373ffffffffffffffffffffffffffffffffffffffff16021790555081600260006101000a81548173ffffffffffffffffffffffffffffffffffffffff021916908373ffffffffffffffffffffffffffffffffffffffff16021790555080600360006101000a81548173ffffffffffffffffffffffffffffffffffffffff021916908373ffffffffffffffffffffffffffffffffffffffff16021790555082600460006101000a81548173ffffffffffffffffffffffffffffffffffffffff021916908373ffffffffffffffffffffffffffffffffffffffff16021790555050505050506200026d565b600081519050620001978162000253565b92915050565b600080600080600060a08688031215620001b657600080fd5b6000620001c68882890162000186565b9550506020620001d98882890162000186565b9450506040620001ec8882890162000186565b9350506060620001ff8882890162000186565b9250506080620002128882890162000186565b9150509295509295909350565b60006200022c8262000233565b9050919050565b600073ffffffffffffffffffffffffffffffffffffffff82169050919050565b6200025e816200021f565b81146200026a57600080fd5b50565b615ee0806200027d6000396000f3fe6080604052600436106101d85760003560e01c806348dec2a711610102578063b9a6196111610095578063da95691a11610064578063da95691a14610697578063ddf0b009146106d4578063e23a9a52146106fd578063fe0d94c11461073a576101d8565b8063b9a6196114610601578063c1dc5ae614610618578063d33219b414610641578063da35c6641461066c576101d8565b80637bdbe4d0116100d15780637bdbe4d0146105575780638e9e85d21461058257806391500671146105ad578063b58131b0146105d6576101d8565b806348dec2a7146104ae57806350baa622146104ee5780636215be7714610517578063760fbc1314610540576101d8565b806324bc1a641161017a5780633e4f49e6116101495780633e4f49e6146103f257806340e58ee51461042f578063452a93201461045857806347ccca0214610483576101d8565b806324bc1a6414610331578063328dd9821461035c5780633932abb11461039c5780633a4b66f1146103c7576101d8565b806315373e3d116101b657806315373e3d1461027957806317977c61146102a25780631cf1e277146102df57806321f43e4214610308576101d8565b8063013cf08b146101dd57806302a251a31461022357806306fdde031461024e575b600080fd5b3480156101e957600080fd5b5061020460048036038101906101ff91906140f7565b610756565b60405161021a9a99989796959493929190615901565b60405180910390f35b34801561022f57600080fd5b5061023861087c565b6040516102459190615836565b60405180910390f35b34801561025a57600080fd5b50610263610885565b60405161027091906154d9565b60405180910390f35b34801561028557600080fd5b506102a0600480360381019061029b9190614185565b6108be565b005b3480156102ae57600080fd5b506102c960048036038101906102c49190613ebe565b6108cd565b6040516102d69190615836565b60405180910390f35b3480156102eb57600080fd5b50610306600480360381019061030191906140f7565b6108e5565b005b34801561031457600080fd5b5061032f600480360381019061032a9190613f10565b610d75565b005b34801561033d57600080fd5b50610346610f02565b6040516103539190615836565b60405180910390f35b34801561036857600080fd5b50610383600480360381019061037e91906140f7565b610f13565b60405161039394939291906153d6565b60405180910390f35b3480156103a857600080fd5b506103b16111f0565b6040516103be9190615836565b60405180910390f35b3480156103d357600080fd5b506103dc6111f9565b6040516103e99190615488565b60405180910390f35b3480156103fe57600080fd5b50610419600480360381019061041491906140f7565b61121f565b60405161042691906154be565b60405180910390f35b34801561043b57600080fd5b50610456600480360381019061045191906140f7565b611403565b005b34801561046457600080fd5b5061046d6116f9565b60405161047a91906151a3565b60405180910390f35b34801561048f57600080fd5b5061049861171f565b6040516104a5919061546d565b60405180910390f35b3480156104ba57600080fd5b506104d560048036038101906104d09190613ebe565b611745565b6040516104e594939291906159cd565b60405180910390f35b3480156104fa57600080fd5b50610515600480360381019061051091906140f7565b611775565b005b34801561052357600080fd5b5061053e600480360381019061053991906140f7565b611a67565b005b34801561054c57600080fd5b50610555611d3f565b005b34801561056357600080fd5b5061056c611e13565b6040516105799190615836565b60405180910390f35b34801561058e57600080fd5b50610597611e1c565b6040516105a49190615452565b60405180910390f35b3480156105b957600080fd5b506105d460048036038101906105cf9190613f10565b611e42565b005b3480156105e257600080fd5b506105eb611fca565b6040516105f89190615836565b60405180910390f35b34801561060d57600080fd5b50610616611fda565b005b34801561062457600080fd5b5061063f600480360381019061063a91906140f7565b6120ed565b005b34801561064d57600080fd5b506106566124bc565b60405161066391906154a3565b60405180910390f35b34801561067857600080fd5b506106816124e1565b60405161068e9190615836565b60405180910390f35b3480156106a357600080fd5b506106be60048036038101906106b99190613f4c565b6124e7565b6040516106cb9190615836565b60405180910390f35b3480156106e057600080fd5b506106fb60048036038101906106f691906140f7565b612a56565b005b34801561070957600080fd5b50610724600480360381019061071f9190614149565b612da5565b604051610731919061581b565b60405180910390f35b610754600480360381019061074f91906140f7565b612e53565b005b60066020528060005260406000206000915090508060000154908060010160009054906101000a900473ffffffffffffffffffffffffffffffffffffffff169080600201549080600701549080600801549080600901549080600a01549080600b0160009054906101000a900460ff169080600b0160019054906101000a900460ff169080600d018054600181600116156101000203166002900480601f0160208091040260200160405190810160405280929190818152602001828054600181600116156101000203166002900480156108725780601f1061084757610100808354040283529160200191610872565b820191906000526020600020905b81548152906001019060200180831161085557829003601f168201915b505050505090508a565b6000600a905090565b6040518060400160405280601281526020017f4e465920476f7665726e6f7220416c706861000000000000000000000000000081525081565b6108c93383836130a0565b5050565b60076020528060005260406000206000915090505481565b3373ffffffffffffffffffffffffffffffffffffffff16600260009054906101000a900473ffffffffffffffffffffffffffffffffffffffff1673ffffffffffffffffffffffffffffffffffffffff16636352211e836040518263ffffffff1660e01b81526004016109579190615836565b60206040518083038186803b15801561096f57600080fd5b505afa158015610983573d6000803e3d6000fd5b505050506040513d601f19601f820116820180604052508101906109a79190613ee7565b73ffffffffffffffffffffffffffffffffffffffff16146109fd576040517f08c379a00000000000000000000000000000000000000000000000000000000081526004016109f49061559b565b60405180910390fd5b336009600083815260200190815260200160002060006101000a81548173ffffffffffffffffffffffffffffffffffffffff021916908373ffffffffffffffffffffffffffffffffffffffff160217905550600260009054906101000a900473ffffffffffffffffffffffffffffffffffffffff1673ffffffffffffffffffffffffffffffffffffffff166323b872dd3330846040518463ffffffff1660e01b8152600401610aae939291906151d9565b600060405180830381600087803b158015610ac857600080fd5b505af1158015610adc573d6000803e3d6000fd5b50505050610be3600360009054906101000a900473ffffffffffffffffffffffffffffffffffffffff1673ffffffffffffffffffffffffffffffffffffffff16636bdb744e836040518263ffffffff1660e01b8152600401610b3e9190615836565b60806040518083038186803b158015610b5657600080fd5b505afa158015610b6a573d6000803e3d6000fd5b505050506040513d601f19601f82011682018060405250810190610b8e91906140ce565b60200151600860003373ffffffffffffffffffffffffffffffffffffffff1673ffffffffffffffffffffffffffffffffffffffff1681526020019081526020016000206000015461331590919063ffffffff16565b600860003373ffffffffffffffffffffffffffffffffffffffff1673ffffffffffffffffffffffffffffffffffffffff16815260200190815260200160002060000181905550610d2c600360009054906101000a900473ffffffffffffffffffffffffffffffffffffffff1673ffffffffffffffffffffffffffffffffffffffff16636bdb744e836040518263ffffffff1660e01b8152600401610c879190615836565b60806040518083038186803b158015610c9f57600080fd5b505afa158015610cb3573d6000803e3d6000fd5b505050506040513d601f19601f82011682018060405250810190610cd791906140ce565b60200151600860003373ffffffffffffffffffffffffffffffffffffffff1673ffffffffffffffffffffffffffffffffffffffff1681526020019081526020016000206002015461331590919063ffffffff16565b600860003373ffffffffffffffffffffffffffffffffffffffff1673ffffffffffffffffffffffffffffffffffffffff1681526020019081526020016000206002018190555050565b600460009054906101000a900473ffffffffffffffffffffffffffffffffffffffff1673ffffffffffffffffffffffffffffffffffffffff163373ffffffffffffffffffffffffffffffffffffffff1614610e05576040517f08c379a0000000000000000000000000000000000000000000000000000000008152600401610dfc9061557b565b60405180910390fd5b6000809054906101000a900473ffffffffffffffffffffffffffffffffffffffff1673ffffffffffffffffffffffffffffffffffffffff16630825f38f6000809054906101000a900473ffffffffffffffffffffffffffffffffffffffff16600085604051602001610e7791906151a3565b604051602081830303815290604052856040518563ffffffff1660e01b8152600401610ea69493929190615270565b600060405180830381600087803b158015610ec057600080fd5b505af1158015610ed4573d6000803e3d6000fd5b505050506040513d6000823e3d601f19601f82011682018060405250810190610efd919061408d565b505050565b600068022b1c8c1227a00000905090565b60608060608060006006600087815260200190815260200160002090508060030181600401826005018360060183805480602002602001604051908101604052809291908181526020018280548015610fc157602002820191906000526020600020905b8160009054906101000a900473ffffffffffffffffffffffffffffffffffffffff1673ffffffffffffffffffffffffffffffffffffffff1681526020019060010190808311610f77575b505050505093508280548060200260200160405190810160405280929190818152602001828054801561101357602002820191906000526020600020905b815481526020019060010190808311610fff575b5050505050925081805480602002602001604051908101604052809291908181526020016000905b828210156110f7578382906000526020600020018054600181600116156101000203166002900480601f0160208091040260200160405190810160405280929190818152602001828054600181600116156101000203166002900480156110e35780601f106110b8576101008083540402835291602001916110e3565b820191906000526020600020905b8154815290600101906020018083116110c657829003601f168201915b50505050508152602001906001019061103b565b50505050915080805480602002602001604051908101604052809291908181526020016000905b828210156111da578382906000526020600020018054600181600116156101000203166002900480601f0160208091040260200160405190810160405280929190818152602001828054600181600116156101000203166002900480156111c65780601f1061119b576101008083540402835291602001916111c6565b820191906000526020600020905b8154815290600101906020018083116111a957829003601f168201915b50505050508152602001906001019061111e565b5050505090509450945094509450509193509193565b60006001905090565b600360009054906101000a900473ffffffffffffffffffffffffffffffffffffffff1681565b600081600554101580156112335750600082115b611272576040517f08c379a0000000000000000000000000000000000000000000000000000000008152600401611269906155db565b60405180910390fd5b600060066000848152602001908152602001600020905080600b0160009054906101000a900460ff16156112aa5760029150506113fe565b806007015443116112bf5760009150506113fe565b806008015443116112d45760019150506113fe565b80600a015481600901541115806112f557506112ee610f02565b8160090154105b156113045760039150506113fe565b60008160020154141561131b5760049150506113fe565b80600b0160019054906101000a900460ff161561133c5760079150506113fe565b6113e881600201546000809054906101000a900473ffffffffffffffffffffffffffffffffffffffff1673ffffffffffffffffffffffffffffffffffffffff1663c1a287e26040518163ffffffff1660e01b815260040160206040518083038186803b1580156113ab57600080fd5b505afa1580156113bf573d6000803e3d6000fd5b505050506040513d601f19601f820116820180604052508101906113e39190614120565b61336a565b42106113f85760069150506113fe565b60059150505b919050565b600061140e8261121f565b905060078081111561141c57fe5b81600781111561142857fe5b1415611469576040517f08c379a0000000000000000000000000000000000000000000000000000000008152600401611460906157bb565b60405180910390fd5b6000600660008481526020019081526020016000209050600460009054906101000a900473ffffffffffffffffffffffffffffffffffffffff1673ffffffffffffffffffffffffffffffffffffffff163373ffffffffffffffffffffffffffffffffffffffff16148061152457506114df611fca565b600860003373ffffffffffffffffffffffffffffffffffffffff1673ffffffffffffffffffffffffffffffffffffffff16815260200190815260200160002060000154105b611563576040517f08c379a000000000000000000000000000000000000000000000000000000000815260040161155a906156fb565b60405180910390fd5b600181600b0160006101000a81548160ff02191690831515021790555060008090505b81600301805490508110156116bc576000809054906101000a900473ffffffffffffffffffffffffffffffffffffffff1673ffffffffffffffffffffffffffffffffffffffff1663591fcdfe8360030183815481106115e157fe5b9060005260206000200160009054906101000a900473ffffffffffffffffffffffffffffffffffffffff1684600401848154811061161b57fe5b906000526020600020015485600501858154811061163557fe5b9060005260206000200186600601868154811061164e57fe5b9060005260206000200187600201546040518663ffffffff1660e01b815260040161167d959493929190615375565b600060405180830381600087803b15801561169757600080fd5b505af11580156116ab573d6000803e3d6000fd5b505050508080600101915050611586565b507f789cf55be980739dad1d0699b93b58e806b51c9d96619bfa8fe0a28abaa7b30c836040516116ec9190615836565b60405180910390a1505050565b600460009054906101000a900473ffffffffffffffffffffffffffffffffffffffff1681565b600260009054906101000a900473ffffffffffffffffffffffffffffffffffffffff1681565b60086020528060005260406000206000915090508060000154908060010154908060020154908060030154905084565b80600860003373ffffffffffffffffffffffffffffffffffffffff1673ffffffffffffffffffffffffffffffffffffffff1681526020019081526020016000206003015410156117fa576040517f08c379a00000000000000000000000000000000000000000000000000000000081526004016117f1906155bb565b60405180910390fd5b43600860003373ffffffffffffffffffffffffffffffffffffffff1673ffffffffffffffffffffffffffffffffffffffff168152602001908152602001600020600101541061187e576040517f08c379a00000000000000000000000000000000000000000000000000000000081526004016118759061579b565b60405180910390fd5b600160009054906101000a900473ffffffffffffffffffffffffffffffffffffffff1673ffffffffffffffffffffffffffffffffffffffff1663a9059cbb33836040518363ffffffff1660e01b81526004016118db929190615210565b602060405180830381600087803b1580156118f557600080fd5b505af1158015611909573d6000803e3d6000fd5b505050506040513d601f19601f8201168201806040525081019061192d919061403b565b5061198381600860003373ffffffffffffffffffffffffffffffffffffffff1673ffffffffffffffffffffffffffffffffffffffff168152602001908152602001600020600301546133bf90919063ffffffff16565b600860003373ffffffffffffffffffffffffffffffffffffffff1673ffffffffffffffffffffffffffffffffffffffff16815260200190815260200160002060030181905550611a1e81600860003373ffffffffffffffffffffffffffffffffffffffff1673ffffffffffffffffffffffffffffffffffffffff168152602001908152602001600020600001546133bf90919063ffffffff16565b600860003373ffffffffffffffffffffffffffffffffffffffff1673ffffffffffffffffffffffffffffffffffffffff1681526020019081526020016000206000018190555050565b80600160009054906101000a900473ffffffffffffffffffffffffffffffffffffffff1673ffffffffffffffffffffffffffffffffffffffff166370a08231336040518263ffffffff1660e01b8152600401611ac391906151be565b60206040518083038186803b158015611adb57600080fd5b505afa158015611aef573d6000803e3d6000fd5b505050506040513d601f19601f82011682018060405250810190611b139190614120565b1015611b54576040517f08c379a0000000000000000000000000000000000000000000000000000000008152600401611b4b906155fb565b60405180910390fd5b600160009054906101000a900473ffffffffffffffffffffffffffffffffffffffff1673ffffffffffffffffffffffffffffffffffffffff166323b872dd3330846040518463ffffffff1660e01b8152600401611bb3939291906151d9565b602060405180830381600087803b158015611bcd57600080fd5b505af1158015611be1573d6000803e3d6000fd5b505050506040513d601f19601f82011682018060405250810190611c05919061403b565b50611c5b81600860003373ffffffffffffffffffffffffffffffffffffffff1673ffffffffffffffffffffffffffffffffffffffff1681526020019081526020016000206000015461331590919063ffffffff16565b600860003373ffffffffffffffffffffffffffffffffffffffff1673ffffffffffffffffffffffffffffffffffffffff16815260200190815260200160002060000181905550611cf681600860003373ffffffffffffffffffffffffffffffffffffffff1673ffffffffffffffffffffffffffffffffffffffff1681526020019081526020016000206003015461331590919063ffffffff16565b600860003373ffffffffffffffffffffffffffffffffffffffff1673ffffffffffffffffffffffffffffffffffffffff1681526020019081526020016000206003018190555050565b600460009054906101000a900473ffffffffffffffffffffffffffffffffffffffff1673ffffffffffffffffffffffffffffffffffffffff163373ffffffffffffffffffffffffffffffffffffffff1614611dcf576040517f08c379a0000000000000000000000000000000000000000000000000000000008152600401611dc6906157fb565b60405180910390fd5b6000600460006101000a81548173ffffffffffffffffffffffffffffffffffffffff021916908373ffffffffffffffffffffffffffffffffffffffff160217905550565b6000600a905090565b600160009054906101000a900473ffffffffffffffffffffffffffffffffffffffff1681565b600460009054906101000a900473ffffffffffffffffffffffffffffffffffffffff1673ffffffffffffffffffffffffffffffffffffffff163373ffffffffffffffffffffffffffffffffffffffff1614611ed2576040517f08c379a0000000000000000000000000000000000000000000000000000000008152600401611ec99061567b565b60405180910390fd5b6000809054906101000a900473ffffffffffffffffffffffffffffffffffffffff1673ffffffffffffffffffffffffffffffffffffffff16633a66f9016000809054906101000a900473ffffffffffffffffffffffffffffffffffffffff16600085604051602001611f4491906151a3565b604051602081830303815290604052856040518563ffffffff1660e01b8152600401611f739493929190615270565b602060405180830381600087803b158015611f8d57600080fd5b505af1158015611fa1573d6000803e3d6000fd5b505050506040513d601f19601f82011682018060405250810190611fc59190614064565b505050565b6000678ac7230489e80000905090565b600460009054906101000a900473ffffffffffffffffffffffffffffffffffffffff1673ffffffffffffffffffffffffffffffffffffffff163373ffffffffffffffffffffffffffffffffffffffff161461206a576040517f08c379a0000000000000000000000000000000000000000000000000000000008152600401612061906154fb565b60405180910390fd5b6000809054906101000a900473ffffffffffffffffffffffffffffffffffffffff1673ffffffffffffffffffffffffffffffffffffffff16630e18b6816040518163ffffffff1660e01b8152600401600060405180830381600087803b1580156120d357600080fd5b505af11580156120e7573d6000803e3d6000fd5b50505050565b3373ffffffffffffffffffffffffffffffffffffffff166009600083815260200190815260200160002060009054906101000a900473ffffffffffffffffffffffffffffffffffffffff1673ffffffffffffffffffffffffffffffffffffffff161461218e576040517f08c379a00000000000000000000000000000000000000000000000000000000081526004016121859061559b565b60405180910390fd5b43600860003373ffffffffffffffffffffffffffffffffffffffff1673ffffffffffffffffffffffffffffffffffffffff1681526020019081526020016000206001015410612212576040517f08c379a00000000000000000000000000000000000000000000000000000000081526004016122099061579b565b60405180910390fd5b6000600860003373ffffffffffffffffffffffffffffffffffffffff1673ffffffffffffffffffffffffffffffffffffffff1681526020019081526020016000206002015411612297576040517f08c379a000000000000000000000000000000000000000000000000000000000815260040161228e9061563b565b60405180910390fd5b600260009054906101000a900473ffffffffffffffffffffffffffffffffffffffff1673ffffffffffffffffffffffffffffffffffffffff166323b872dd3033846040518463ffffffff1660e01b81526004016122f693929190615239565b600060405180830381600087803b15801561231057600080fd5b505af1158015612324573d6000803e3d6000fd5b5050505061242b600360009054906101000a900473ffffffffffffffffffffffffffffffffffffffff1673ffffffffffffffffffffffffffffffffffffffff16636bdb744e836040518263ffffffff1660e01b81526004016123869190615836565b60806040518083038186803b15801561239e57600080fd5b505afa1580156123b2573d6000803e3d6000fd5b505050506040513d601f19601f820116820180604052508101906123d691906140ce565b60200151600860003373ffffffffffffffffffffffffffffffffffffffff1673ffffffffffffffffffffffffffffffffffffffff168152602001908152602001600020600001546133bf90919063ffffffff16565b600860003373ffffffffffffffffffffffffffffffffffffffff1673ffffffffffffffffffffffffffffffffffffffff168152602001908152602001600020600001819055506000600860003373ffffffffffffffffffffffffffffffffffffffff1673ffffffffffffffffffffffffffffffffffffffff1681526020019081526020016000206002018190555050565b6000809054906101000a900473ffffffffffffffffffffffffffffffffffffffff1681565b60055481565b60006124f1611fca565b600860003373ffffffffffffffffffffffffffffffffffffffff1673ffffffffffffffffffffffffffffffffffffffff1681526020019081526020016000206000015411612574576040517f08c379a000000000000000000000000000000000000000000000000000000000815260040161256b9061575b565b60405180910390fd5b84518651148015612586575083518651145b8015612593575082518651145b6125d2576040517f08c379a00000000000000000000000000000000000000000000000000000000081526004016125c9906156db565b60405180910390fd5b600086511415612617576040517f08c379a000000000000000000000000000000000000000000000000000000000815260040161260e9061573b565b60405180910390fd5b61261f611e13565b86511115612662576040517f08c379a00000000000000000000000000000000000000000000000000000000081526004016126599061569b565b60405180910390fd5b6000600760003373ffffffffffffffffffffffffffffffffffffffff1673ffffffffffffffffffffffffffffffffffffffff168152602001908152602001600020549050600081146127715760006126b98261121f565b9050600160078111156126c857fe5b8160078111156126d457fe5b1415612715576040517f08c379a000000000000000000000000000000000000000000000000000000000815260040161270c9061577b565b60405180910390fd5b6000600781111561272257fe5b81600781111561272e57fe5b141561276f576040517f08c379a00000000000000000000000000000000000000000000000000000000081526004016127669061565b565b60405180910390fd5b505b60006127844361277f6111f0565b61336a565b905060006127998261279461087c565b61336a565b90506005600081548092919060010191905055506127b5613638565b604051806101c0016040528060055481526020013373ffffffffffffffffffffffffffffffffffffffff168152602001600081526020018b81526020018a815260200189815260200188815260200184815260200183815260200160008152602001600081526020016000151581526020016000151581526020018781525090508060066000836000015181526020019081526020016000206000820151816000015560208201518160010160006101000a81548173ffffffffffffffffffffffffffffffffffffffff021916908373ffffffffffffffffffffffffffffffffffffffff1602179055506040820151816002015560608201518160030190805190602001906128c59291906136c1565b5060808201518160040190805190602001906128e292919061374b565b5060a08201518160050190805190602001906128ff929190613798565b5060c082015181600601908051906020019061291c9291906137f8565b5060e082015181600701556101008201518160080155610120820151816009015561014082015181600a015561016082015181600b0160006101000a81548160ff02191690831515021790555061018082015181600b0160016101000a81548160ff0219169083151502179055506101a082015181600d0190805190602001906129a7929190613858565b50905050806000015160076000836020015173ffffffffffffffffffffffffffffffffffffffff1673ffffffffffffffffffffffffffffffffffffffff168152602001908152602001600020819055507f7d84a6263ae0d98d3329bd7b46bb4e8d6f98cd35a7adb45c274c8b7fd5ebd5e08160000151338c8c8c8c89898e604051612a3a99989796959493929190615851565b60405180910390a1806000015194505050505095945050505050565b60046007811115612a6357fe5b612a6c8261121f565b6007811115612a7757fe5b14612ab7576040517f08c379a0000000000000000000000000000000000000000000000000000000008152600401612aae9061551b565b60405180910390fd5b60006006600083815260200190815260200160002090506000612b78426000809054906101000a900473ffffffffffffffffffffffffffffffffffffffff1673ffffffffffffffffffffffffffffffffffffffff16636a42b8f86040518163ffffffff1660e01b815260040160206040518083038186803b158015612b3b57600080fd5b505afa158015612b4f573d6000803e3d6000fd5b505050506040513d601f19601f82011682018060405250810190612b739190614120565b61336a565b905060008090505b8260030180549050811015612d5d57612d50836003018281548110612ba157fe5b9060005260206000200160009054906101000a900473ffffffffffffffffffffffffffffffffffffffff16846004018381548110612bdb57fe5b9060005260206000200154856005018481548110612bf557fe5b906000526020600020018054600181600116156101000203166002900480601f016020809104026020016040519081016040528092919081815260200182805460018160011615610100020316600290048015612c935780601f10612c6857610100808354040283529160200191612c93565b820191906000526020600020905b815481529060010190602001808311612c7657829003601f168201915b5050505050866006018581548110612ca757fe5b906000526020600020018054600181600116156101000203166002900480601f016020809104026020016040519081016040528092919081815260200182805460018160011615610100020316600290048015612d455780601f10612d1a57610100808354040283529160200191612d45565b820191906000526020600020905b815481529060010190602001808311612d2857829003601f168201915b505050505086613409565b8080600101915050612b80565b508082600201819055507f9a2e42fd6722813d69113e7d0079d3d940171428df7373df9c7f7617cfda28928382604051612d989291906159a4565b60405180910390a1505050565b612dad6138d8565b60066000848152602001908152602001600020600c0160008373ffffffffffffffffffffffffffffffffffffffff1673ffffffffffffffffffffffffffffffffffffffff1681526020019081526020016000206040518060600160405290816000820160009054906101000a900460ff161515151581526020016000820160019054906101000a900460ff16151515158152602001600182015481525050905092915050565b60056007811115612e6057fe5b612e698261121f565b6007811115612e7457fe5b14612eb4576040517f08c379a0000000000000000000000000000000000000000000000000000000008152600401612eab9061553b565b60405180910390fd5b6000600660008381526020019081526020016000209050600181600b0160016101000a81548160ff02191690831515021790555060008090505b8160030180549050811015613064576000809054906101000a900473ffffffffffffffffffffffffffffffffffffffff1673ffffffffffffffffffffffffffffffffffffffff16630825f38f836004018381548110612f4957fe5b9060005260206000200154846003018481548110612f6357fe5b9060005260206000200160009054906101000a900473ffffffffffffffffffffffffffffffffffffffff16856004018581548110612f9d57fe5b9060005260206000200154866005018681548110612fb757fe5b90600052602060002001876006018781548110612fd057fe5b9060005260206000200188600201546040518763ffffffff1660e01b8152600401612fff959493929190615375565b6000604051808303818588803b15801561301857600080fd5b505af115801561302c573d6000803e3d6000fd5b50505050506040513d6000823e3d601f19601f82011682018060405250810190613056919061408d565b508080600101915050612eee565b507f712ae1383f79ac853f8d882153778e0260ef8f03b504e2866e0593e04d2b291f826040516130949190615836565b60405180910390a15050565b600160078111156130ad57fe5b6130b68361121f565b60078111156130c157fe5b14613101576040517f08c379a00000000000000000000000000000000000000000000000000000000081526004016130f8906157db565b60405180910390fd5b6000600660008481526020019081526020016000209050600081600c0160008673ffffffffffffffffffffffffffffffffffffffff1673ffffffffffffffffffffffffffffffffffffffff1681526020019081526020016000209050600015158160000160009054906101000a900460ff161515146131b5576040517f08c379a00000000000000000000000000000000000000000000000000000000081526004016131ac9061561b565b60405180910390fd5b6000600860003373ffffffffffffffffffffffffffffffffffffffff1673ffffffffffffffffffffffffffffffffffffffff16815260200190815260200160002060000154905061321060074361331590919063ffffffff16565b600860003373ffffffffffffffffffffffffffffffffffffffff1673ffffffffffffffffffffffffffffffffffffffff1681526020019081526020016000206001018190555083156132775761326a83600901548261336a565b836009018190555061328e565b61328583600a01548261336a565b83600a01819055505b60018260000160006101000a81548160ff021916908315150217905550838260000160016101000a81548160ff0219169083151502179055508082600101819055507f877856338e13f63d0c36822ff0ef736b80934cd90574a3a5bc9262c39d217c468686868460405161330594939291906152cf565b60405180910390a1505050505050565b600080828401905083811015613360576040517f08c379a00000000000000000000000000000000000000000000000000000000081526004016133579061555b565b60405180910390fd5b8091505092915050565b6000808284019050838110156133b5576040517f08c379a00000000000000000000000000000000000000000000000000000000081526004016133ac906156bb565b60405180910390fd5b8091505092915050565b600061340183836040518060400160405280601e81526020017f536166654d6174683a207375627472616374696f6e206f766572666c6f7700008152506135dd565b905092915050565b6000809054906101000a900473ffffffffffffffffffffffffffffffffffffffff1673ffffffffffffffffffffffffffffffffffffffff1663f2b06537868686868660405160200161345f959493929190615314565b604051602081830303815290604052805190602001206040518263ffffffff1660e01b81526004016134919190615437565b60206040518083038186803b1580156134a957600080fd5b505afa1580156134bd573d6000803e3d6000fd5b505050506040513d601f19601f820116820180604052508101906134e1919061403b565b15613521576040517f08c379a00000000000000000000000000000000000000000000000000000000081526004016135189061571b565b60405180910390fd5b6000809054906101000a900473ffffffffffffffffffffffffffffffffffffffff1673ffffffffffffffffffffffffffffffffffffffff16633a66f90186868686866040518663ffffffff1660e01b8152600401613583959493929190615314565b602060405180830381600087803b15801561359d57600080fd5b505af11580156135b1573d6000803e3d6000fd5b505050506040513d601f19601f820116820180604052508101906135d59190614064565b505050505050565b6000838311158290613625576040517f08c379a000000000000000000000000000000000000000000000000000000000815260040161361c91906154d9565b60405180910390fd5b5060008385039050809150509392505050565b604051806101c0016040528060008152602001600073ffffffffffffffffffffffffffffffffffffffff168152602001600081526020016060815260200160608152602001606081526020016060815260200160008152602001600081526020016000815260200160008152602001600015158152602001600015158152602001606081525090565b82805482825590600052602060002090810192821561373a579160200282015b828111156137395782518260006101000a81548173ffffffffffffffffffffffffffffffffffffffff021916908373ffffffffffffffffffffffffffffffffffffffff160217905550916020019190600101906136e1565b5b50905061374791906138fd565b5090565b828054828255906000526020600020908101928215613787579160200282015b8281111561378657825182559160200191906001019061376b565b5b5090506137949190613940565b5090565b8280548282559060005260206000209081019282156137e7579160200282015b828111156137e65782518290805190602001906137d6929190613858565b50916020019190600101906137b8565b5b5090506137f49190613965565b5090565b828054828255906000526020600020908101928215613847579160200282015b82811115613846578251829080519060200190613836929190613991565b5091602001919060010190613818565b5b5090506138549190613a11565b5090565b828054600181600116156101000203166002900490600052602060002090601f016020900481019282601f1061389957805160ff19168380011785556138c7565b828001600101855582156138c7579182015b828111156138c65782518255916020019190600101906138ab565b5b5090506138d49190613940565b5090565b6040518060600160405280600015158152602001600015158152602001600081525090565b61393d91905b8082111561393957600081816101000a81549073ffffffffffffffffffffffffffffffffffffffff021916905550600101613903565b5090565b90565b61396291905b8082111561395e576000816000905550600101613946565b5090565b90565b61398e91905b8082111561398a57600081816139819190613a3d565b5060010161396b565b5090565b90565b828054600181600116156101000203166002900490600052602060002090601f016020900481019282601f106139d257805160ff1916838001178555613a00565b82800160010185558215613a00579182015b828111156139ff5782518255916020019190600101906139e4565b5b509050613a0d9190613940565b5090565b613a3a91905b80821115613a365760008181613a2d9190613a85565b50600101613a17565b5090565b90565b50805460018160011615610100020316600290046000825580601f10613a635750613a82565b601f016020900490600052602060002090810190613a819190613940565b5b50565b50805460018160011615610100020316600290046000825580601f10613aab5750613aca565b601f016020900490600052602060002090810190613ac99190613940565b5b50565b600081359050613adc81615e4e565b92915050565b600081519050613af181615e4e565b92915050565b600082601f830112613b0857600080fd5b8135613b1b613b1682615a3f565b615a12565b91508181835260208401935060208101905083856020840282011115613b4057600080fd5b60005b83811015613b705781613b568882613acd565b845260208401935060208301925050600181019050613b43565b5050505092915050565b600082601f830112613b8b57600080fd5b8135613b9e613b9982615a67565b615a12565b9150818183526020840193506020810190508360005b83811015613be45781358601613bca8882613d24565b845260208401935060208301925050600181019050613bb4565b5050505092915050565b600082601f830112613bff57600080fd5b8135613c12613c0d82615a8f565b615a12565b9150818183526020840193506020810190508360005b83811015613c585781358601613c3e8882613dcc565b845260208401935060208301925050600181019050613c28565b5050505092915050565b600082601f830112613c7357600080fd5b8135613c86613c8182615ab7565b615a12565b91508181835260208401935060208101905083856020840282011115613cab57600080fd5b60005b83811015613cdb5781613cc18882613e94565b845260208401935060208301925050600181019050613cae565b5050505092915050565b600081359050613cf481615e65565b92915050565b600081519050613d0981615e65565b92915050565b600081519050613d1e81615e7c565b92915050565b600082601f830112613d3557600080fd5b8135613d48613d4382615adf565b615a12565b91508082526020830160208301858383011115613d6457600080fd5b613d6f838284615dee565b50505092915050565b600082601f830112613d8957600080fd5b8151613d9c613d9782615adf565b615a12565b91508082526020830160208301858383011115613db857600080fd5b613dc3838284615dfd565b50505092915050565b600082601f830112613ddd57600080fd5b8135613df0613deb82615b0b565b615a12565b91508082526020830160208301858383011115613e0c57600080fd5b613e17838284615dee565b50505092915050565b600060808284031215613e3257600080fd5b613e3c6080615a12565b90506000613e4c84828501613ae2565b6000830152506020613e6084828501613ea9565b6020830152506040613e7484828501613cfa565b6040830152506060613e8884828501613ea9565b60608301525092915050565b600081359050613ea381615e93565b92915050565b600081519050613eb881615e93565b92915050565b600060208284031215613ed057600080fd5b6000613ede84828501613acd565b91505092915050565b600060208284031215613ef957600080fd5b6000613f0784828501613ae2565b91505092915050565b60008060408385031215613f2357600080fd5b6000613f3185828601613acd565b9250506020613f4285828601613e94565b9150509250929050565b600080600080600060a08688031215613f6457600080fd5b600086013567ffffffffffffffff811115613f7e57600080fd5b613f8a88828901613af7565b955050602086013567ffffffffffffffff811115613fa757600080fd5b613fb388828901613c62565b945050604086013567ffffffffffffffff811115613fd057600080fd5b613fdc88828901613bee565b935050606086013567ffffffffffffffff811115613ff957600080fd5b61400588828901613b7a565b925050608086013567ffffffffffffffff81111561402257600080fd5b61402e88828901613dcc565b9150509295509295909350565b60006020828403121561404d57600080fd5b600061405b84828501613cfa565b91505092915050565b60006020828403121561407657600080fd5b600061408484828501613d0f565b91505092915050565b60006020828403121561409f57600080fd5b600082015167ffffffffffffffff8111156140b957600080fd5b6140c584828501613d78565b91505092915050565b6000608082840312156140e057600080fd5b60006140ee84828501613e20565b91505092915050565b60006020828403121561410957600080fd5b600061411784828501613e94565b91505092915050565b60006020828403121561413257600080fd5b600061414084828501613ea9565b91505092915050565b6000806040838503121561415c57600080fd5b600061416a85828601613e94565b925050602061417b85828601613acd565b9150509250929050565b6000806040838503121561419857600080fd5b60006141a685828601613e94565b92505060206141b785828601613ce5565b9150509250929050565b60006141cd8383614228565b60208301905092915050565b60006141e58383614419565b905092915050565b60006141f98383614574565b905092915050565b600061420d8383615185565b60208301905092915050565b61422281615d04565b82525050565b61423181615c9f565b82525050565b61424081615c9f565b82525050565b600061425182615ba1565b61425b8185615c17565b935061426683615b37565b8060005b8381101561429757815161427e88826141c1565b975061428983615be3565b92505060018101905061426a565b5085935050505092915050565b60006142af82615bac565b6142b98185615c28565b9350836020820285016142cb85615b47565b8060005b8581101561430757848403895281516142e885826141d9565b94506142f383615bf0565b925060208a019950506001810190506142cf565b50829750879550505050505092915050565b600061432482615bb7565b61432e8185615c39565b93508360208202850161434085615b57565b8060005b8581101561437c578484038952815161435d85826141ed565b945061436883615bfd565b925060208a01995050600181019050614344565b50829750879550505050505092915050565b600061439982615bc2565b6143a38185615c4a565b93506143ae83615b67565b8060005b838110156143df5781516143c68882614201565b97506143d183615c0a565b9250506001810190506143b2565b5085935050505092915050565b6143f581615cb1565b82525050565b61440481615cb1565b82525050565b61441381615cbd565b82525050565b600061442482615bcd565b61442e8185615c5b565b935061443e818560208601615dfd565b61444781615e30565b840191505092915050565b600061445d82615bcd565b6144678185615c6c565b9350614477818560208601615dfd565b61448081615e30565b840191505092915050565b6000815460018116600081146144a857600181146144ce57614512565b607f60028304166144b98187615c6c565b955060ff198316865260208601935050614512565b600282046144dc8187615c6c565b95506144e785615b77565b60005b82811015614509578154818901526001820191506020810190506144ea565b80880195505050505b505092915050565b61452381615d16565b82525050565b61453281615d3a565b82525050565b61454181615d5e565b82525050565b61455081615d82565b82525050565b61455f81615da6565b82525050565b61456e81615db8565b82525050565b600061457f82615bd8565b6145898185615c7d565b9350614599818560208601615dfd565b6145a281615e30565b840191505092915050565b60006145b882615bd8565b6145c28185615c8e565b93506145d2818560208601615dfd565b6145db81615e30565b840191505092915050565b60008154600181166000811461460357600181146146295761466d565b607f60028304166146148187615c8e565b955060ff19831686526020860193505061466d565b600282046146378187615c8e565b955061464285615b8c565b60005b8281101561466457815481890152600182019150602081019050614645565b80880195505050505b505092915050565b6000614682603983615c8e565b91507f476f7665726e6f72416c7068613a3a5f5f61636365707441646d696e3a20736560008301527f6e646572206d75737420626520676f7620677561726469616e000000000000006020830152604082019050919050565b60006146e8604483615c8e565b91507f476f7665726e6f72416c7068613a3a71756575653a2070726f706f73616c206360008301527f616e206f6e6c792062652071756575656420696620697420697320737563636560208301527f65646564000000000000000000000000000000000000000000000000000000006040830152606082019050919050565b6000614774604583615c8e565b91507f476f7665726e6f72416c7068613a3a657865637574653a2070726f706f73616c60008301527f2063616e206f6e6c79206265206578656375746564206966206974206973207160208301527f75657565640000000000000000000000000000000000000000000000000000006040830152606082019050919050565b6000614800601b83615c8e565b91507f536166654d6174683a206164646974696f6e206f766572666c6f7700000000006000830152602082019050919050565b6000614840604c83615c8e565b91507f476f7665726e6f72416c7068613a3a5f5f6578656375746553657454696d656c60008301527f6f636b50656e64696e6741646d696e3a2073656e646572206d7573742062652060208301527f676f7620677561726469616e00000000000000000000000000000000000000006040830152606082019050919050565b60006148cc601a83615c8e565b91507f4f776e6572206f6620746f6b656e206973206e6f7420757365720000000000006000830152602082019050919050565b600061490c602283615c8e565b91507f446f206e6f74206861766520656e6f756768204e465920746f2077697468647260008301527f61770000000000000000000000000000000000000000000000000000000000006020830152604082019050919050565b6000614972601883615c8e565b91507f73657450656e64696e6741646d696e28616464726573732900000000000000006000830152602082019050919050565b60006149b2602983615c8e565b91507f476f7665726e6f72416c7068613a3a73746174653a20696e76616c696420707260008301527f6f706f73616c20696400000000000000000000000000000000000000000000006020830152604082019050919050565b6000614a18602183615c8e565b91507f446f206e6f74206861766520656e6f756768204e465920746f206465706f736960008301527f74000000000000000000000000000000000000000000000000000000000000006020830152604082019050919050565b6000614a7e602d83615c8e565b91507f476f7665726e6f72416c7068613a3a5f63617374566f74653a20766f7465722060008301527f616c726561647920766f746564000000000000000000000000000000000000006020830152604082019050919050565b6000614ae4601d83615c8e565b91507f7573657220686173206e6f207374616b6520696e20636f6e74726163740000006000830152602082019050919050565b6000614b24605983615c8e565b91507f476f7665726e6f72416c7068613a3a70726f706f73653a206f6e65206c69766560008301527f2070726f706f73616c207065722070726f706f7365722c20666f756e6420616e60208301527f20616c72656164792070656e64696e672070726f706f73616c000000000000006040830152606082019050919050565b6000614bb0604a83615c8e565b91507f476f7665726e6f72416c7068613a3a5f5f717565756553657454696d656c6f6360008301527f6b50656e64696e6741646d696e3a2073656e646572206d75737420626520676f60208301527f7620677561726469616e000000000000000000000000000000000000000000006040830152606082019050919050565b6000614c3c602883615c8e565b91507f476f7665726e6f72416c7068613a3a70726f706f73653a20746f6f206d616e7960008301527f20616374696f6e730000000000000000000000000000000000000000000000006020830152604082019050919050565b6000614ca2601183615c8e565b91507f6164646974696f6e206f766572666c6f770000000000000000000000000000006000830152602082019050919050565b6000614ce2604483615c8e565b91507f476f7665726e6f72416c7068613a3a70726f706f73653a2070726f706f73616c60008301527f2066756e6374696f6e20696e666f726d6174696f6e206172697479206d69736d60208301527f61746368000000000000000000000000000000000000000000000000000000006040830152606082019050919050565b6000614d6e602f83615c8e565b91507f476f7665726e6f72416c7068613a3a63616e63656c3a2070726f706f7365722060008301527f61626f7665207468726573686f6c6400000000000000000000000000000000006020830152604082019050919050565b6000614dd4604483615c8e565b91507f476f7665726e6f72416c7068613a3a5f71756575654f725265766572743a207060008301527f726f706f73616c20616374696f6e20616c72656164792071756575656420617460208301527f20657461000000000000000000000000000000000000000000000000000000006040830152606082019050919050565b6000614e60602c83615c8e565b91507f476f7665726e6f72416c7068613a3a70726f706f73653a206d7573742070726f60008301527f7669646520616374696f6e7300000000000000000000000000000000000000006020830152604082019050919050565b6000614ec6603f83615c8e565b91507f476f7665726e6f72416c7068613a3a70726f706f73653a2070726f706f73657260008301527f20766f7465732062656c6f772070726f706f73616c207468726573686f6c64006020830152604082019050919050565b6000614f2c605883615c8e565b91507f476f7665726e6f72416c7068613a3a70726f706f73653a206f6e65206c69766560008301527f2070726f706f73616c207065722070726f706f7365722c20666f756e6420616e60208301527f20616c7265616479206163746976652070726f706f73616c00000000000000006040830152606082019050919050565b6000614fb8603683615c8e565b91507f63616e6e6f7420776974686472617720756e74696c20766f74696e67206f6e2060008301527f766f7465642070726f706f73616c20697320646f6e65000000000000000000006020830152604082019050919050565b600061501e603683615c8e565b91507f476f7665726e6f72416c7068613a3a63616e63656c3a2063616e6e6f7420636160008301527f6e63656c2065786563757465642070726f706f73616c000000000000000000006020830152604082019050919050565b6000615084602a83615c8e565b91507f476f7665726e6f72416c7068613a3a5f63617374566f74653a20766f74696e6760008301527f20697320636c6f736564000000000000000000000000000000000000000000006020830152604082019050919050565b60006150ea603683615c8e565b91507f476f7665726e6f72416c7068613a3a5f5f61626469636174653a2073656e646560008301527f72206d75737420626520676f7620677561726469616e000000000000000000006020830152604082019050919050565b60608201600082015161515960008501826143ec565b50602082015161516c60208501826143ec565b50604082015161517f6040850182615185565b50505050565b61518e81615cfa565b82525050565b61519d81615cfa565b82525050565b60006020820190506151b86000830184614237565b92915050565b60006020820190506151d36000830184614219565b92915050565b60006060820190506151ee6000830186614219565b6151fb6020830185614237565b6152086040830184615194565b949350505050565b60006040820190506152256000830185614219565b6152326020830184615194565b9392505050565b600060608201905061524e6000830186614237565b61525b6020830185614219565b6152686040830184615194565b949350505050565b600060a0820190506152856000830187614237565b6152926020830186614565565b81810360408301526152a381614965565b905081810360608301526152b78185614452565b90506152c66080830184615194565b95945050505050565b60006080820190506152e46000830187614237565b6152f16020830186615194565b6152fe60408301856143fb565b61530b6060830184615194565b95945050505050565b600060a0820190506153296000830188614237565b6153366020830187615194565b818103604083015261534881866145ad565b9050818103606083015261535c8185614452565b905061536b6080830184615194565b9695505050505050565b600060a08201905061538a6000830188614237565b6153976020830187615194565b81810360408301526153a981866145e6565b905081810360608301526153bd818561448b565b90506153cc6080830184615194565b9695505050505050565b600060808201905081810360008301526153f08187614246565b90508181036020830152615404818661438e565b905081810360408301526154188185614319565b9050818103606083015261542c81846142a4565b905095945050505050565b600060208201905061544c600083018461440a565b92915050565b6000602082019050615467600083018461451a565b92915050565b60006020820190506154826000830184614529565b92915050565b600060208201905061549d6000830184614538565b92915050565b60006020820190506154b86000830184614547565b92915050565b60006020820190506154d36000830184614556565b92915050565b600060208201905081810360008301526154f381846145ad565b905092915050565b6000602082019050818103600083015261551481614675565b9050919050565b60006020820190508181036000830152615534816146db565b9050919050565b6000602082019050818103600083015261555481614767565b9050919050565b60006020820190508181036000830152615574816147f3565b9050919050565b6000602082019050818103600083015261559481614833565b9050919050565b600060208201905081810360008301526155b4816148bf565b9050919050565b600060208201905081810360008301526155d4816148ff565b9050919050565b600060208201905081810360008301526155f4816149a5565b9050919050565b6000602082019050818103600083015261561481614a0b565b9050919050565b6000602082019050818103600083015261563481614a71565b9050919050565b6000602082019050818103600083015261565481614ad7565b9050919050565b6000602082019050818103600083015261567481614b17565b9050919050565b6000602082019050818103600083015261569481614ba3565b9050919050565b600060208201905081810360008301526156b481614c2f565b9050919050565b600060208201905081810360008301526156d481614c95565b9050919050565b600060208201905081810360008301526156f481614cd5565b9050919050565b6000602082019050818103600083015261571481614d61565b9050919050565b6000602082019050818103600083015261573481614dc7565b9050919050565b6000602082019050818103600083015261575481614e53565b9050919050565b6000602082019050818103600083015261577481614eb9565b9050919050565b6000602082019050818103600083015261579481614f1f565b9050919050565b600060208201905081810360008301526157b481614fab565b9050919050565b600060208201905081810360008301526157d481615011565b9050919050565b600060208201905081810360008301526157f481615077565b9050919050565b60006020820190508181036000830152615814816150dd565b9050919050565b60006060820190506158306000830184615143565b92915050565b600060208201905061584b6000830184615194565b92915050565b600061012082019050615867600083018c615194565b615874602083018b614219565b8181036040830152615886818a614246565b9050818103606083015261589a818961438e565b905081810360808301526158ae8188614319565b905081810360a08301526158c281876142a4565b90506158d160c0830186615194565b6158de60e0830185615194565b8181036101008301526158f181846145ad565b90509a9950505050505050505050565b600061014082019050615917600083018d615194565b615924602083018c614237565b615931604083018b615194565b61593e606083018a615194565b61594b6080830189615194565b61595860a0830188615194565b61596560c0830187615194565b61597260e08301866143fb565b6159806101008301856143fb565b81810361012083015261599381846145ad565b90509b9a5050505050505050505050565b60006040820190506159b96000830185615194565b6159c66020830184615194565b9392505050565b60006080820190506159e26000830187615194565b6159ef6020830186615194565b6159fc6040830185615194565b615a096060830184615194565b95945050505050565b6000604051905081810181811067ffffffffffffffff82111715615a3557600080fd5b8060405250919050565b600067ffffffffffffffff821115615a5657600080fd5b602082029050602081019050919050565b600067ffffffffffffffff821115615a7e57600080fd5b602082029050602081019050919050565b600067ffffffffffffffff821115615aa657600080fd5b602082029050602081019050919050565b600067ffffffffffffffff821115615ace57600080fd5b602082029050602081019050919050565b600067ffffffffffffffff821115615af657600080fd5b601f19601f8301169050602081019050919050565b600067ffffffffffffffff821115615b2257600080fd5b601f19601f8301169050602081019050919050565b6000819050602082019050919050565b6000819050602082019050919050565b6000819050602082019050919050565b6000819050602082019050919050565b60008190508160005260206000209050919050565b60008190508160005260206000209050919050565b600081519050919050565b600081519050919050565b600081519050919050565b600081519050919050565b600081519050919050565b600081519050919050565b6000602082019050919050565b6000602082019050919050565b6000602082019050919050565b6000602082019050919050565b600082825260208201905092915050565b600082825260208201905092915050565b600082825260208201905092915050565b600082825260208201905092915050565b600082825260208201905092915050565b600082825260208201905092915050565b600082825260208201905092915050565b600082825260208201905092915050565b6000615caa82615cda565b9050919050565b60008115159050919050565b6000819050919050565b6000819050615cd582615e41565b919050565b600073ffffffffffffffffffffffffffffffffffffffff82169050919050565b6000819050919050565b6000615d0f82615dca565b9050919050565b6000615d2182615d28565b9050919050565b6000615d3382615cda565b9050919050565b6000615d4582615d4c565b9050919050565b6000615d5782615cda565b9050919050565b6000615d6982615d70565b9050919050565b6000615d7b82615cda565b9050919050565b6000615d8d82615d94565b9050919050565b6000615d9f82615cda565b9050919050565b6000615db182615cc7565b9050919050565b6000615dc382615cfa565b9050919050565b6000615dd582615ddc565b9050919050565b6000615de782615cda565b9050919050565b82818337600083830152505050565b60005b83811015615e1b578082015181840152602081019050615e00565b83811115615e2a576000848401525b50505050565b6000601f19601f8301169050919050565b60088110615e4b57fe5b50565b615e5781615c9f565b8114615e6257600080fd5b50565b615e6e81615cb1565b8114615e7957600080fd5b50565b615e8581615cbd565b8114615e9057600080fd5b50565b615e9c81615cfa565b8114615ea757600080fd5b5056fea2646970667358221220a59656c62a47e8625e288fcc3d7c71cb835ec537ec9ffbdb49f7f36d376b157164736f6c634300060a0033",
  "immutableReferences": {},
  "source": "// SPDX-License-Identifier: MIT\n\npragma solidity 0.6.10;\npragma experimental ABIEncoderV2;\n\nimport \"@openzeppelin/contracts/math/SafeMath.sol\";\nimport \"@openzeppelin/contracts/token/ERC20/IERC20.sol\";\nimport \"@openzeppelin/contracts/token/ERC721/IERC721.sol\";\n\ncontract GovernorAlpha {\n    using SafeMath for uint256;\n\n    /// @notice The name of this contract\n    string public constant name = \"NFY Governor Alpha\";\n\n    /// @notice The number of votes in support of a proposal required in order for a quorum to be reached and for a vote to succeed\n    function quorumVotes() public pure returns (uint256) {\n        return 40e18;\n    } // 40 = 0.04% of NFY\n\n    /// @notice The number of votes required in order for a voter to become a proposer\n    function proposalThreshold() public pure returns (uint256) {\n        return 10e18;\n    } // 10 = 0.01% of NFY\n\n    /// @notice The maximum number of actions that can be included in a proposal\n    function proposalMaxOperations() public pure returns (uint256) {\n        return 10;\n    } // 10 actions\n\n    /// @notice The delay before voting on a proposal may take place, once proposed\n    function votingDelay() public pure returns (uint256) {\n        return 1;\n    } // 1 block\n\n    /// @notice The duration of voting on a proposal, in blocks\n    function votingPeriod() public pure returns (uint256) {\n        return 10;\n    } // ~3 days in blocks (assuming 15s blocks)\n\n    /// @notice The address of the NFY Protocol Timelock\n    TimelockInterface public timelock;\n\n    /// @notice The address of the NFY governance token\n    IERC20 public nfy;\n\n    /// @notice The address of the NFT token\n    IERC721 public nft;\n\n    /// @notice The address of the NFY Staking token\n    StakeInterface public stake;\n\n    /// @notice The address of the Governor Guardian\n    address public guardian;\n\n    /// @notice The total number of proposals\n    uint256 public proposalCount;\n\n    struct Proposal {\n        uint256 id;\n        address proposer;\n        uint256 eta;\n        address[] targets;\n        uint256[] values;\n        string[] signatures;\n        bytes[] calldatas;\n        uint256 startBlock;\n        uint256 endBlock;\n        uint256 forVotes;\n        uint256 againstVotes;\n        bool canceled;\n        bool executed;\n        mapping(address => Receipt) receipts;\n        string message;\n    }\n\n    /// @notice Ballot receipt record for a voter\n    struct Receipt {\n        bool hasVoted;\n        bool support;\n        uint256 votes;\n    }\n\n    /// @notice Possible states that a proposal may be in\n    enum ProposalState {\n        Pending,\n        Active,\n        Canceled,\n        Defeated,\n        Succeeded,\n        Queued,\n        Expired,\n        Executed\n    }\n\n    struct UserInfo {\n        uint256 votePower;\n        uint256 tokenLocker;\n        uint256 stakeRecord;\n        uint256 tokenRecord;\n    }\n\n    /// @notice The official record of all proposals ever proposed\n    mapping(uint256 => Proposal) public proposals;\n\n    /// @notice The latest proposal for each proposer\n    mapping(address => uint256) public latestProposalIds;\n\n    mapping(address => UserInfo) public userDetails;\n\n    mapping(uint256 => address) stakedIdInfo;\n\n    /// @notice An event emitted when a new proposal is created\n    event ProposalCreated(\n        uint256 id,\n        address proposer,\n        address[] targets,\n        uint256[] values,\n        string[] signatures,\n        bytes[] calldatas,\n        uint256 startBlock,\n        uint256 endBlock,\n        string description\n    );\n\n    /// @notice An event emitted when a vote has been cast on a proposal\n    event VoteCast(\n        address voter,\n        uint256 proposalId,\n        bool support,\n        uint256 votes\n    );\n\n    /// @notice An event emitted when a proposal has been canceled\n    event ProposalCanceled(uint256 id);\n\n    /// @notice An event emitted when a proposal has been queued in the Timelock\n    event ProposalQueued(uint256 id, uint256 eta);\n\n    /// @notice An event emitted when a proposal has been executed in the Timelock\n    event ProposalExecuted(uint256 id);\n\n    constructor(\n        address timelock_,\n        address _nfy,\n        address guardian_,\n        address _nft,\n        address _stake\n    ) public {\n        timelock = TimelockInterface(timelock_);\n        nfy = IERC20(_nfy);\n        nft = IERC721(_nft);\n        stake = StakeInterface(_stake);\n        guardian = guardian_;\n    }\n\n    function depositToken(uint256 amount) external {\n        require(\n            nfy.balanceOf(msg.sender) >= amount,\n            \"Do not have enough NFY to deposit\"\n        );\n        nfy.transferFrom(msg.sender, address(this), amount);\n        userDetails[msg.sender].votePower = userDetails[msg.sender]\n            .votePower\n            .add(amount);\n        userDetails[msg.sender].tokenRecord = userDetails[msg.sender]\n            .tokenRecord\n            .add(amount);\n    }\n\n    function withdrawToken(uint256 amount) external {\n        require(\n            userDetails[msg.sender].tokenRecord >= amount,\n            \"Do not have enough NFY to withdraw\"\n        );\n        require(\n            userDetails[msg.sender].tokenLocker < block.number,\n            \"cannot withdraw until voting on voted proposal is done\"\n        );\n        nfy.transfer(msg.sender, amount);\n        userDetails[msg.sender].tokenRecord = userDetails[msg.sender]\n            .tokenRecord\n            .sub(amount);\n        userDetails[msg.sender].votePower = userDetails[msg.sender]\n            .votePower\n            .sub(amount);\n    }\n\n    function depositStakedToken(uint256 nftId) external {\n        require(nft.ownerOf(nftId) == msg.sender, \"Owner of token is not user\");\n        stakedIdInfo[nftId] = msg.sender;\n        nft.transferFrom(msg.sender, address(this), nftId);\n        userDetails[msg.sender].votePower = userDetails[msg.sender]\n            .votePower\n            .add(stake.NFTDetails(nftId)._NFYDeposited);\n        userDetails[msg.sender].stakeRecord = userDetails[msg.sender]\n            .stakeRecord\n            .add(stake.NFTDetails(nftId)._NFYDeposited);\n    }\n\n    function withdrawStakedToken(uint256 nftId) external {\n        require(\n            stakedIdInfo[nftId] == msg.sender,\n            \"Owner of token is not user\"\n        );\n        require(\n            userDetails[msg.sender].tokenLocker < block.number,\n            \"cannot withdraw until voting on voted proposal is done\"\n        );\n        require(\n            userDetails[msg.sender].stakeRecord > 0,\n            \"user has no stake in contract\"\n        );\n        nft.transferFrom(address(this), msg.sender, nftId);\n        userDetails[msg.sender].votePower = userDetails[msg.sender]\n            .votePower\n            .sub(stake.NFTDetails(nftId)._NFYDeposited);\n        userDetails[msg.sender].stakeRecord = 0;\n    }\n\n    function propose(\n        address[] memory targets,\n        uint256[] memory values,\n        string[] memory signatures,\n        bytes[] memory calldatas,\n        string memory description\n    ) public returns (uint256) {\n        require(\n            userDetails[msg.sender].votePower > proposalThreshold(),\n            \"GovernorAlpha::propose: proposer votes below proposal threshold\"\n        );\n        require(\n            targets.length == values.length &&\n                targets.length == signatures.length &&\n                targets.length == calldatas.length,\n            \"GovernorAlpha::propose: proposal function information arity mismatch\"\n        );\n        require(\n            targets.length != 0,\n            \"GovernorAlpha::propose: must provide actions\"\n        );\n        require(\n            targets.length <= proposalMaxOperations(),\n            \"GovernorAlpha::propose: too many actions\"\n        );\n\n        uint256 latestProposalId = latestProposalIds[msg.sender];\n        if (latestProposalId != 0) {\n            ProposalState proposersLatestProposalState =\n                state(latestProposalId);\n            require(\n                proposersLatestProposalState != ProposalState.Active,\n                \"GovernorAlpha::propose: one live proposal per proposer, found an already active proposal\"\n            );\n            require(\n                proposersLatestProposalState != ProposalState.Pending,\n                \"GovernorAlpha::propose: one live proposal per proposer, found an already pending proposal\"\n            );\n        }\n\n        uint256 startBlock = add256(block.number, votingDelay());\n        uint256 endBlock = add256(startBlock, votingPeriod());\n\n        proposalCount++;\n        Proposal memory newProposal =\n            Proposal({\n                id: proposalCount,\n                proposer: msg.sender,\n                targets: targets,\n                values: values,\n                signatures: signatures,\n                calldatas: calldatas,\n                eta: 0,\n                startBlock: startBlock,\n                endBlock: endBlock,\n                forVotes: 0,\n                againstVotes: 0,\n                canceled: false,\n                executed: false,\n                message: description\n            });\n\n        proposals[newProposal.id] = newProposal;\n        latestProposalIds[newProposal.proposer] = newProposal.id;\n\n        emit ProposalCreated(\n            newProposal.id,\n            msg.sender,\n            targets,\n            values,\n            signatures,\n            calldatas,\n            startBlock,\n            endBlock,\n            description\n        );\n        return newProposal.id;\n    }\n\n    function queue(uint256 proposalId) public {\n        require(\n            state(proposalId) == ProposalState.Succeeded,\n            \"GovernorAlpha::queue: proposal can only be queued if it is succeeded\"\n        );\n        Proposal storage proposal = proposals[proposalId];\n        uint256 eta = add256(block.timestamp, timelock.delay());\n        for (uint256 i = 0; i < proposal.targets.length; i++) {\n            _queueOrRevert(\n                proposal.targets[i],\n                proposal.values[i],\n                proposal.signatures[i],\n                proposal.calldatas[i],\n                eta\n            );\n        }\n        proposal.eta = eta;\n        emit ProposalQueued(proposalId, eta);\n    }\n\n    function _queueOrRevert(\n        address target,\n        uint256 value,\n        string memory signature,\n        bytes memory data,\n        uint256 eta\n    ) internal {\n        require(\n            !timelock.queuedTransactions(\n                keccak256(abi.encode(target, value, signature, data, eta))\n            ),\n            \"GovernorAlpha::_queueOrRevert: proposal action already queued at eta\"\n        );\n        timelock.queueTransaction(target, value, signature, data, eta);\n    }\n\n    function execute(uint256 proposalId) public payable {\n        require(\n            state(proposalId) == ProposalState.Queued,\n            \"GovernorAlpha::execute: proposal can only be executed if it is queued\"\n        );\n        Proposal storage proposal = proposals[proposalId];\n        proposal.executed = true;\n        for (uint256 i = 0; i < proposal.targets.length; i++) {\n            timelock.executeTransaction{value: (proposal.values[i])}(\n                proposal.targets[i],\n                proposal.values[i],\n                proposal.signatures[i],\n                proposal.calldatas[i],\n                proposal.eta\n            );\n        }\n        emit ProposalExecuted(proposalId);\n    }\n\n    function cancel(uint256 proposalId) public {\n        ProposalState state = state(proposalId);\n        require(\n            state != ProposalState.Executed,\n            \"GovernorAlpha::cancel: cannot cancel executed proposal\"\n        );\n\n        Proposal storage proposal = proposals[proposalId];\n        require(\n            msg.sender == guardian ||\n                userDetails[msg.sender].votePower < proposalThreshold(),\n            \"GovernorAlpha::cancel: proposer above threshold\"\n        );\n\n        proposal.canceled = true;\n        for (uint256 i = 0; i < proposal.targets.length; i++) {\n            timelock.cancelTransaction(\n                proposal.targets[i],\n                proposal.values[i],\n                proposal.signatures[i],\n                proposal.calldatas[i],\n                proposal.eta\n            );\n        }\n\n        emit ProposalCanceled(proposalId);\n    }\n\n    function getActions(uint256 proposalId)\n        public\n        view\n        returns (\n            address[] memory targets,\n            uint256[] memory values,\n            string[] memory signatures,\n            bytes[] memory calldatas\n        )\n    {\n        Proposal storage p = proposals[proposalId];\n        return (p.targets, p.values, p.signatures, p.calldatas);\n    }\n\n    function getReceipt(uint256 proposalId, address voter)\n        public\n        view\n        returns (Receipt memory)\n    {\n        return proposals[proposalId].receipts[voter];\n    }\n\n    function state(uint256 proposalId) public view returns (ProposalState) {\n        require(\n            proposalCount >= proposalId && proposalId > 0,\n            \"GovernorAlpha::state: invalid proposal id\"\n        );\n        Proposal storage proposal = proposals[proposalId];\n        if (proposal.canceled) {\n            return ProposalState.Canceled;\n        } else if (block.number <= proposal.startBlock) {\n            return ProposalState.Pending;\n        } else if (block.number <= proposal.endBlock) {\n            return ProposalState.Active;\n        } else if (\n            proposal.forVotes <= proposal.againstVotes ||\n            proposal.forVotes < quorumVotes()\n        ) {\n            return ProposalState.Defeated;\n        } else if (proposal.eta == 0) {\n            return ProposalState.Succeeded;\n        } else if (proposal.executed) {\n            return ProposalState.Executed;\n        } else if (\n            block.timestamp >= add256(proposal.eta, timelock.GRACE_PERIOD())\n        ) {\n            return ProposalState.Expired;\n        } else {\n            return ProposalState.Queued;\n        }\n    }\n\n    function castVote(uint256 proposalId, bool support) public {\n        return _castVote(msg.sender, proposalId, support);\n    }\n\n    function _castVote(\n        address voter,\n        uint256 proposalId,\n        bool support\n    ) internal {\n        require(\n            state(proposalId) == ProposalState.Active,\n            \"GovernorAlpha::_castVote: voting is closed\"\n        );\n        Proposal storage proposal = proposals[proposalId];\n        Receipt storage receipt = proposal.receipts[voter];\n        require(\n            receipt.hasVoted == false,\n            \"GovernorAlpha::_castVote: voter already voted\"\n        );\n        uint256 votes = userDetails[msg.sender].votePower;\n        userDetails[msg.sender].tokenLocker = block.number.add(7);\n\n        if (support) {\n            proposal.forVotes = add256(proposal.forVotes, votes);\n        } else {\n            proposal.againstVotes = add256(proposal.againstVotes, votes);\n        }\n\n        receipt.hasVoted = true;\n        receipt.support = support;\n        receipt.votes = votes;\n\n        emit VoteCast(voter, proposalId, support, votes);\n    }\n\n    function __acceptAdmin() public {\n        require(\n            msg.sender == guardian,\n            \"GovernorAlpha::__acceptAdmin: sender must be gov guardian\"\n        );\n        timelock.acceptAdmin();\n    }\n\n    function __abdicate() public {\n        require(\n            msg.sender == guardian,\n            \"GovernorAlpha::__abdicate: sender must be gov guardian\"\n        );\n        guardian = address(0);\n    }\n\n    function __queueSetTimelockPendingAdmin(\n        address newPendingAdmin,\n        uint256 eta\n    ) public {\n        require(\n            msg.sender == guardian,\n            \"GovernorAlpha::__queueSetTimelockPendingAdmin: sender must be gov guardian\"\n        );\n        timelock.queueTransaction(\n            address(timelock),\n            0,\n            \"setPendingAdmin(address)\",\n            abi.encode(newPendingAdmin),\n            eta\n        );\n    }\n\n    function __executeSetTimelockPendingAdmin(\n        address newPendingAdmin,\n        uint256 eta\n    ) public {\n        require(\n            msg.sender == guardian,\n            \"GovernorAlpha::__executeSetTimelockPendingAdmin: sender must be gov guardian\"\n        );\n        timelock.executeTransaction(\n            address(timelock),\n            0,\n            \"setPendingAdmin(address)\",\n            abi.encode(newPendingAdmin),\n            eta\n        );\n    }\n\n    function add256(uint256 a, uint256 b) internal pure returns (uint256) {\n        uint256 c = a + b;\n        require(c >= a, \"addition overflow\");\n        return c;\n    }\n\n    function sub256(uint256 a, uint256 b) internal pure returns (uint256) {\n        require(b <= a, \"subtraction underflow\");\n        return a - b;\n    }\n}\n\ninterface TimelockInterface {\n    function delay() external view returns (uint256);\n\n    function GRACE_PERIOD() external view returns (uint256);\n\n    function acceptAdmin() external;\n\n    function queuedTransactions(bytes32 hash) external view returns (bool);\n\n    function queueTransaction(\n        address target,\n        uint256 value,\n        string calldata signature,\n        bytes calldata data,\n        uint256 eta\n    ) external returns (bytes32);\n\n    function cancelTransaction(\n        address target,\n        uint256 value,\n        string calldata signature,\n        bytes calldata data,\n        uint256 eta\n    ) external;\n\n    function executeTransaction(\n        address target,\n        uint256 value,\n        string calldata signature,\n        bytes calldata data,\n        uint256 eta\n    ) external payable returns (bytes memory);\n}\n\ninterface StakeInterface {\n    struct NFT {\n        address _addressOfMinter;\n        uint256 _NFYDeposited;\n        bool _inCirculation;\n        uint256 _rewardDebt;\n    }\n\n    function NFTDetails(uint256 nftId) external view returns (NFT memory);\n}\n",
  "sourcePath": "/Users/macbook/Documents/nfy/nfyGov/NFY-Governance/gov/contracts/GovernorAlpha.sol",
  "compiler": {
    "name": "solc",
    "version": "0.6.10+commit.00c0fcaf.Emscripten.clang"
  },
  "schemaVersion": "3.3.3",
  "updatedAt": "2021-02-16T11:59:45.570Z",
  "devdoc": {
    "methods": {}
  },
  "userdoc": {
    "methods": {
      "guardian()": {
        "notice": "The address of the Governor Guardian"
      },
      "latestProposalIds(address)": {
        "notice": "The latest proposal for each proposer"
      },
      "name()": {
        "notice": "The name of this contract"
      },
      "nft()": {
        "notice": "The address of the NFT token"
      },
      "nfy()": {
        "notice": "The address of the NFY governance token"
      },
      "proposalCount()": {
        "notice": "The total number of proposals"
      },
      "proposalMaxOperations()": {
        "notice": "The maximum number of actions that can be included in a proposal"
      },
      "proposalThreshold()": {
        "notice": "The number of votes required in order for a voter to become a proposer"
      },
      "proposals(uint256)": {
        "notice": "The official record of all proposals ever proposed"
      },
      "quorumVotes()": {
        "notice": "The number of votes in support of a proposal required in order for a quorum to be reached and for a vote to succeed"
      },
      "stake()": {
        "notice": "The address of the NFY Staking token"
      },
      "timelock()": {
        "notice": "The address of the NFY Protocol Timelock"
      },
      "votingDelay()": {
        "notice": "The delay before voting on a proposal may take place, once proposed"
      },
      "votingPeriod()": {
        "notice": "The duration of voting on a proposal, in blocks"
      }
    }
  }
}