{
  "contractName": "NFYStaking",
  "abi": [
    {
      "inputs": [
        {
          "internalType": "address",
          "name": "_NFYToken",
          "type": "address"
        },
        {
          "internalType": "address",
          "name": "_StakingNFT",
          "type": "address"
        },
        {
          "internalType": "address",
          "name": "_staking",
          "type": "address"
        },
        {
          "internalType": "address",
          "name": "_rewardPool",
          "type": "address"
        },
        {
          "internalType": "uint256",
          "name": "_dailyReward",
          "type": "uint256"
        }
      ],
      "stateMutability": "nonpayable",
      "type": "constructor"
    },
    {
      "anonymous": false,
      "inputs": [
        {
          "indexed": false,
          "internalType": "address",
          "name": "_platformAddress",
          "type": "address"
        },
        {
          "indexed": false,
          "internalType": "uint256",
          "name": "_time",
          "type": "uint256"
        }
      ],
      "name": "AddedPlatformAddress",
      "type": "event"
    },
    {
      "anonymous": false,
      "inputs": [
        {
          "indexed": false,
          "internalType": "address",
          "name": "_staker",
          "type": "address"
        },
        {
          "indexed": false,
          "internalType": "uint256",
          "name": "_tokenId",
          "type": "uint256"
        },
        {
          "indexed": false,
          "internalType": "uint256",
          "name": "_time",
          "type": "uint256"
        }
      ],
      "name": "MintedToken",
      "type": "event"
    },
    {
      "anonymous": false,
      "inputs": [
        {
          "indexed": false,
          "internalType": "uint256",
          "name": "_blocksRewarded",
          "type": "uint256"
        },
        {
          "indexed": false,
          "internalType": "uint256",
          "name": "_amountRewarded",
          "type": "uint256"
        },
        {
          "indexed": false,
          "internalType": "uint256",
          "name": "_time",
          "type": "uint256"
        }
      ],
      "name": "PoolUpdated",
      "type": "event"
    },
    {
      "anonymous": false,
      "inputs": [
        {
          "indexed": false,
          "internalType": "address",
          "name": "_staker",
          "type": "address"
        },
        {
          "indexed": false,
          "internalType": "uint256",
          "name": "_rewardsClaimed",
          "type": "uint256"
        },
        {
          "indexed": false,
          "internalType": "uint256",
          "name": "_tokenId",
          "type": "uint256"
        },
        {
          "indexed": false,
          "internalType": "uint256",
          "name": "_time",
          "type": "uint256"
        }
      ],
      "name": "RewardsClaimed",
      "type": "event"
    },
    {
      "anonymous": false,
      "inputs": [
        {
          "indexed": false,
          "internalType": "address",
          "name": "_staker",
          "type": "address"
        },
        {
          "indexed": false,
          "internalType": "uint256",
          "name": "_rewardsCompounded",
          "type": "uint256"
        },
        {
          "indexed": false,
          "internalType": "uint256",
          "name": "_tokenId",
          "type": "uint256"
        },
        {
          "indexed": false,
          "internalType": "uint256",
          "name": "_totalStaked",
          "type": "uint256"
        },
        {
          "indexed": false,
          "internalType": "uint256",
          "name": "_time",
          "type": "uint256"
        }
      ],
      "name": "RewardsCompounded",
      "type": "event"
    },
    {
      "anonymous": false,
      "inputs": [
        {
          "indexed": false,
          "internalType": "address",
          "name": "_staker",
          "type": "address"
        },
        {
          "indexed": false,
          "internalType": "uint256",
          "name": "_amount",
          "type": "uint256"
        },
        {
          "indexed": false,
          "internalType": "uint256",
          "name": "_tokenId",
          "type": "uint256"
        },
        {
          "indexed": false,
          "internalType": "uint256",
          "name": "_totalStaked",
          "type": "uint256"
        },
        {
          "indexed": false,
          "internalType": "uint256",
          "name": "_time",
          "type": "uint256"
        }
      ],
      "name": "StakeCompleted",
      "type": "event"
    },
    {
      "anonymous": false,
      "inputs": [
        {
          "indexed": false,
          "internalType": "uint256",
          "name": "_total",
          "type": "uint256"
        }
      ],
      "name": "TotalUnstaked",
      "type": "event"
    },
    {
      "anonymous": false,
      "inputs": [
        {
          "indexed": false,
          "internalType": "address",
          "name": "_previous",
          "type": "address"
        },
        {
          "indexed": false,
          "internalType": "address",
          "name": "_next",
          "type": "address"
        },
        {
          "indexed": false,
          "internalType": "uint256",
          "name": "_time",
          "type": "uint256"
        }
      ],
      "name": "TransferredOwnership",
      "type": "event"
    },
    {
      "anonymous": false,
      "inputs": [
        {
          "indexed": false,
          "internalType": "address",
          "name": "_staker",
          "type": "address"
        },
        {
          "indexed": false,
          "internalType": "uint256",
          "name": "_amount",
          "type": "uint256"
        },
        {
          "indexed": false,
          "internalType": "uint256",
          "name": "_tokenId",
          "type": "uint256"
        },
        {
          "indexed": false,
          "internalType": "uint256",
          "name": "_time",
          "type": "uint256"
        }
      ],
      "name": "WithdrawCompleted",
      "type": "event"
    },
    {
      "inputs": [
        {
          "internalType": "uint256",
          "name": "",
          "type": "uint256"
        }
      ],
      "name": "NFTDetails",
      "outputs": [
        {
          "internalType": "address",
          "name": "_addressOfMinter",
          "type": "address"
        },
        {
          "internalType": "uint256",
          "name": "_NFYDeposited",
          "type": "uint256"
        },
        {
          "internalType": "bool",
          "name": "_inCirculation",
          "type": "bool"
        },
        {
          "internalType": "uint256",
          "name": "_rewardDebt",
          "type": "uint256"
        }
      ],
      "stateMutability": "view",
      "type": "function"
    },
    {
      "inputs": [],
      "name": "NFYToken",
      "outputs": [
        {
          "internalType": "contract IERC20",
          "name": "",
          "type": "address"
        }
      ],
      "stateMutability": "view",
      "type": "function"
    },
    {
      "inputs": [],
      "name": "StakingNFT",
      "outputs": [
        {
          "internalType": "contract INFYStakingNFT",
          "name": "",
          "type": "address"
        }
      ],
      "stateMutability": "view",
      "type": "function"
    },
    {
      "inputs": [],
      "name": "accNfyPerShare",
      "outputs": [
        {
          "internalType": "uint256",
          "name": "",
          "type": "uint256"
        }
      ],
      "stateMutability": "view",
      "type": "function"
    },
    {
      "inputs": [
        {
          "internalType": "address",
          "name": "_platformAddress",
          "type": "address"
        }
      ],
      "name": "addPlatformAddress",
      "outputs": [],
      "stateMutability": "nonpayable",
      "type": "function"
    },
    {
      "inputs": [],
      "name": "dailyReward",
      "outputs": [
        {
          "internalType": "uint256",
          "name": "",
          "type": "uint256"
        }
      ],
      "stateMutability": "view",
      "type": "function"
    },
    {
      "inputs": [],
      "name": "lastRewardBlock",
      "outputs": [
        {
          "internalType": "uint256",
          "name": "",
          "type": "uint256"
        }
      ],
      "stateMutability": "view",
      "type": "function"
    },
    {
      "inputs": [],
      "name": "owner",
      "outputs": [
        {
          "internalType": "address payable",
          "name": "",
          "type": "address"
        }
      ],
      "stateMutability": "view",
      "type": "function"
    },
    {
      "inputs": [],
      "name": "rewardPool",
      "outputs": [
        {
          "internalType": "address",
          "name": "",
          "type": "address"
        }
      ],
      "stateMutability": "view",
      "type": "function"
    },
    {
      "inputs": [],
      "name": "staking",
      "outputs": [
        {
          "internalType": "address",
          "name": "",
          "type": "address"
        }
      ],
      "stateMutability": "view",
      "type": "function"
    },
    {
      "inputs": [],
      "name": "totalStaked",
      "outputs": [
        {
          "internalType": "uint256",
          "name": "",
          "type": "uint256"
        }
      ],
      "stateMutability": "view",
      "type": "function"
    },
    {
      "inputs": [
        {
          "internalType": "address payable",
          "name": "_owner",
          "type": "address"
        }
      ],
      "name": "transferOwnership",
      "outputs": [],
      "stateMutability": "nonpayable",
      "type": "function"
    },
    {
      "inputs": [],
      "name": "getRewardPerBlock",
      "outputs": [
        {
          "internalType": "uint256",
          "name": "",
          "type": "uint256"
        }
      ],
      "stateMutability": "view",
      "type": "function"
    },
    {
      "inputs": [
        {
          "internalType": "uint256",
          "name": "_dailyReward",
          "type": "uint256"
        }
      ],
      "name": "setDailyReward",
      "outputs": [],
      "stateMutability": "nonpayable",
      "type": "function"
    },
    {
      "inputs": [
        {
          "internalType": "uint256",
          "name": "_tokenId",
          "type": "uint256"
        }
      ],
      "name": "getNFTBalance",
      "outputs": [
        {
          "internalType": "uint256",
          "name": "_amountStaked",
          "type": "uint256"
        }
      ],
      "stateMutability": "view",
      "type": "function"
    },
    {
      "inputs": [
        {
          "internalType": "uint256",
          "name": "_tokenId",
          "type": "uint256"
        }
      ],
      "name": "checkIfNFTInCirculation",
      "outputs": [
        {
          "internalType": "bool",
          "name": "_inCirculation",
          "type": "bool"
        }
      ],
      "stateMutability": "view",
      "type": "function"
    },
    {
      "inputs": [
        {
          "internalType": "uint256",
          "name": "_NFT",
          "type": "uint256"
        }
      ],
      "name": "pendingRewards",
      "outputs": [
        {
          "internalType": "uint256",
          "name": "",
          "type": "uint256"
        }
      ],
      "stateMutability": "view",
      "type": "function"
    },
    {
      "inputs": [
        {
          "internalType": "address",
          "name": "_address",
          "type": "address"
        }
      ],
      "name": "getTotalRewards",
      "outputs": [
        {
          "internalType": "uint256",
          "name": "",
          "type": "uint256"
        }
      ],
      "stateMutability": "view",
      "type": "function"
    },
    {
      "inputs": [
        {
          "internalType": "address",
          "name": "_address",
          "type": "address"
        }
      ],
      "name": "getTotalBalance",
      "outputs": [
        {
          "internalType": "uint256",
          "name": "",
          "type": "uint256"
        }
      ],
      "stateMutability": "view",
      "type": "function"
    },
    {
      "inputs": [],
      "name": "updatePool",
      "outputs": [],
      "stateMutability": "nonpayable",
      "type": "function"
    },
    {
      "inputs": [
        {
          "internalType": "uint256",
          "name": "_amount",
          "type": "uint256"
        }
      ],
      "name": "stakeNFY",
      "outputs": [],
      "stateMutability": "nonpayable",
      "type": "function"
    },
    {
      "inputs": [
        {
          "internalType": "address",
          "name": "_stakeholder",
          "type": "address"
        }
      ],
      "name": "addStakeholderExternal",
      "outputs": [],
      "stateMutability": "nonpayable",
      "type": "function"
    },
    {
      "inputs": [
        {
          "internalType": "uint256",
          "name": "_tokenId",
          "type": "uint256"
        }
      ],
      "name": "claimRewards",
      "outputs": [],
      "stateMutability": "nonpayable",
      "type": "function"
    },
    {
      "inputs": [
        {
          "internalType": "uint256",
          "name": "_tokenId",
          "type": "uint256"
        }
      ],
      "name": "compoundRewards",
      "outputs": [],
      "stateMutability": "nonpayable",
      "type": "function"
    },
    {
      "inputs": [],
      "name": "claimAllRewards",
      "outputs": [],
      "stateMutability": "nonpayable",
      "type": "function"
    },
    {
      "inputs": [],
      "name": "compoundAllRewards",
      "outputs": [],
      "stateMutability": "nonpayable",
      "type": "function"
    },
    {
      "inputs": [
        {
          "internalType": "uint256",
          "name": "_tokenId",
          "type": "uint256"
        }
      ],
      "name": "unstakeNFY",
      "outputs": [],
      "stateMutability": "nonpayable",
      "type": "function"
    },
    {
      "inputs": [],
      "name": "unstakeAll",
      "outputs": [],
      "stateMutability": "nonpayable",
      "type": "function"
    },
    {
      "inputs": [
        {
          "internalType": "uint256",
          "name": "_tokenId",
          "type": "uint256"
        },
        {
          "internalType": "uint256",
          "name": "_amount",
          "type": "uint256"
        }
      ],
      "name": "incrementNFTValue",
      "outputs": [],
      "stateMutability": "nonpayable",
      "type": "function"
    },
    {
      "inputs": [
        {
          "internalType": "uint256",
          "name": "_tokenId",
          "type": "uint256"
        },
        {
          "internalType": "uint256",
          "name": "_amount",
          "type": "uint256"
        }
      ],
      "name": "decrementNFTValue",
      "outputs": [],
      "stateMutability": "nonpayable",
      "type": "function"
    }
  ],
  "bytecode": "0x60806040523480156200001157600080fd5b50604051620055bb380380620055bb833981810160405260a08110156200003757600080fd5b81019080805190602001909291908051906020019092919080519060200190929190805190602001909291908051906020019092919050505062000080620001f160201b60201c565b6000806101000a81548173ffffffffffffffffffffffffffffffffffffffff021916908373ffffffffffffffffffffffffffffffffffffffff16021790555084600260006101000a81548173ffffffffffffffffffffffffffffffffffffffff021916908373ffffffffffffffffffffffffffffffffffffffff16021790555083600360006101000a81548173ffffffffffffffffffffffffffffffffffffffff021916908373ffffffffffffffffffffffffffffffffffffffff16021790555082600560006101000a81548173ffffffffffffffffffffffffffffffffffffffff021916908373ffffffffffffffffffffffffffffffffffffffff16021790555081600460006101000a81548173ffffffffffffffffffffffffffffffffffffffff021916908373ffffffffffffffffffffffffffffffffffffffff16021790555062aa2cd8600881905550620001de81620001f960201b60201c565b60006007819055505050505050620002d5565b600033905090565b6000809054906101000a900473ffffffffffffffffffffffffffffffffffffffff1673ffffffffffffffffffffffffffffffffffffffff1662000241620001f160201b60201c565b73ffffffffffffffffffffffffffffffffffffffff1614620002cb576040517f08c379a000000000000000000000000000000000000000000000000000000000815260040180806020018281038252600a8152602001807f4f776e6572206f6e6c790000000000000000000000000000000000000000000081525060200191505060405180910390fd5b8060068190555050565b6152d680620002e56000396000f3fe608060405234801561001057600080fd5b50600436106101d95760003560e01c80636ae21510116101045780639ca152f1116100a2578063e3161ddd11610071578063e3161ddd14610771578063ef50d9631461077b578063f2fde38b146107a9578063fd5e0fe2146107ed576101d9565b80639ca152f114610699578063a9f8d181146106dd578063c964ad45146106fb578063d3d3819314610719576101d9565b80637dcb2abf116100de5780637dcb2abf146105b7578063817b1cd2146105f95780638306fddb146106175780638da5cb5b1461064f576101d9565b80636ae21510146104dc5780636bdb744e146104e65780636c9128e21461056d576101d9565b80632d90a6761161017c57806349df8d331161014b57806349df8d33146103fc5780634cf088d91461041a578063656c579f1461046457806366666aa914610492576101d9565b80632d90a6761461034257806331455f2a1461037057806333a1cb27146103a857806335322f37146103f2576101d9565b80630aa43533116101b85780630aa43533146102945780630b83a727146102c25780631190615d146102cc5780632bcf161c146102ea576101d9565b80628e5c2a146101de57806302d24d94146102245780630962ef7914610266575b600080fd5b61020a600480360360208110156101f457600080fd5b8101908080359060200190929190505050610831565b604051808215151515815260200191505060405180910390f35b6102506004803603602081101561023a57600080fd5b810190808035906020019092919050505061085e565b6040518082815260200191505060405180910390f35b6102926004803603602081101561027c57600080fd5b810190808035906020019092919050505061087e565b005b6102c0600480360360208110156102aa57600080fd5b8101908080359060200190929190505050610d00565b005b6102ca610dd3565b005b6102d461111e565b6040518082815260200191505060405180910390f35b61032c6004803603602081101561030057600080fd5b81019080803573ffffffffffffffffffffffffffffffffffffffff169060200190929190505050611124565b6040518082815260200191505060405180910390f35b61036e6004803603602081101561035857600080fd5b8101908080359060200190929190505050611329565b005b6103a66004803603604081101561038657600080fd5b810190808035906020019092919080359060200190929190505050611c21565b005b6103b06121b0565b604051808273ffffffffffffffffffffffffffffffffffffffff1673ffffffffffffffffffffffffffffffffffffffff16815260200191505060405180910390f35b6103fa6121d6565b005b610404612515565b6040518082815260200191505060405180910390f35b610422612654565b604051808273ffffffffffffffffffffffffffffffffffffffff1673ffffffffffffffffffffffffffffffffffffffff16815260200191505060405180910390f35b6104906004803603602081101561047a57600080fd5b810190808035906020019092919050505061267a565b005b61049a612a56565b604051808273ffffffffffffffffffffffffffffffffffffffff1673ffffffffffffffffffffffffffffffffffffffff16815260200191505060405180910390f35b6104e4612a7c565b005b610512600480360360208110156104fc57600080fd5b8101908080359060200190929190505050612dc7565b604051808573ffffffffffffffffffffffffffffffffffffffff1673ffffffffffffffffffffffffffffffffffffffff1681526020018481526020018315151515815260200182815260200194505050505060405180910390f35b610575612e24565b604051808273ffffffffffffffffffffffffffffffffffffffff1673ffffffffffffffffffffffffffffffffffffffff16815260200191505060405180910390f35b6105e3600480360360208110156105cd57600080fd5b8101908080359060200190929190505050612e4a565b6040518082815260200191505060405180910390f35b610601612f4f565b6040518082815260200191505060405180910390f35b61064d6004803603604081101561062d57600080fd5b810190808035906020019092919080359060200190929190505050612f55565b005b610657613466565b604051808273ffffffffffffffffffffffffffffffffffffffff1673ffffffffffffffffffffffffffffffffffffffff16815260200191505060405180910390f35b6106db600480360360208110156106af57600080fd5b81019080803573ffffffffffffffffffffffffffffffffffffffff16906020019092919050505061348b565b005b6106e56139b1565b6040518082815260200191505060405180910390f35b6107036139b7565b6040518082815260200191505060405180910390f35b61075b6004803603602081101561072f57600080fd5b81019080803573ffffffffffffffffffffffffffffffffffffffff1690602001909291905050506139bd565b6040518082815260200191505060405180910390f35b610779613bc2565b005b6107a76004803603602081101561079157600080fd5b8101908080359060200190929190505050613df5565b005b6107eb600480360360208110156107bf57600080fd5b81019080803573ffffffffffffffffffffffffffffffffffffffff169060200190929190505050614775565b005b61082f6004803603602081101561080357600080fd5b81019080803573ffffffffffffffffffffffffffffffffffffffff169060200190929190505050614968565b005b6000600a600083815260200190815260200160002060020160009054906101000a900460ff169050919050565b6000600a6000838152602001908152602001600020600101549050919050565b610886614af6565b73ffffffffffffffffffffffffffffffffffffffff16600360009054906101000a900473ffffffffffffffffffffffffffffffffffffffff1673ffffffffffffffffffffffffffffffffffffffff16636352211e836040518263ffffffff1660e01b81526004018082815260200191505060206040518083038186803b15801561090f57600080fd5b505afa158015610923573d6000803e3d6000fd5b505050506040513d602081101561093957600080fd5b810190808051906020019092919050505073ffffffffffffffffffffffffffffffffffffffff16146109d3576040517f08c379a000000000000000000000000000000000000000000000000000000000815260040180806020018281038252601a8152602001807f55736572206973206e6f74206f776e6572206f6620746f6b656e00000000000081525060200191505060405180910390fd5b60011515600a600083815260200190815260200160002060020160009054906101000a900460ff16151514610a70576040517f08c379a00000000000000000000000000000000000000000000000000000000081526004018080602001828103825260208152602001807f5374616b652068617320616c7265616479206265656e2077697468647261776e81525060200191505060405180910390fd5b610a78613bc2565b6000600a600083815260200190815260200160002090506000610ada8260030154610acc670de0b6b3a7640000610abe6007548760010154614afe90919063ffffffff16565b614b8490919063ffffffff16565b614bce90919063ffffffff16565b905060008111610b52576040517f08c379a00000000000000000000000000000000000000000000000000000000081526004018080602001828103825260148152602001807f4e6f207265776172647320746f20636c61696d2100000000000000000000000081525060200191505060405180910390fd5b600260009054906101000a900473ffffffffffffffffffffffffffffffffffffffff1673ffffffffffffffffffffffffffffffffffffffff1663a9059cbb610b98614af6565b836040518363ffffffff1660e01b8152600401808373ffffffffffffffffffffffffffffffffffffffff1673ffffffffffffffffffffffffffffffffffffffff16815260200182815260200192505050602060405180830381600087803b158015610c0257600080fd5b505af1158015610c16573d6000803e3d6000fd5b505050506040513d6020811015610c2c57600080fd5b810190808051906020019092919050505050610c71670de0b6b3a7640000610c636007548560010154614afe90919063ffffffff16565b614b8490919063ffffffff16565b82600301819055507f56253d287efacdb2c4cd76dd03624a4821c1ce721d1152e8f5f5718f6087c9bf610ca2614af6565b828542604051808573ffffffffffffffffffffffffffffffffffffffff1673ffffffffffffffffffffffffffffffffffffffff16815260200184815260200183815260200182815260200194505050505060405180910390a1505050565b6000809054906101000a900473ffffffffffffffffffffffffffffffffffffffff1673ffffffffffffffffffffffffffffffffffffffff16610d40614af6565b73ffffffffffffffffffffffffffffffffffffffff1614610dc9576040517f08c379a000000000000000000000000000000000000000000000000000000000815260040180806020018281038252600a8152602001807f4f776e6572206f6e6c790000000000000000000000000000000000000000000081525060200191505060405180910390fd5b8060068190555050565b6000600360009054906101000a900473ffffffffffffffffffffffffffffffffffffffff1673ffffffffffffffffffffffffffffffffffffffff166370a08231610e1b614af6565b6040518263ffffffff1660e01b8152600401808273ffffffffffffffffffffffffffffffffffffffff1673ffffffffffffffffffffffffffffffffffffffff16815260200191505060206040518083038186803b158015610e7b57600080fd5b505afa158015610e8f573d6000803e3d6000fd5b505050506040513d6020811015610ea557600080fd5b810190808051906020019092919050505011610f29576040517f08c379a00000000000000000000000000000000000000000000000000000000081526004018080602001828103825260118152602001807f5573657220686173206e6f207374616b6500000000000000000000000000000081525060200191505060405180910390fd5b60008090505b600360009054906101000a900473ffffffffffffffffffffffffffffffffffffffff1673ffffffffffffffffffffffffffffffffffffffff166370a08231610f75614af6565b6040518263ffffffff1660e01b8152600401808273ffffffffffffffffffffffffffffffffffffffff1673ffffffffffffffffffffffffffffffffffffffff16815260200191505060206040518083038186803b158015610fd557600080fd5b505afa158015610fe9573d6000803e3d6000fd5b505050506040513d6020811015610fff57600080fd5b810190808051906020019092919050505081101561111b576000600360009054906101000a900473ffffffffffffffffffffffffffffffffffffffff1673ffffffffffffffffffffffffffffffffffffffff16632f745c5961105f614af6565b846040518363ffffffff1660e01b8152600401808373ffffffffffffffffffffffffffffffffffffffff1673ffffffffffffffffffffffffffffffffffffffff1681526020018281526020019250505060206040518083038186803b1580156110c757600080fd5b505afa1580156110db573d6000803e3d6000fd5b505050506040513d60208110156110f157600080fd5b8101908080519060200190929190505050905061110d8161087e565b508080600101915050610f2f565b50565b60075481565b60008060008090505b600360009054906101000a900473ffffffffffffffffffffffffffffffffffffffff1673ffffffffffffffffffffffffffffffffffffffff166370a08231856040518263ffffffff1660e01b8152600401808273ffffffffffffffffffffffffffffffffffffffff1673ffffffffffffffffffffffffffffffffffffffff16815260200191505060206040518083038186803b1580156111cc57600080fd5b505afa1580156111e0573d6000803e3d6000fd5b505050506040513d60208110156111f657600080fd5b810190808051906020019092919050505081101561131f5760006112fa600360009054906101000a900473ffffffffffffffffffffffffffffffffffffffff1673ffffffffffffffffffffffffffffffffffffffff16632f745c5987856040518363ffffffff1660e01b8152600401808373ffffffffffffffffffffffffffffffffffffffff1673ffffffffffffffffffffffffffffffffffffffff1681526020018281526020019250505060206040518083038186803b1580156112ba57600080fd5b505afa1580156112ce573d6000803e3d6000fd5b505050506040513d60208110156112e457600080fd5b8101908080519060200190929190505050612e4a565b905061130f8184614c1890919063ffffffff16565b925050808060010191505061112d565b5080915050919050565b611331614af6565b73ffffffffffffffffffffffffffffffffffffffff16600360009054906101000a900473ffffffffffffffffffffffffffffffffffffffff1673ffffffffffffffffffffffffffffffffffffffff16636352211e836040518263ffffffff1660e01b81526004018082815260200191505060206040518083038186803b1580156113ba57600080fd5b505afa1580156113ce573d6000803e3d6000fd5b505050506040513d60208110156113e457600080fd5b810190808051906020019092919050505073ffffffffffffffffffffffffffffffffffffffff161461147e576040517f08c379a000000000000000000000000000000000000000000000000000000000815260040180806020018281038252601a8152602001807f55736572206973206e6f74206f776e6572206f6620746f6b656e00000000000081525060200191505060405180910390fd5b60011515600a600083815260200190815260200160002060020160009054906101000a900460ff1615151461151b576040517f08c379a00000000000000000000000000000000000000000000000000000000081526004018080602001828103825260208152602001807f5374616b652068617320616c7265616479206265656e2077697468647261776e81525060200191505060405180910390fd5b611523613bc2565b6000600a6000838152602001908152602001600020905060006115858260030154611577670de0b6b3a76400006115696007548760010154614afe90919063ffffffff16565b614b8490919063ffffffff16565b614bce90919063ffffffff16565b905060006115928461085e565b905060006115bd605f6115af606485614b8490919063ffffffff16565b614afe90919063ffffffff16565b905060006115fa846115ec605f6115de606488614b8490919063ffffffff16565b614afe90919063ffffffff16565b614c1890919063ffffffff16565b905060006116256005611617606487614b8490919063ffffffff16565b614afe90919063ffffffff16565b90506000866001015490506000876001018190555060008760020160006101000a81548160ff02191690831515021790555061166c81600954614bce90919063ffffffff16565b600981905550600360009054906101000a900473ffffffffffffffffffffffffffffffffffffffff1673ffffffffffffffffffffffffffffffffffffffff166386de6c656116b8614af6565b8a6040518363ffffffff1660e01b8152600401808373ffffffffffffffffffffffffffffffffffffffff1673ffffffffffffffffffffffffffffffffffffffff16815260200182815260200192505050600060405180830381600087803b15801561172257600080fd5b505af1158015611736573d6000803e3d6000fd5b5050505060006060600560009054906101000a900473ffffffffffffffffffffffffffffffffffffffff1673ffffffffffffffffffffffffffffffffffffffff168a604051602401808281526020019150506040516020818303038152906040527f42966c68000000000000000000000000000000000000000000000000000000007bffffffffffffffffffffffffffffffffffffffffffffffffffffffff19166020820180517bffffffffffffffffffffffffffffffffffffffffffffffffffffffff83818316178352505050506040518082805190602001908083835b602083106118385780518252602082019150602081019050602083039250611815565b6001836020036101000a0380198251168184511680821785525050505050509050019150506000604051808303816000865af19150503d806000811461189a576040519150601f19603f3d011682016040523d82523d6000602084013e61189f565b606091505b5091509150600115158215151461191e576040517f08c379a00000000000000000000000000000000000000000000000000000000081526004018080602001828103825260108152602001807f6d696e742063616c6c206661696c65640000000000000000000000000000000081525060200191505060405180910390fd5b600260009054906101000a900473ffffffffffffffffffffffffffffffffffffffff1673ffffffffffffffffffffffffffffffffffffffff1663a9059cbb611964614af6565b876040518363ffffffff1660e01b8152600401808373ffffffffffffffffffffffffffffffffffffffff1673ffffffffffffffffffffffffffffffffffffffff16815260200182815260200192505050602060405180830381600087803b1580156119ce57600080fd5b505af11580156119e2573d6000803e3d6000fd5b505050506040513d60208110156119f857600080fd5b810190808051906020019092919050505050600260009054906101000a900473ffffffffffffffffffffffffffffffffffffffff1673ffffffffffffffffffffffffffffffffffffffff1663a9059cbb600460009054906101000a900473ffffffffffffffffffffffffffffffffffffffff16866040518363ffffffff1660e01b8152600401808373ffffffffffffffffffffffffffffffffffffffff1673ffffffffffffffffffffffffffffffffffffffff16815260200182815260200192505050602060405180830381600087803b158015611ad557600080fd5b505af1158015611ae9573d6000803e3d6000fd5b505050506040513d6020811015611aff57600080fd5b8101908080519060200190929190505050507ffada57d3c4b7d2ba1d17dd51770436f3164806d8cf30ca643ad4c050f07019ea611b3a614af6565b878c42604051808573ffffffffffffffffffffffffffffffffffffffff1673ffffffffffffffffffffffffffffffffffffffff16815260200184815260200183815260200182815260200194505050505060405180910390a17f56253d287efacdb2c4cd76dd03624a4821c1ce721d1152e8f5f5718f6087c9bf611bbc614af6565b898c42604051808573ffffffffffffffffffffffffffffffffffffffff1673ffffffffffffffffffffffffffffffffffffffff16815260200184815260200183815260200182815260200194505050505060405180910390a150505050505050505050565b6001151560016000611c31614af6565b73ffffffffffffffffffffffffffffffffffffffff1673ffffffffffffffffffffffffffffffffffffffff16815260200190815260200160002060009054906101000a900460ff16151514611cee576040517f08c379a000000000000000000000000000000000000000000000000000000000815260040180806020018281038252600d8152602001807f4f6e6c7920506c6174666f726d0000000000000000000000000000000000000081525060200191505060405180910390fd5b60011515611cfb83610831565b151514611d70576040517f08c379a00000000000000000000000000000000000000000000000000000000081526004018080602001828103825260188152602001807f546f6b656e206e6f7420696e2063697263756c6174696f6e000000000000000081525060200191505060405180910390fd5b80611d7a8361085e565b1015611dee576040517f08c379a00000000000000000000000000000000000000000000000000000000081526004018080602001828103825260178152602001807f4e6f7420656e6f756768207374616b6520696e204e465400000000000000000081525060200191505060405180910390fd5b611df6613bc2565b6000600a6000848152602001908152602001600020905060008160010154111561212d576000611e658260030154611e57670de0b6b3a7640000611e496007548760010154614afe90919063ffffffff16565b614b8490919063ffffffff16565b614bce90919063ffffffff16565b9050600081111561212b57600260009054906101000a900473ffffffffffffffffffffffffffffffffffffffff1673ffffffffffffffffffffffffffffffffffffffff1663a9059cbb600360009054906101000a900473ffffffffffffffffffffffffffffffffffffffff1673ffffffffffffffffffffffffffffffffffffffff16636352211e876040518263ffffffff1660e01b81526004018082815260200191505060206040518083038186803b158015611f2157600080fd5b505afa158015611f35573d6000803e3d6000fd5b505050506040513d6020811015611f4b57600080fd5b8101908080519060200190929190505050836040518363ffffffff1660e01b8152600401808373ffffffffffffffffffffffffffffffffffffffff1673ffffffffffffffffffffffffffffffffffffffff16815260200182815260200192505050602060405180830381600087803b158015611fc657600080fd5b505af1158015611fda573d6000803e3d6000fd5b505050506040513d6020811015611ff057600080fd5b8101908080519060200190929190505050507f56253d287efacdb2c4cd76dd03624a4821c1ce721d1152e8f5f5718f6087c9bf600360009054906101000a900473ffffffffffffffffffffffffffffffffffffffff1673ffffffffffffffffffffffffffffffffffffffff16636352211e866040518263ffffffff1660e01b81526004018082815260200191505060206040518083038186803b15801561209657600080fd5b505afa1580156120aa573d6000803e3d6000fd5b505050506040513d60208110156120c057600080fd5b8101908080519060200190929190505050828642604051808573ffffffffffffffffffffffffffffffffffffffff1673ffffffffffffffffffffffffffffffffffffffff16815260200184815260200183815260200182815260200194505050505060405180910390a15b505b61215682600a600086815260200190815260200160002060010154614bce90919063ffffffff16565b600a6000858152602001908152602001600020600101819055506121a3670de0b6b3a76400006121956007548460010154614afe90919063ffffffff16565b614b8490919063ffffffff16565b8160030181905550505050565b600360009054906101000a900473ffffffffffffffffffffffffffffffffffffffff1681565b6000600360009054906101000a900473ffffffffffffffffffffffffffffffffffffffff1673ffffffffffffffffffffffffffffffffffffffff166370a0823161221e614af6565b6040518263ffffffff1660e01b8152600401808273ffffffffffffffffffffffffffffffffffffffff1673ffffffffffffffffffffffffffffffffffffffff16815260200191505060206040518083038186803b15801561227e57600080fd5b505afa158015612292573d6000803e3d6000fd5b505050506040513d60208110156122a857600080fd5b81019080805190602001909291905050501161232c576040517f08c379a00000000000000000000000000000000000000000000000000000000081526004018080602001828103825260118152602001807f5573657220686173206e6f207374616b6500000000000000000000000000000081525060200191505060405180910390fd5b5b6000600360009054906101000a900473ffffffffffffffffffffffffffffffffffffffff1673ffffffffffffffffffffffffffffffffffffffff166370a08231612375614af6565b6040518263ffffffff1660e01b8152600401808273ffffffffffffffffffffffffffffffffffffffff1673ffffffffffffffffffffffffffffffffffffffff16815260200191505060206040518083038186803b1580156123d557600080fd5b505afa1580156123e9573d6000803e3d6000fd5b505050506040513d60208110156123ff57600080fd5b81019080805190602001909291905050501115612513576000600360009054906101000a900473ffffffffffffffffffffffffffffffffffffffff1673ffffffffffffffffffffffffffffffffffffffff16632f745c5961245e614af6565b60006040518363ffffffff1660e01b8152600401808373ffffffffffffffffffffffffffffffffffffffff1673ffffffffffffffffffffffffffffffffffffffff1681526020018281526020019250505060206040518083038186803b1580156124c757600080fd5b505afa1580156124db573d6000803e3d6000fd5b505050506040513d60208110156124f157600080fd5b8101908080519060200190929190505050905061250d81611329565b5061232d565b565b600061264f600654612641612710612633611964600260009054906101000a900473ffffffffffffffffffffffffffffffffffffffff1673ffffffffffffffffffffffffffffffffffffffff166370a08231600460009054906101000a900473ffffffffffffffffffffffffffffffffffffffff166040518263ffffffff1660e01b8152600401808273ffffffffffffffffffffffffffffffffffffffff1673ffffffffffffffffffffffffffffffffffffffff16815260200191505060206040518083038186803b1580156125ea57600080fd5b505afa1580156125fe573d6000803e3d6000fd5b505050506040513d602081101561261457600080fd5b8101908080519060200190929190505050614b8490919063ffffffff16565b614b8490919063ffffffff16565b614afe90919063ffffffff16565b905090565b600560009054906101000a900473ffffffffffffffffffffffffffffffffffffffff1681565b612682614af6565b73ffffffffffffffffffffffffffffffffffffffff16600360009054906101000a900473ffffffffffffffffffffffffffffffffffffffff1673ffffffffffffffffffffffffffffffffffffffff16636352211e836040518263ffffffff1660e01b81526004018082815260200191505060206040518083038186803b15801561270b57600080fd5b505afa15801561271f573d6000803e3d6000fd5b505050506040513d602081101561273557600080fd5b810190808051906020019092919050505073ffffffffffffffffffffffffffffffffffffffff16146127cf576040517f08c379a000000000000000000000000000000000000000000000000000000000815260040180806020018281038252601a8152602001807f55736572206973206e6f74206f776e6572206f6620746f6b656e00000000000081525060200191505060405180910390fd5b60011515600a600083815260200190815260200160002060020160009054906101000a900460ff1615151461286c576040517f08c379a00000000000000000000000000000000000000000000000000000000081526004018080602001828103825260208152602001807f5374616b652068617320616c7265616479206265656e2077697468647261776e81525060200191505060405180910390fd5b612874613bc2565b6000600a6000838152602001908152602001600020905060006128d682600301546128c8670de0b6b3a76400006128ba6007548760010154614afe90919063ffffffff16565b614b8490919063ffffffff16565b614bce90919063ffffffff16565b90506000811161294e576040517f08c379a00000000000000000000000000000000000000000000000000000000081526004018080602001828103825260178152602001807f4e6f207265776172647320746f20636f6d706f756e642100000000000000000081525060200191505060405180910390fd5b612965818360010154614c1890919063ffffffff16565b826001018190555061298281600954614c1890919063ffffffff16565b6009819055506129bb670de0b6b3a76400006129ad6007548560010154614afe90919063ffffffff16565b614b8490919063ffffffff16565b82600301819055507fd4084615ea35707eac3846c926c2f9580b353b93114500899503ecdc5a0a01df6129ec614af6565b8285856001015442604051808673ffffffffffffffffffffffffffffffffffffffff1673ffffffffffffffffffffffffffffffffffffffff1681526020018581526020018481526020018381526020018281526020019550505050505060405180910390a1505050565b600460009054906101000a900473ffffffffffffffffffffffffffffffffffffffff1681565b6000600360009054906101000a900473ffffffffffffffffffffffffffffffffffffffff1673ffffffffffffffffffffffffffffffffffffffff166370a08231612ac4614af6565b6040518263ffffffff1660e01b8152600401808273ffffffffffffffffffffffffffffffffffffffff1673ffffffffffffffffffffffffffffffffffffffff16815260200191505060206040518083038186803b158015612b2457600080fd5b505afa158015612b38573d6000803e3d6000fd5b505050506040513d6020811015612b4e57600080fd5b810190808051906020019092919050505011612bd2576040517f08c379a00000000000000000000000000000000000000000000000000000000081526004018080602001828103825260118152602001807f5573657220686173206e6f207374616b6500000000000000000000000000000081525060200191505060405180910390fd5b60008090505b600360009054906101000a900473ffffffffffffffffffffffffffffffffffffffff1673ffffffffffffffffffffffffffffffffffffffff166370a08231612c1e614af6565b6040518263ffffffff1660e01b8152600401808273ffffffffffffffffffffffffffffffffffffffff1673ffffffffffffffffffffffffffffffffffffffff16815260200191505060206040518083038186803b158015612c7e57600080fd5b505afa158015612c92573d6000803e3d6000fd5b505050506040513d6020811015612ca857600080fd5b8101908080519060200190929190505050811015612dc4576000600360009054906101000a900473ffffffffffffffffffffffffffffffffffffffff1673ffffffffffffffffffffffffffffffffffffffff16632f745c59612d08614af6565b846040518363ffffffff1660e01b8152600401808373ffffffffffffffffffffffffffffffffffffffff1673ffffffffffffffffffffffffffffffffffffffff1681526020018281526020019250505060206040518083038186803b158015612d7057600080fd5b505afa158015612d84573d6000803e3d6000fd5b505050506040513d6020811015612d9a57600080fd5b81019080805190602001909291905050509050612db68161267a565b508080600101915050612bd8565b50565b600a6020528060005260406000206000915090508060000160009054906101000a900473ffffffffffffffffffffffffffffffffffffffff16908060010154908060020160009054906101000a900460ff16908060030154905084565b600260009054906101000a900473ffffffffffffffffffffffffffffffffffffffff1681565b600080600a600084815260200190815260200160002090506000600754905060085443118015612e7d5750600060095414155b15612eff576000612e9960085443614bce90919063ffffffff16565b90506000612eb7612ea8612515565b83614afe90919063ffffffff16565b9050612efa612eeb600954612edd670de0b6b3a764000085614afe90919063ffffffff16565b614b8490919063ffffffff16565b84614c1890919063ffffffff16565b925050505b612f468260030154612f38670de0b6b3a7640000612f2a858760010154614afe90919063ffffffff16565b614b8490919063ffffffff16565b614bce90919063ffffffff16565b92505050919050565b60095481565b6001151560016000612f65614af6565b73ffffffffffffffffffffffffffffffffffffffff1673ffffffffffffffffffffffffffffffffffffffff16815260200190815260200160002060009054906101000a900460ff16151514613022576040517f08c379a000000000000000000000000000000000000000000000000000000000815260040180806020018281038252600d8152602001807f4f6e6c7920506c6174666f726d0000000000000000000000000000000000000081525060200191505060405180910390fd5b6001151561302f83610831565b1515146130a4576040517f08c379a00000000000000000000000000000000000000000000000000000000081526004018080602001828103825260188152602001807f546f6b656e206e6f7420696e2063697263756c6174696f6e000000000000000081525060200191505060405180910390fd5b6130ac613bc2565b6000600a600084815260200190815260200160002090506000816001015411156133e357600061311b826003015461310d670de0b6b3a76400006130ff6007548760010154614afe90919063ffffffff16565b614b8490919063ffffffff16565b614bce90919063ffffffff16565b905060008111156133e157600260009054906101000a900473ffffffffffffffffffffffffffffffffffffffff1673ffffffffffffffffffffffffffffffffffffffff1663a9059cbb600360009054906101000a900473ffffffffffffffffffffffffffffffffffffffff1673ffffffffffffffffffffffffffffffffffffffff16636352211e876040518263ffffffff1660e01b81526004018082815260200191505060206040518083038186803b1580156131d757600080fd5b505afa1580156131eb573d6000803e3d6000fd5b505050506040513d602081101561320157600080fd5b8101908080519060200190929190505050836040518363ffffffff1660e01b8152600401808373ffffffffffffffffffffffffffffffffffffffff1673ffffffffffffffffffffffffffffffffffffffff16815260200182815260200192505050602060405180830381600087803b15801561327c57600080fd5b505af1158015613290573d6000803e3d6000fd5b505050506040513d60208110156132a657600080fd5b8101908080519060200190929190505050507f56253d287efacdb2c4cd76dd03624a4821c1ce721d1152e8f5f5718f6087c9bf600360009054906101000a900473ffffffffffffffffffffffffffffffffffffffff1673ffffffffffffffffffffffffffffffffffffffff16636352211e866040518263ffffffff1660e01b81526004018082815260200191505060206040518083038186803b15801561334c57600080fd5b505afa158015613360573d6000803e3d6000fd5b505050506040513d602081101561337657600080fd5b8101908080519060200190929190505050828642604051808573ffffffffffffffffffffffffffffffffffffffff1673ffffffffffffffffffffffffffffffffffffffff16815260200184815260200183815260200182815260200194505050505060405180910390a15b505b61340c82600a600086815260200190815260200160002060010154614c1890919063ffffffff16565b600a600085815260200190815260200160002060010181905550613459670de0b6b3a764000061344b6007548460010154614afe90919063ffffffff16565b614b8490919063ffffffff16565b8160030181905550505050565b6000809054906101000a900473ffffffffffffffffffffffffffffffffffffffff1681565b600115156001600061349b614af6565b73ffffffffffffffffffffffffffffffffffffffff1673ffffffffffffffffffffffffffffffffffffffff16815260200190815260200160002060009054906101000a900460ff16151514613558576040517f08c379a000000000000000000000000000000000000000000000000000000000815260040180806020018281038252600d8152602001807f4f6e6c7920506c6174666f726d0000000000000000000000000000000000000081525060200191505060405180910390fd5b60006060600560009054906101000a900473ffffffffffffffffffffffffffffffffffffffff1673ffffffffffffffffffffffffffffffffffffffff1683604051602401808273ffffffffffffffffffffffffffffffffffffffff1673ffffffffffffffffffffffffffffffffffffffff1681526020019150506040516020818303038152906040527f6a627842000000000000000000000000000000000000000000000000000000007bffffffffffffffffffffffffffffffffffffffffffffffffffffffff19166020820180517bffffffffffffffffffffffffffffffffffffffffffffffffffffffff83818316178352505050506040518082805190602001908083835b60208310613682578051825260208201915060208101905060208303925061365f565b6001836020036101000a0380198251168184511680821785525050505050509050019150506000604051808303816000865af19150503d80600081146136e4576040519150601f19603f3d011682016040523d82523d6000602084013e6136e9565b606091505b50915091506001151582151514613768576040517f08c379a00000000000000000000000000000000000000000000000000000000081526004018080602001828103825260108152602001807f4d696e742063616c6c206661696c65640000000000000000000000000000000081525060200191505060405180910390fd5b82600a6000600360009054906101000a900473ffffffffffffffffffffffffffffffffffffffff1673ffffffffffffffffffffffffffffffffffffffff16636d4b7deb6137b3614af6565b6040518263ffffffff1660e01b8152600401808273ffffffffffffffffffffffffffffffffffffffff1673ffffffffffffffffffffffffffffffffffffffff16815260200191505060206040518083038186803b15801561381357600080fd5b505afa158015613827573d6000803e3d6000fd5b505050506040513d602081101561383d57600080fd5b8101908080519060200190929190505050815260200190815260200160002060000160006101000a81548173ffffffffffffffffffffffffffffffffffffffff021916908373ffffffffffffffffffffffffffffffffffffffff1602179055506001600a6000600360009054906101000a900473ffffffffffffffffffffffffffffffffffffffff1673ffffffffffffffffffffffffffffffffffffffff16636d4b7deb6138e9614af6565b6040518263ffffffff1660e01b8152600401808273ffffffffffffffffffffffffffffffffffffffff1673ffffffffffffffffffffffffffffffffffffffff16815260200191505060206040518083038186803b15801561394957600080fd5b505afa15801561395d573d6000803e3d6000fd5b505050506040513d602081101561397357600080fd5b8101908080519060200190929190505050815260200190815260200160002060020160006101000a81548160ff021916908315150217905550505050565b60085481565b60065481565b60008060008090505b600360009054906101000a900473ffffffffffffffffffffffffffffffffffffffff1673ffffffffffffffffffffffffffffffffffffffff166370a08231856040518263ffffffff1660e01b8152600401808273ffffffffffffffffffffffffffffffffffffffff1673ffffffffffffffffffffffffffffffffffffffff16815260200191505060206040518083038186803b158015613a6557600080fd5b505afa158015613a79573d6000803e3d6000fd5b505050506040513d6020811015613a8f57600080fd5b8101908080519060200190929190505050811015613bb8576000613b93600360009054906101000a900473ffffffffffffffffffffffffffffffffffffffff1673ffffffffffffffffffffffffffffffffffffffff16632f745c5987856040518363ffffffff1660e01b8152600401808373ffffffffffffffffffffffffffffffffffffffff1673ffffffffffffffffffffffffffffffffffffffff1681526020018281526020019250505060206040518083038186803b158015613b5357600080fd5b505afa158015613b67573d6000803e3d6000fd5b505050506040513d6020811015613b7d57600080fd5b810190808051906020019092919050505061085e565b9050613ba88184614c1890919063ffffffff16565b92505080806001019150506139c6565b5080915050919050565b6008544311613bd057613df3565b60006009541415613be75743600881905550613df3565b6000613bfe60085443614bce90919063ffffffff16565b90506000613c1c613c0d612515565b83614afe90919063ffffffff16565b9050600260009054906101000a900473ffffffffffffffffffffffffffffffffffffffff1673ffffffffffffffffffffffffffffffffffffffff166323b872dd600460009054906101000a900473ffffffffffffffffffffffffffffffffffffffff1630846040518463ffffffff1660e01b8152600401808473ffffffffffffffffffffffffffffffffffffffff1673ffffffffffffffffffffffffffffffffffffffff1681526020018373ffffffffffffffffffffffffffffffffffffffff1673ffffffffffffffffffffffffffffffffffffffff1681526020018281526020019350505050602060405180830381600087803b158015613d1d57600080fd5b505af1158015613d31573d6000803e3d6000fd5b505050506040513d6020811015613d4757600080fd5b810190808051906020019092919050505050613d9c613d8b600954613d7d670de0b6b3a764000085614afe90919063ffffffff16565b614b8490919063ffffffff16565b600754614c1890919063ffffffff16565b600781905550436008819055507f17b8644f386d1c7c7138ef98b3c8035622bbe94d7be9b26f71d2654a547c294382824260405180848152602001838152602001828152602001935050505060405180910390a150505b565b60008111613e6b576040517f08c379a00000000000000000000000000000000000000000000000000000000081526004018080602001828103825260138152602001807f43616e206e6f74207374616b652030204e46590000000000000000000000000081525060200191505060405180910390fd5b80600260009054906101000a900473ffffffffffffffffffffffffffffffffffffffff1673ffffffffffffffffffffffffffffffffffffffff166370a08231613eb2614af6565b6040518263ffffffff1660e01b8152600401808273ffffffffffffffffffffffffffffffffffffffff1673ffffffffffffffffffffffffffffffffffffffff16815260200191505060206040518083038186803b158015613f1257600080fd5b505afa158015613f26573d6000803e3d6000fd5b505050506040513d6020811015613f3c57600080fd5b81019080805190602001909291905050501015613fc1576040517f08c379a000000000000000000000000000000000000000000000000000000000815260040180806020018281038252601f8152602001807f446f206e6f74206861766520656e6f756768204e465920746f207374616b650081525060200191505060405180910390fd5b613fc9613bc2565b6000600360009054906101000a900473ffffffffffffffffffffffffffffffffffffffff1673ffffffffffffffffffffffffffffffffffffffff16636d4b7deb614011614af6565b6040518263ffffffff1660e01b8152600401808273ffffffffffffffffffffffffffffffffffffffff1673ffffffffffffffffffffffffffffffffffffffff16815260200191505060206040518083038186803b15801561407157600080fd5b505afa158015614085573d6000803e3d6000fd5b505050506040513d602081101561409b57600080fd5b810190808051906020019092919050505014156140c3576140c26140bd614af6565b614ca0565b5b6000600a6000600360009054906101000a900473ffffffffffffffffffffffffffffffffffffffff1673ffffffffffffffffffffffffffffffffffffffff16636d4b7deb61410f614af6565b6040518263ffffffff1660e01b8152600401808273ffffffffffffffffffffffffffffffffffffffff1673ffffffffffffffffffffffffffffffffffffffff16815260200191505060206040518083038186803b15801561416f57600080fd5b505afa158015614183573d6000803e3d6000fd5b505050506040513d602081101561419957600080fd5b81019080805190602001909291905050508152602001908152602001600020905060008160010154111561446e5760006142128260030154614204670de0b6b3a76400006141f66007548760010154614afe90919063ffffffff16565b614b8490919063ffffffff16565b614bce90919063ffffffff16565b9050600081111561446c57600260009054906101000a900473ffffffffffffffffffffffffffffffffffffffff1673ffffffffffffffffffffffffffffffffffffffff1663a9059cbb614263614af6565b836040518363ffffffff1660e01b8152600401808373ffffffffffffffffffffffffffffffffffffffff1673ffffffffffffffffffffffffffffffffffffffff16815260200182815260200192505050602060405180830381600087803b1580156142cd57600080fd5b505af11580156142e1573d6000803e3d6000fd5b505050506040513d60208110156142f757600080fd5b8101908080519060200190929190505050507f56253d287efacdb2c4cd76dd03624a4821c1ce721d1152e8f5f5718f6087c9bf614332614af6565b82600360009054906101000a900473ffffffffffffffffffffffffffffffffffffffff1673ffffffffffffffffffffffffffffffffffffffff16636d4b7deb614379614af6565b6040518263ffffffff1660e01b8152600401808273ffffffffffffffffffffffffffffffffffffffff1673ffffffffffffffffffffffffffffffffffffffff16815260200191505060206040518083038186803b1580156143d957600080fd5b505afa1580156143ed573d6000803e3d6000fd5b505050506040513d602081101561440357600080fd5b810190808051906020019092919050505042604051808573ffffffffffffffffffffffffffffffffffffffff1673ffffffffffffffffffffffffffffffffffffffff16815260200184815260200183815260200182815260200194505050505060405180910390a15b505b600260009054906101000a900473ffffffffffffffffffffffffffffffffffffffff1673ffffffffffffffffffffffffffffffffffffffff166323b872dd6144b4614af6565b30856040518463ffffffff1660e01b8152600401808473ffffffffffffffffffffffffffffffffffffffff1673ffffffffffffffffffffffffffffffffffffffff1681526020018373ffffffffffffffffffffffffffffffffffffffff1673ffffffffffffffffffffffffffffffffffffffff1681526020018281526020019350505050602060405180830381600087803b15801561455257600080fd5b505af1158015614566573d6000803e3d6000fd5b505050506040513d602081101561457c57600080fd5b8101908080519060200190929190505050506145a5828260010154614c1890919063ffffffff16565b81600101819055506145c282600954614c1890919063ffffffff16565b6009819055506145fb670de0b6b3a76400006145ed6007548460010154614afe90919063ffffffff16565b614b8490919063ffffffff16565b81600301819055507fa00b8f7d82e0096e45945f9300a4d40ff0d5d951e0611805a257d8c30a93e6fc61462c614af6565b83600360009054906101000a900473ffffffffffffffffffffffffffffffffffffffff1673ffffffffffffffffffffffffffffffffffffffff16636d4b7deb614673614af6565b6040518263ffffffff1660e01b8152600401808273ffffffffffffffffffffffffffffffffffffffff1673ffffffffffffffffffffffffffffffffffffffff16815260200191505060206040518083038186803b1580156146d357600080fd5b505afa1580156146e7573d6000803e3d6000fd5b505050506040513d60208110156146fd57600080fd5b8101908080519060200190929190505050846001015442604051808673ffffffffffffffffffffffffffffffffffffffff1673ffffffffffffffffffffffffffffffffffffffff1681526020018581526020018481526020018381526020018281526020019550505050505060405180910390a15050565b6000809054906101000a900473ffffffffffffffffffffffffffffffffffffffff1673ffffffffffffffffffffffffffffffffffffffff166147b5614af6565b73ffffffffffffffffffffffffffffffffffffffff161461483e576040517f08c379a000000000000000000000000000000000000000000000000000000000815260040180806020018281038252600a8152602001807f4f776e6572206f6e6c790000000000000000000000000000000000000000000081525060200191505060405180910390fd5b60008060009054906101000a900473ffffffffffffffffffffffffffffffffffffffff169050816000806101000a81548173ffffffffffffffffffffffffffffffffffffffff021916908373ffffffffffffffffffffffffffffffffffffffff1602179055507f30e048e48a73aeea72c325c17c7dec1889a58fef3848c2d5fbb81502c4702f31816000809054906101000a900473ffffffffffffffffffffffffffffffffffffffff1642604051808473ffffffffffffffffffffffffffffffffffffffff1673ffffffffffffffffffffffffffffffffffffffff1681526020018373ffffffffffffffffffffffffffffffffffffffff1673ffffffffffffffffffffffffffffffffffffffff168152602001828152602001935050505060405180910390a15050565b6000809054906101000a900473ffffffffffffffffffffffffffffffffffffffff1673ffffffffffffffffffffffffffffffffffffffff166149a8614af6565b73ffffffffffffffffffffffffffffffffffffffff1614614a31576040517f08c379a000000000000000000000000000000000000000000000000000000000815260040180806020018281038252600a8152602001807f4f776e6572206f6e6c790000000000000000000000000000000000000000000081525060200191505060405180910390fd5b60018060008373ffffffffffffffffffffffffffffffffffffffff1673ffffffffffffffffffffffffffffffffffffffff16815260200190815260200160002060006101000a81548160ff0219169083151502179055507fe6599c7f1b3687d38d7eb4fc4e63d64fd89455e0abaf9cc757d5476a5a54a0068142604051808373ffffffffffffffffffffffffffffffffffffffff1673ffffffffffffffffffffffffffffffffffffffff1681526020018281526020019250505060405180910390a150565b600033905090565b600080831415614b115760009050614b7e565b6000828402905082848281614b2257fe5b0414614b79576040517f08c379a00000000000000000000000000000000000000000000000000000000081526004018080602001828103825260218152602001806152806021913960400191505060405180910390fd5b809150505b92915050565b6000614bc683836040518060400160405280601a81526020017f536166654d6174683a206469766973696f6e206279207a65726f0000000000008152506150f9565b905092915050565b6000614c1083836040518060400160405280601e81526020017f536166654d6174683a207375627472616374696f6e206f766572666c6f7700008152506151bf565b905092915050565b600080828401905083811015614c96576040517f08c379a000000000000000000000000000000000000000000000000000000000815260040180806020018281038252601b8152602001807f536166654d6174683a206164646974696f6e206f766572666c6f77000000000081525060200191505060405180910390fd5b8091505092915050565b60006060600560009054906101000a900473ffffffffffffffffffffffffffffffffffffffff1673ffffffffffffffffffffffffffffffffffffffff1683604051602401808273ffffffffffffffffffffffffffffffffffffffff1673ffffffffffffffffffffffffffffffffffffffff1681526020019150506040516020818303038152906040527f6a627842000000000000000000000000000000000000000000000000000000007bffffffffffffffffffffffffffffffffffffffffffffffffffffffff19166020820180517bffffffffffffffffffffffffffffffffffffffffffffffffffffffff83818316178352505050506040518082805190602001908083835b60208310614dca5780518252602082019150602081019050602083039250614da7565b6001836020036101000a0380198251168184511680821785525050505050509050019150506000604051808303816000865af19150503d8060008114614e2c576040519150601f19603f3d011682016040523d82523d6000602084013e614e31565b606091505b50915091506001151582151514614eb0576040517f08c379a00000000000000000000000000000000000000000000000000000000081526004018080602001828103825260108152602001807f4d696e742063616c6c206661696c65640000000000000000000000000000000081525060200191505060405180910390fd5b82600a6000600360009054906101000a900473ffffffffffffffffffffffffffffffffffffffff1673ffffffffffffffffffffffffffffffffffffffff16636d4b7deb614efb614af6565b6040518263ffffffff1660e01b8152600401808273ffffffffffffffffffffffffffffffffffffffff1673ffffffffffffffffffffffffffffffffffffffff16815260200191505060206040518083038186803b158015614f5b57600080fd5b505afa158015614f6f573d6000803e3d6000fd5b505050506040513d6020811015614f8557600080fd5b8101908080519060200190929190505050815260200190815260200160002060000160006101000a81548173ffffffffffffffffffffffffffffffffffffffff021916908373ffffffffffffffffffffffffffffffffffffffff1602179055506001600a6000600360009054906101000a900473ffffffffffffffffffffffffffffffffffffffff1673ffffffffffffffffffffffffffffffffffffffff16636d4b7deb615031614af6565b6040518263ffffffff1660e01b8152600401808273ffffffffffffffffffffffffffffffffffffffff1673ffffffffffffffffffffffffffffffffffffffff16815260200191505060206040518083038186803b15801561509157600080fd5b505afa1580156150a5573d6000803e3d6000fd5b505050506040513d60208110156150bb57600080fd5b8101908080519060200190929190505050815260200190815260200160002060020160006101000a81548160ff021916908315150217905550505050565b600080831182906151a5576040517f08c379a00000000000000000000000000000000000000000000000000000000081526004018080602001828103825283818151815260200191508051906020019080838360005b8381101561516a57808201518184015260208101905061514f565b50505050905090810190601f1680156151975780820380516001836020036101000a031916815260200191505b509250505060405180910390fd5b5060008385816151b157fe5b049050809150509392505050565b600083831115829061526c576040517f08c379a00000000000000000000000000000000000000000000000000000000081526004018080602001828103825283818151815260200191508051906020019080838360005b83811015615231578082015181840152602081019050615216565b50505050905090810190601f16801561525e5780820380516001836020036101000a031916815260200191505b509250505060405180910390fd5b506000838503905080915050939250505056fe536166654d6174683a206d756c7469706c69636174696f6e206f766572666c6f77a2646970667358221220c245de9fe3ffbf05dc492b7ce84cbaf8ab9db04dda433a2e0729a8f33d4422ed64736f6c634300060a0033",
  "immutableReferences": {},
  "source": "// SPDX-License-Identifier: MIT\n\npragma solidity ^0.6.10;\nimport \"@openzeppelin/contracts/token/ERC20/IERC20.sol\";\nimport \"@openzeppelin/contracts/token/ERC20/SafeERC20.sol\";\nimport \"@openzeppelin/contracts/math/SafeMath.sol\";\nimport \"./Ownable.sol\";\n\ninterface INFYStakingNFT {\n    function nftTokenId(address _stakeholder)\n        external\n        view\n        returns (uint256 id);\n\n    function revertNftTokenId(address _stakeholder, uint256 _tokenId) external;\n\n    function ownerOf(uint256 tokenId) external view returns (address owner);\n\n    function balanceOf(address owner) external view returns (uint256 balance);\n\n    function tokenOfOwnerByIndex(address owner, uint256 index)\n        external\n        view\n        returns (uint256);\n}\n\ncontract NFYStaking is Ownable {\n    using SafeMath for uint256;\n    using SafeERC20 for IERC20;\n    struct NFT {\n        address _addressOfMinter;\n        uint256 _NFYDeposited;\n        bool _inCirculation;\n        uint256 _rewardDebt;\n    }\n\n    event StakeCompleted(\n        address _staker,\n        uint256 _amount,\n        uint256 _tokenId,\n        uint256 _totalStaked,\n        uint256 _time\n    );\n    event WithdrawCompleted(\n        address _staker,\n        uint256 _amount,\n        uint256 _tokenId,\n        uint256 _time\n    );\n    event PoolUpdated(\n        uint256 _blocksRewarded,\n        uint256 _amountRewarded,\n        uint256 _time\n    );\n    event RewardsClaimed(\n        address _staker,\n        uint256 _rewardsClaimed,\n        uint256 _tokenId,\n        uint256 _time\n    );\n    event RewardsCompounded(\n        address _staker,\n        uint256 _rewardsCompounded,\n        uint256 _tokenId,\n        uint256 _totalStaked,\n        uint256 _time\n    );\n    event MintedToken(address _staker, uint256 _tokenId, uint256 _time);\n\n    event TotalUnstaked(uint256 _total);\n\n    IERC20 public NFYToken;\n    INFYStakingNFT public StakingNFT;\n    address public rewardPool;\n    address public staking;\n    uint256 public dailyReward;\n    uint256 public accNfyPerShare;\n    uint256 public lastRewardBlock;\n    uint256 public totalStaked;\n\n    mapping(uint256 => NFT) public NFTDetails;\n\n    // Constructor will set the address of NFY token and address of NFY staking NFT\n    constructor(\n        address _NFYToken,\n        address _StakingNFT,\n        address _staking,\n        address _rewardPool,\n        uint256 _dailyReward\n    ) public Ownable() {\n        NFYToken = IERC20(_NFYToken);\n        StakingNFT = INFYStakingNFT(_StakingNFT);\n        staking = _staking;\n        rewardPool = _rewardPool;\n\n        // 10:30 EST October 29th\n        lastRewardBlock = 11152600;\n        setDailyReward(_dailyReward);\n        accNfyPerShare = 0;\n    }\n\n    // 6500 blocks in average day --- decimals * NFY balance of rewardPool / blocks / 10000 * dailyReward (in hundredths of %) = rewardPerBlock\n    function getRewardPerBlock() public view returns (uint256) {\n        return\n            NFYToken.balanceOf(rewardPool).div(6500).div(10000).mul(\n                dailyReward\n            );\n    }\n\n    // % of reward pool to be distributed each day --- in hundredths of % 30 == 0.3%\n    function setDailyReward(uint256 _dailyReward) public onlyOwner {\n        dailyReward = _dailyReward;\n    }\n\n    // Function that will get balance of a NFY balance of a certain stake\n    function getNFTBalance(uint256 _tokenId)\n        public\n        view\n        returns (uint256 _amountStaked)\n    {\n        return NFTDetails[_tokenId]._NFYDeposited;\n    }\n\n    // Function that will check if a NFY stake NFT is in circulation\n    function checkIfNFTInCirculation(uint256 _tokenId)\n        public\n        view\n        returns (bool _inCirculation)\n    {\n        return NFTDetails[_tokenId]._inCirculation;\n    }\n\n    // Function that returns NFT's pending rewards\n    function pendingRewards(uint256 _NFT) public view returns (uint256) {\n        NFT storage nft = NFTDetails[_NFT];\n\n        uint256 _accNfyPerShare = accNfyPerShare;\n\n        if (block.number > lastRewardBlock && totalStaked != 0) {\n            uint256 blocksToReward = block.number.sub(lastRewardBlock);\n            uint256 nfyReward = blocksToReward.mul(getRewardPerBlock());\n            _accNfyPerShare = _accNfyPerShare.add(\n                nfyReward.mul(1e18).div(totalStaked)\n            );\n        }\n\n        return\n            nft._NFYDeposited.mul(_accNfyPerShare).div(1e18).sub(\n                nft._rewardDebt\n            );\n    }\n\n    // Get total rewards for all of user's NFY nfts\n    function getTotalRewards(address _address) public view returns (uint256) {\n        uint256 totalRewards;\n\n        for (uint256 i = 0; i < StakingNFT.balanceOf(_address); i++) {\n            uint256 _rewardPerNFT =\n                pendingRewards(StakingNFT.tokenOfOwnerByIndex(_address, i));\n            totalRewards = totalRewards.add(_rewardPerNFT);\n        }\n\n        return totalRewards;\n    }\n\n    // Get total stake for all user's NFY nfts\n    function getTotalBalance(address _address) public view returns (uint256) {\n        uint256 totalBalance;\n\n        for (uint256 i = 0; i < StakingNFT.balanceOf(_address); i++) {\n            uint256 _balancePerNFT =\n                getNFTBalance(StakingNFT.tokenOfOwnerByIndex(_address, i));\n            totalBalance = totalBalance.add(_balancePerNFT);\n        }\n\n        return totalBalance;\n    }\n\n    // Function that updates NFY pool\n    function updatePool() public {\n        if (block.number <= lastRewardBlock) {\n            return;\n        }\n\n        if (totalStaked == 0) {\n            lastRewardBlock = block.number;\n            return;\n        }\n\n        uint256 blocksToReward = block.number.sub(lastRewardBlock);\n\n        uint256 nfyReward = blocksToReward.mul(getRewardPerBlock());\n\n        //Approve nfyReward here\n        NFYToken.transferFrom(rewardPool, address(this), nfyReward);\n\n        accNfyPerShare = accNfyPerShare.add(\n            nfyReward.mul(1e18).div(totalStaked)\n        );\n        lastRewardBlock = block.number;\n\n        emit PoolUpdated(blocksToReward, nfyReward, now);\n    }\n\n    // Function that lets user stake NFY\n    function stakeNFY(uint256 _amount) public {\n        require(_amount > 0, \"Can not stake 0 NFY\");\n        require(\n            NFYToken.balanceOf(_msgSender()) >= _amount,\n            \"Do not have enough NFY to stake\"\n        );\n\n        updatePool();\n\n        if (StakingNFT.nftTokenId(_msgSender()) == 0) {\n            addStakeholder(_msgSender());\n        }\n\n        NFT storage nft = NFTDetails[StakingNFT.nftTokenId(_msgSender())];\n\n        if (nft._NFYDeposited > 0) {\n            uint256 _pendingRewards =\n                nft._NFYDeposited.mul(accNfyPerShare).div(1e18).sub(\n                    nft._rewardDebt\n                );\n\n            if (_pendingRewards > 0) {\n                NFYToken.transfer(_msgSender(), _pendingRewards);\n                emit RewardsClaimed(\n                    _msgSender(),\n                    _pendingRewards,\n                    StakingNFT.nftTokenId(_msgSender()),\n                    now\n                );\n            }\n        }\n\n        NFYToken.transferFrom(_msgSender(), address(this), _amount);\n        nft._NFYDeposited = nft._NFYDeposited.add(_amount);\n        totalStaked = totalStaked.add(_amount);\n\n        nft._rewardDebt = nft._NFYDeposited.mul(accNfyPerShare).div(1e18);\n\n        emit StakeCompleted(\n            _msgSender(),\n            _amount,\n            StakingNFT.nftTokenId(_msgSender()),\n            nft._NFYDeposited,\n            now\n        );\n    }\n\n    function addStakeholder(address _stakeholder) private {\n        (bool success, bytes memory data) =\n            staking.call(\n                abi.encodeWithSignature(\"mint(address)\", _stakeholder)\n            );\n        require(success == true, \"Mint call failed\");\n        NFTDetails[StakingNFT.nftTokenId(_msgSender())]\n            ._addressOfMinter = _stakeholder;\n        NFTDetails[StakingNFT.nftTokenId(_msgSender())]._inCirculation = true;\n    }\n\n    function addStakeholderExternal(address _stakeholder)\n        external\n        onlyPlatform()\n    {\n        (bool success, bytes memory data) =\n            staking.call(\n                abi.encodeWithSignature(\"mint(address)\", _stakeholder)\n            );\n        require(success == true, \"Mint call failed\");\n        NFTDetails[StakingNFT.nftTokenId(_msgSender())]\n            ._addressOfMinter = _stakeholder;\n        NFTDetails[StakingNFT.nftTokenId(_msgSender())]._inCirculation = true;\n    }\n\n    // Function that will allow user to claim rewards\n    function claimRewards(uint256 _tokenId) public {\n        require(\n            StakingNFT.ownerOf(_tokenId) == _msgSender(),\n            \"User is not owner of token\"\n        );\n        require(\n            NFTDetails[_tokenId]._inCirculation == true,\n            \"Stake has already been withdrawn\"\n        );\n\n        updatePool();\n\n        NFT storage nft = NFTDetails[_tokenId];\n\n        uint256 _pendingRewards =\n            nft._NFYDeposited.mul(accNfyPerShare).div(1e18).sub(\n                nft._rewardDebt\n            );\n        require(_pendingRewards > 0, \"No rewards to claim!\");\n\n        NFYToken.transfer(_msgSender(), _pendingRewards);\n\n        nft._rewardDebt = nft._NFYDeposited.mul(accNfyPerShare).div(1e18);\n\n        emit RewardsClaimed(_msgSender(), _pendingRewards, _tokenId, now);\n    }\n\n    // Function that will add NFY rewards to NFY staking NFT\n    function compoundRewards(uint256 _tokenId) public {\n        require(\n            StakingNFT.ownerOf(_tokenId) == _msgSender(),\n            \"User is not owner of token\"\n        );\n        require(\n            NFTDetails[_tokenId]._inCirculation == true,\n            \"Stake has already been withdrawn\"\n        );\n\n        updatePool();\n\n        NFT storage nft = NFTDetails[_tokenId];\n\n        uint256 _pendingRewards =\n            nft._NFYDeposited.mul(accNfyPerShare).div(1e18).sub(\n                nft._rewardDebt\n            );\n        require(_pendingRewards > 0, \"No rewards to compound!\");\n\n        nft._NFYDeposited = nft._NFYDeposited.add(_pendingRewards);\n        totalStaked = totalStaked.add(_pendingRewards);\n\n        nft._rewardDebt = nft._NFYDeposited.mul(accNfyPerShare).div(1e18);\n\n        emit RewardsCompounded(\n            _msgSender(),\n            _pendingRewards,\n            _tokenId,\n            nft._NFYDeposited,\n            now\n        );\n    }\n\n    // Function that lets user claim all rewards from all their nfts\n    function claimAllRewards() public {\n        require(StakingNFT.balanceOf(_msgSender()) > 0, \"User has no stake\");\n        for (uint256 i = 0; i < StakingNFT.balanceOf(_msgSender()); i++) {\n            uint256 _currentNFT =\n                StakingNFT.tokenOfOwnerByIndex(_msgSender(), i);\n            claimRewards(_currentNFT);\n        }\n    }\n\n    // Function that lets user compound all rewards from all their nfts\n    function compoundAllRewards() public {\n        require(StakingNFT.balanceOf(_msgSender()) > 0, \"User has no stake\");\n        for (uint256 i = 0; i < StakingNFT.balanceOf(_msgSender()); i++) {\n            uint256 _currentNFT =\n                StakingNFT.tokenOfOwnerByIndex(_msgSender(), i);\n            compoundRewards(_currentNFT);\n        }\n    }\n\n    // Function that lets user unstake NFY in system. 5% fee that gets redistributed back to reward pool\n    function unstakeNFY(uint256 _tokenId) public {\n        // Require that user is owner of token id\n        require(\n            StakingNFT.ownerOf(_tokenId) == _msgSender(),\n            \"User is not owner of token\"\n        );\n        require(\n            NFTDetails[_tokenId]._inCirculation == true,\n            \"Stake has already been withdrawn\"\n        );\n\n        updatePool();\n\n        NFT storage nft = NFTDetails[_tokenId];\n\n        uint256 _pendingRewards =\n            nft._NFYDeposited.mul(accNfyPerShare).div(1e18).sub(\n                nft._rewardDebt\n            );\n\n        uint256 amountStaked = getNFTBalance(_tokenId);\n        uint256 stakeAfterFees = amountStaked.div(100).mul(95);\n        uint256 userReceives =\n            amountStaked.div(100).mul(95).add(_pendingRewards);\n\n        uint256 fee = amountStaked.div(100).mul(5);\n\n        uint256 beingWithdrawn = nft._NFYDeposited;\n        nft._NFYDeposited = 0;\n        nft._inCirculation = false;\n        totalStaked = totalStaked.sub(beingWithdrawn);\n        StakingNFT.revertNftTokenId(_msgSender(), _tokenId);\n\n        (bool success, bytes memory data) =\n            staking.call(abi.encodeWithSignature(\"burn(uint256)\", _tokenId));\n        require(success == true, \"mint call failed\");\n\n        NFYToken.transfer(_msgSender(), userReceives);\n        NFYToken.transfer(rewardPool, fee);\n\n        emit WithdrawCompleted(_msgSender(), stakeAfterFees, _tokenId, now);\n        emit RewardsClaimed(_msgSender(), _pendingRewards, _tokenId, now);\n    }\n\n    // Function that will unstake every user's NFY stake NFT for user\n    function unstakeAll() public {\n        require(StakingNFT.balanceOf(_msgSender()) > 0, \"User has no stake\");\n\n        while (StakingNFT.balanceOf(_msgSender()) > 0) {\n            uint256 _currentNFT =\n                StakingNFT.tokenOfOwnerByIndex(_msgSender(), 0);\n            unstakeNFY(_currentNFT);\n        }\n    }\n\n    // Will increment value of staking NFT when trade occurs\n    function incrementNFTValue(uint256 _tokenId, uint256 _amount)\n        external\n        onlyPlatform()\n    {\n        require(\n            checkIfNFTInCirculation(_tokenId) == true,\n            \"Token not in circulation\"\n        );\n        updatePool();\n\n        NFT storage nft = NFTDetails[_tokenId];\n\n        if (nft._NFYDeposited > 0) {\n            uint256 _pendingRewards =\n                nft._NFYDeposited.mul(accNfyPerShare).div(1e18).sub(\n                    nft._rewardDebt\n                );\n\n            if (_pendingRewards > 0) {\n                NFYToken.transfer(\n                    StakingNFT.ownerOf(_tokenId),\n                    _pendingRewards\n                );\n                emit RewardsClaimed(\n                    StakingNFT.ownerOf(_tokenId),\n                    _pendingRewards,\n                    _tokenId,\n                    now\n                );\n            }\n        }\n\n        NFTDetails[_tokenId]._NFYDeposited = NFTDetails[_tokenId]\n            ._NFYDeposited\n            .add(_amount);\n\n        nft._rewardDebt = nft._NFYDeposited.mul(accNfyPerShare).div(1e18);\n    }\n\n    // Will decrement value of staking NFT when trade occurs\n    function decrementNFTValue(uint256 _tokenId, uint256 _amount)\n        external\n        onlyPlatform()\n    {\n        require(\n            checkIfNFTInCirculation(_tokenId) == true,\n            \"Token not in circulation\"\n        );\n        require(getNFTBalance(_tokenId) >= _amount, \"Not enough stake in NFT\");\n\n        updatePool();\n\n        NFT storage nft = NFTDetails[_tokenId];\n\n        if (nft._NFYDeposited > 0) {\n            uint256 _pendingRewards =\n                nft._NFYDeposited.mul(accNfyPerShare).div(1e18).sub(\n                    nft._rewardDebt\n                );\n\n            if (_pendingRewards > 0) {\n                NFYToken.transfer(\n                    StakingNFT.ownerOf(_tokenId),\n                    _pendingRewards\n                );\n                emit RewardsClaimed(\n                    StakingNFT.ownerOf(_tokenId),\n                    _pendingRewards,\n                    _tokenId,\n                    now\n                );\n            }\n        }\n\n        NFTDetails[_tokenId]._NFYDeposited = NFTDetails[_tokenId]\n            ._NFYDeposited\n            .sub(_amount);\n\n        nft._rewardDebt = nft._NFYDeposited.mul(accNfyPerShare).div(1e18);\n    }\n}\n",
  "sourcePath": "/Users/macbook/Documents/nfy/nfyGov/NFY-Governance/gov/contracts/NFYStaking.sol",
  "compiler": {
    "name": "solc",
    "version": "0.6.10+commit.00c0fcaf.Emscripten.clang"
  },
  "schemaVersion": "3.3.3",
  "updatedAt": "2021-02-16T11:57:54.246Z",
  "devdoc": {
    "methods": {}
  },
  "userdoc": {
    "methods": {}
  }
}