{
  "contractName": "Ownable",
  "abi": [
    {
      "inputs": [],
      "stateMutability": "nonpayable",
      "type": "constructor"
    },
    {
      "anonymous": false,
      "inputs": [
        {
          "indexed": false,
          "internalType": "address",
          "name": "_platformAddress",
          "type": "address"
        },
        {
          "indexed": false,
          "internalType": "uint256",
          "name": "_time",
          "type": "uint256"
        }
      ],
      "name": "AddedPlatformAddress",
      "type": "event"
    },
    {
      "anonymous": false,
      "inputs": [
        {
          "indexed": false,
          "internalType": "address",
          "name": "_previous",
          "type": "address"
        },
        {
          "indexed": false,
          "internalType": "address",
          "name": "_next",
          "type": "address"
        },
        {
          "indexed": false,
          "internalType": "uint256",
          "name": "_time",
          "type": "uint256"
        }
      ],
      "name": "TransferredOwnership",
      "type": "event"
    },
    {
      "inputs": [],
      "name": "owner",
      "outputs": [
        {
          "internalType": "address payable",
          "name": "",
          "type": "address"
        }
      ],
      "stateMutability": "view",
      "type": "function"
    },
    {
      "inputs": [
        {
          "internalType": "address payable",
          "name": "_owner",
          "type": "address"
        }
      ],
      "name": "transferOwnership",
      "outputs": [],
      "stateMutability": "nonpayable",
      "type": "function"
    },
    {
      "inputs": [
        {
          "internalType": "address",
          "name": "_platformAddress",
          "type": "address"
        }
      ],
      "name": "addPlatformAddress",
      "outputs": [],
      "stateMutability": "nonpayable",
      "type": "function"
    }
  ],
  "bytecode": "0x608060405234801561001057600080fd5b5061001f61006360201b60201c565b6000806101000a81548173ffffffffffffffffffffffffffffffffffffffff021916908373ffffffffffffffffffffffffffffffffffffffff16021790555061006b565b600033905090565b6104fc8061007a6000396000f3fe608060405234801561001057600080fd5b50600436106100415760003560e01c80638da5cb5b14610046578063f2fde38b14610090578063fd5e0fe2146100d4575b600080fd5b61004e610118565b604051808273ffffffffffffffffffffffffffffffffffffffff1673ffffffffffffffffffffffffffffffffffffffff16815260200191505060405180910390f35b6100d2600480360360208110156100a657600080fd5b81019080803573ffffffffffffffffffffffffffffffffffffffff16906020019092919050505061013d565b005b610116600480360360208110156100ea57600080fd5b81019080803573ffffffffffffffffffffffffffffffffffffffff169060200190929190505050610330565b005b6000809054906101000a900473ffffffffffffffffffffffffffffffffffffffff1681565b6000809054906101000a900473ffffffffffffffffffffffffffffffffffffffff1673ffffffffffffffffffffffffffffffffffffffff1661017d6104be565b73ffffffffffffffffffffffffffffffffffffffff1614610206576040517f08c379a000000000000000000000000000000000000000000000000000000000815260040180806020018281038252600a8152602001807f4f776e6572206f6e6c790000000000000000000000000000000000000000000081525060200191505060405180910390fd5b60008060009054906101000a900473ffffffffffffffffffffffffffffffffffffffff169050816000806101000a81548173ffffffffffffffffffffffffffffffffffffffff021916908373ffffffffffffffffffffffffffffffffffffffff1602179055507f30e048e48a73aeea72c325c17c7dec1889a58fef3848c2d5fbb81502c4702f31816000809054906101000a900473ffffffffffffffffffffffffffffffffffffffff1642604051808473ffffffffffffffffffffffffffffffffffffffff1673ffffffffffffffffffffffffffffffffffffffff1681526020018373ffffffffffffffffffffffffffffffffffffffff1673ffffffffffffffffffffffffffffffffffffffff168152602001828152602001935050505060405180910390a15050565b6000809054906101000a900473ffffffffffffffffffffffffffffffffffffffff1673ffffffffffffffffffffffffffffffffffffffff166103706104be565b73ffffffffffffffffffffffffffffffffffffffff16146103f9576040517f08c379a000000000000000000000000000000000000000000000000000000000815260040180806020018281038252600a8152602001807f4f776e6572206f6e6c790000000000000000000000000000000000000000000081525060200191505060405180910390fd5b60018060008373ffffffffffffffffffffffffffffffffffffffff1673ffffffffffffffffffffffffffffffffffffffff16815260200190815260200160002060006101000a81548160ff0219169083151502179055507fe6599c7f1b3687d38d7eb4fc4e63d64fd89455e0abaf9cc757d5476a5a54a0068142604051808373ffffffffffffffffffffffffffffffffffffffff1673ffffffffffffffffffffffffffffffffffffffff1681526020018281526020019250505060405180910390a150565b60003390509056fea264697066735822122058b32b7fbee111bf63fa715f9694faa975ca2eb0e9415233519f280753ed55ed64736f6c634300060a0033",
  "immutableReferences": {},
  "source": "pragma solidity ^0.6.10;\nimport \"@openzeppelin/contracts/GSN/Context.sol\";\n\ncontract Ownable is Context {\n    address payable public owner;\n\n    event TransferredOwnership(address _previous, address _next, uint256 _time);\n    event AddedPlatformAddress(address _platformAddress, uint256 _time);\n\n    modifier onlyOwner() {\n        require(_msgSender() == owner, \"Owner only\");\n        _;\n    }\n\n    modifier onlyPlatform() {\n        require(platformAddress[_msgSender()] == true, \"Only Platform\");\n        _;\n    }\n\n    mapping(address => bool) platformAddress;\n\n    constructor() public {\n        owner = _msgSender();\n    }\n\n    function transferOwnership(address payable _owner) public onlyOwner() {\n        address previousOwner = owner;\n        owner = _owner;\n        emit TransferredOwnership(previousOwner, owner, now);\n    }\n\n    function addPlatformAddress(address _platformAddress) public onlyOwner() {\n        platformAddress[_platformAddress] = true;\n\n        emit AddedPlatformAddress(_platformAddress, now);\n    }\n}\n",
  "sourcePath": "/Users/macbook/Documents/nfy/nfyGov/NFY-Governance/gov/contracts/Ownable.sol",
  "compiler": {
    "name": "solc",
    "version": "0.6.10+commit.00c0fcaf.Emscripten.clang"
  },
  "schemaVersion": "3.3.3",
  "updatedAt": "2021-02-16T11:57:54.262Z",
  "devdoc": {
    "methods": {}
  },
  "userdoc": {
    "methods": {}
  }
}