{
  "_format": "hh-sol-artifact-1",
  "contractName": "Timelock",
  "sourceName": "contracts/Timelock.sol",
  "abi": [
    {
      "inputs": [
        {
          "internalType": "address",
          "name": "admin_",
          "type": "address"
        },
        {
          "internalType": "uint256",
          "name": "delay_",
          "type": "uint256"
        }
      ],
      "stateMutability": "nonpayable",
      "type": "constructor"
    },
    {
      "anonymous": false,
      "inputs": [
        {
          "indexed": true,
          "internalType": "bytes32",
          "name": "txHash",
          "type": "bytes32"
        },
        {
          "indexed": true,
          "internalType": "address",
          "name": "target",
          "type": "address"
        },
        {
          "indexed": false,
          "internalType": "uint256",
          "name": "value",
          "type": "uint256"
        },
        {
          "indexed": false,
          "internalType": "string",
          "name": "signature",
          "type": "string"
        },
        {
          "indexed": false,
          "internalType": "bytes",
          "name": "data",
          "type": "bytes"
        },
        {
          "indexed": false,
          "internalType": "uint256",
          "name": "eta",
          "type": "uint256"
        }
      ],
      "name": "CancelTransaction",
      "type": "event"
    },
    {
      "anonymous": false,
      "inputs": [
        {
          "indexed": true,
          "internalType": "bytes32",
          "name": "txHash",
          "type": "bytes32"
        },
        {
          "indexed": true,
          "internalType": "address",
          "name": "target",
          "type": "address"
        },
        {
          "indexed": false,
          "internalType": "uint256",
          "name": "value",
          "type": "uint256"
        },
        {
          "indexed": false,
          "internalType": "string",
          "name": "signature",
          "type": "string"
        },
        {
          "indexed": false,
          "internalType": "bytes",
          "name": "data",
          "type": "bytes"
        },
        {
          "indexed": false,
          "internalType": "uint256",
          "name": "eta",
          "type": "uint256"
        }
      ],
      "name": "ExecuteTransaction",
      "type": "event"
    },
    {
      "anonymous": false,
      "inputs": [
        {
          "indexed": true,
          "internalType": "address",
          "name": "newAdmin",
          "type": "address"
        }
      ],
      "name": "NewAdmin",
      "type": "event"
    },
    {
      "anonymous": false,
      "inputs": [
        {
          "indexed": true,
          "internalType": "uint256",
          "name": "newDelay",
          "type": "uint256"
        }
      ],
      "name": "NewDelay",
      "type": "event"
    },
    {
      "anonymous": false,
      "inputs": [
        {
          "indexed": true,
          "internalType": "address",
          "name": "newPendingAdmin",
          "type": "address"
        }
      ],
      "name": "NewPendingAdmin",
      "type": "event"
    },
    {
      "anonymous": false,
      "inputs": [
        {
          "indexed": true,
          "internalType": "bytes32",
          "name": "txHash",
          "type": "bytes32"
        },
        {
          "indexed": true,
          "internalType": "address",
          "name": "target",
          "type": "address"
        },
        {
          "indexed": false,
          "internalType": "uint256",
          "name": "value",
          "type": "uint256"
        },
        {
          "indexed": false,
          "internalType": "string",
          "name": "signature",
          "type": "string"
        },
        {
          "indexed": false,
          "internalType": "bytes",
          "name": "data",
          "type": "bytes"
        },
        {
          "indexed": false,
          "internalType": "uint256",
          "name": "eta",
          "type": "uint256"
        }
      ],
      "name": "QueueTransaction",
      "type": "event"
    },
    {
      "inputs": [],
      "name": "GRACE_PERIOD",
      "outputs": [
        {
          "internalType": "uint256",
          "name": "",
          "type": "uint256"
        }
      ],
      "stateMutability": "view",
      "type": "function"
    },
    {
      "inputs": [],
      "name": "MAXIMUM_DELAY",
      "outputs": [
        {
          "internalType": "uint256",
          "name": "",
          "type": "uint256"
        }
      ],
      "stateMutability": "view",
      "type": "function"
    },
    {
      "inputs": [],
      "name": "MINIMUM_DELAY",
      "outputs": [
        {
          "internalType": "uint256",
          "name": "",
          "type": "uint256"
        }
      ],
      "stateMutability": "view",
      "type": "function"
    },
    {
      "inputs": [],
      "name": "acceptAdmin",
      "outputs": [],
      "stateMutability": "nonpayable",
      "type": "function"
    },
    {
      "inputs": [],
      "name": "admin",
      "outputs": [
        {
          "internalType": "address",
          "name": "",
          "type": "address"
        }
      ],
      "stateMutability": "view",
      "type": "function"
    },
    {
      "inputs": [
        {
          "internalType": "address",
          "name": "target",
          "type": "address"
        },
        {
          "internalType": "uint256",
          "name": "value",
          "type": "uint256"
        },
        {
          "internalType": "string",
          "name": "signature",
          "type": "string"
        },
        {
          "internalType": "bytes",
          "name": "data",
          "type": "bytes"
        },
        {
          "internalType": "uint256",
          "name": "eta",
          "type": "uint256"
        }
      ],
      "name": "cancelTransaction",
      "outputs": [],
      "stateMutability": "nonpayable",
      "type": "function"
    },
    {
      "inputs": [],
      "name": "delay",
      "outputs": [
        {
          "internalType": "uint256",
          "name": "",
          "type": "uint256"
        }
      ],
      "stateMutability": "view",
      "type": "function"
    },
    {
      "inputs": [
        {
          "internalType": "address",
          "name": "target",
          "type": "address"
        },
        {
          "internalType": "uint256",
          "name": "value",
          "type": "uint256"
        },
        {
          "internalType": "string",
          "name": "signature",
          "type": "string"
        },
        {
          "internalType": "bytes",
          "name": "data",
          "type": "bytes"
        },
        {
          "internalType": "uint256",
          "name": "eta",
          "type": "uint256"
        }
      ],
      "name": "executeTransaction",
      "outputs": [
        {
          "internalType": "bytes",
          "name": "",
          "type": "bytes"
        }
      ],
      "stateMutability": "payable",
      "type": "function"
    },
    {
      "inputs": [],
      "name": "getBlockTimestamp",
      "outputs": [
        {
          "internalType": "uint256",
          "name": "",
          "type": "uint256"
        }
      ],
      "stateMutability": "view",
      "type": "function"
    },
    {
      "inputs": [],
      "name": "pendingAdmin",
      "outputs": [
        {
          "internalType": "address",
          "name": "",
          "type": "address"
        }
      ],
      "stateMutability": "view",
      "type": "function"
    },
    {
      "inputs": [
        {
          "internalType": "address",
          "name": "target",
          "type": "address"
        },
        {
          "internalType": "uint256",
          "name": "value",
          "type": "uint256"
        },
        {
          "internalType": "string",
          "name": "signature",
          "type": "string"
        },
        {
          "internalType": "bytes",
          "name": "data",
          "type": "bytes"
        },
        {
          "internalType": "uint256",
          "name": "eta",
          "type": "uint256"
        }
      ],
      "name": "queueTransaction",
      "outputs": [
        {
          "internalType": "bytes32",
          "name": "",
          "type": "bytes32"
        }
      ],
      "stateMutability": "nonpayable",
      "type": "function"
    },
    {
      "inputs": [
        {
          "internalType": "bytes32",
          "name": "",
          "type": "bytes32"
        }
      ],
      "name": "queuedTransactions",
      "outputs": [
        {
          "internalType": "bool",
          "name": "",
          "type": "bool"
        }
      ],
      "stateMutability": "view",
      "type": "function"
    },
    {
      "inputs": [
        {
          "internalType": "uint256",
          "name": "delay_",
          "type": "uint256"
        }
      ],
      "name": "setDelay",
      "outputs": [],
      "stateMutability": "nonpayable",
      "type": "function"
    },
    {
      "inputs": [
        {
          "internalType": "address",
          "name": "pendingAdmin_",
          "type": "address"
        }
      ],
      "name": "setPendingAdmin",
      "outputs": [],
      "stateMutability": "nonpayable",
      "type": "function"
    },
    {
      "stateMutability": "payable",
      "type": "receive"
    }
  ],
  "bytecode": "0x608060405234801561001057600080fd5b506040516120633803806120638339818101604052604081101561003357600080fd5b810190808051906020019092919080519060200190929190505050600a8110156100a8576040517f08c379a0000000000000000000000000000000000000000000000000000000008152600401808060200182810382526037815260200180611ff46037913960400191505060405180910390fd5b62278d00811115610104576040517f08c379a000000000000000000000000000000000000000000000000000000000815260040180806020018281038252603881526020018061202b6038913960400191505060405180910390fd5b816000806101000a81548173ffffffffffffffffffffffffffffffffffffffff021916908373ffffffffffffffffffffffffffffffffffffffff160217905550806002819055505050611e988061015c6000396000f3fe6080604052600436106100e15760003560e01c8063796b89b91161007f578063c1a287e211610059578063c1a287e214610791578063e177246e146107bc578063f2b06537146107f7578063f851a4401461084a576100e8565b8063796b89b9146107105780637d645fab1461073b578063b1b43ae514610766576100e8565b80633a66f901116100bb5780633a66f9011461035a5780634dd18bf514610501578063591fcdfe146105525780636a42b8f8146106e5576100e8565b80630825f38f146100ed5780630e18b681146102ec5780632678224714610303576100e8565b366100e857005b600080fd5b610271600480360360a081101561010357600080fd5b81019080803573ffffffffffffffffffffffffffffffffffffffff169060200190929190803590602001909291908035906020019064010000000081111561014a57600080fd5b82018360208201111561015c57600080fd5b8035906020019184600183028401116401000000008311171561017e57600080fd5b91908080601f016020809104026020016040519081016040528093929190818152602001838380828437600081840152601f19601f820116905080830192505050505050509192919290803590602001906401000000008111156101e157600080fd5b8201836020820111156101f357600080fd5b8035906020019184600183028401116401000000008311171561021557600080fd5b91908080601f016020809104026020016040519081016040528093929190818152602001838380828437600081840152601f19601f820116905080830192505050505050509192919290803590602001909291905050506108a1565b6040518080602001828103825283818151815260200191508051906020019080838360005b838110156102b1578082015181840152602081019050610296565b50505050905090810190601f1680156102de5780820380516001836020036101000a031916815260200191505b509250505060405180910390f35b3480156102f857600080fd5b50610301610f22565b005b34801561030f57600080fd5b506103186110b0565b604051808273ffffffffffffffffffffffffffffffffffffffff1673ffffffffffffffffffffffffffffffffffffffff16815260200191505060405180910390f35b34801561036657600080fd5b506104eb600480360360a081101561037d57600080fd5b81019080803573ffffffffffffffffffffffffffffffffffffffff16906020019092919080359060200190929190803590602001906401000000008111156103c457600080fd5b8201836020820111156103d657600080fd5b803590602001918460018302840111640100000000831117156103f857600080fd5b91908080601f016020809104026020016040519081016040528093929190818152602001838380828437600081840152601f19601f8201169050808301925050505050505091929192908035906020019064010000000081111561045b57600080fd5b82018360208201111561046d57600080fd5b8035906020019184600183028401116401000000008311171561048f57600080fd5b91908080601f016020809104026020016040519081016040528093929190818152602001838380828437600081840152601f19601f820116905080830192505050505050509192919290803590602001909291905050506110d6565b6040518082815260200191505060405180910390f35b34801561050d57600080fd5b506105506004803603602081101561052457600080fd5b81019080803573ffffffffffffffffffffffffffffffffffffffff16906020019092919050505061149c565b005b34801561055e57600080fd5b506106e3600480360360a081101561057557600080fd5b81019080803573ffffffffffffffffffffffffffffffffffffffff16906020019092919080359060200190929190803590602001906401000000008111156105bc57600080fd5b8201836020820111156105ce57600080fd5b803590602001918460018302840111640100000000831117156105f057600080fd5b91908080601f016020809104026020016040519081016040528093929190818152602001838380828437600081840152601f19601f8201169050808301925050505050505091929192908035906020019064010000000081111561065357600080fd5b82018360208201111561066557600080fd5b8035906020019184600183028401116401000000008311171561068757600080fd5b91908080601f016020809104026020016040519081016040528093929190818152602001838380828437600081840152601f19601f820116905080830192505050505050509192919290803590602001909291905050506115c9565b005b3480156106f157600080fd5b506106fa611914565b6040518082815260200191505060405180910390f35b34801561071c57600080fd5b5061072561191a565b6040518082815260200191505060405180910390f35b34801561074757600080fd5b50610750611922565b6040518082815260200191505060405180910390f35b34801561077257600080fd5b5061077b611929565b6040518082815260200191505060405180910390f35b34801561079d57600080fd5b506107a661192e565b6040518082815260200191505060405180910390f35b3480156107c857600080fd5b506107f5600480360360208110156107df57600080fd5b8101908080359060200190929190505050611935565b005b34801561080357600080fd5b506108306004803603602081101561081a57600080fd5b8101908080359060200190929190505050611aa8565b604051808215151515815260200191505060405180910390f35b34801561085657600080fd5b5061085f611ac8565b604051808273ffffffffffffffffffffffffffffffffffffffff1673ffffffffffffffffffffffffffffffffffffffff16815260200191505060405180910390f35b60606000809054906101000a900473ffffffffffffffffffffffffffffffffffffffff1673ffffffffffffffffffffffffffffffffffffffff163373ffffffffffffffffffffffffffffffffffffffff1614610948576040517f08c379a0000000000000000000000000000000000000000000000000000000008152600401808060200182810382526038815260200180611b766038913960400191505060405180910390fd5b60008686868686604051602001808673ffffffffffffffffffffffffffffffffffffffff1673ffffffffffffffffffffffffffffffffffffffff1681526020018581526020018060200180602001848152602001838103835286818151815260200191508051906020019080838360005b838110156109d45780820151818401526020810190506109b9565b50505050905090810190601f168015610a015780820380516001836020036101000a031916815260200191505b50838103825285818151815260200191508051906020019080838360005b83811015610a3a578082015181840152602081019050610a1f565b50505050905090810190601f168015610a675780820380516001836020036101000a031916815260200191505b509750505050505050506040516020818303038152906040528051906020012090506003600082815260200190815260200160002060009054906101000a900460ff16610aff576040517f08c379a000000000000000000000000000000000000000000000000000000000815260040180806020018281038252603d815260200180611cc9603d913960400191505060405180910390fd5b82610b0861191a565b1015610b5f576040517f08c379a0000000000000000000000000000000000000000000000000000000008152600401808060200182810382526045815260200180611c186045913960600191505060405180910390fd5b610b756212750084611aed90919063ffffffff16565b610b7d61191a565b1115610bd4576040517f08c379a0000000000000000000000000000000000000000000000000000000008152600401808060200182810382526033815260200180611be56033913960400191505060405180910390fd5b60006003600083815260200190815260200160002060006101000a81548160ff0219169083151502179055506060600086511415610c1457849050610ccf565b85805190602001208560405160200180837bffffffffffffffffffffffffffffffffffffffffffffffffffffffff19167bffffffffffffffffffffffffffffffffffffffffffffffffffffffff1916815260040182805190602001908083835b60208310610c975780518252602082019150602081019050602083039250610c74565b6001836020036101000a0380198251168184511680821785525050505050509050019250505060405160208183030381529060405290505b600060608973ffffffffffffffffffffffffffffffffffffffff1689846040518082805190602001908083835b60208310610d1f5780518252602082019150602081019050602083039250610cfc565b6001836020036101000a03801982511681845116808217855250505050505090500191505060006040518083038185875af1925050503d8060008114610d81576040519150601f19603f3d011682016040523d82523d6000602084013e610d86565b606091505b509150915081610de1576040517f08c379a000000000000000000000000000000000000000000000000000000000815260040180806020018281038252603d815260200180611dac603d913960400191505060405180910390fd5b8973ffffffffffffffffffffffffffffffffffffffff16847fa560e3198060a2f10670c1ec5b403077ea6ae93ca8de1c32b451dc1a943cd6e78b8b8b8b604051808581526020018060200180602001848152602001838103835286818151815260200191508051906020019080838360005b83811015610e6e578082015181840152602081019050610e53565b50505050905090810190601f168015610e9b5780820380516001836020036101000a031916815260200191505b50838103825285818151815260200191508051906020019080838360005b83811015610ed4578082015181840152602081019050610eb9565b50505050905090810190601f168015610f015780820380516001836020036101000a031916815260200191505b50965050505050505060405180910390a38094505050505095945050505050565b600160009054906101000a900473ffffffffffffffffffffffffffffffffffffffff1673ffffffffffffffffffffffffffffffffffffffff163373ffffffffffffffffffffffffffffffffffffffff1614610fc8576040517f08c379a0000000000000000000000000000000000000000000000000000000008152600401808060200182810382526038815260200180611d066038913960400191505060405180910390fd5b336000806101000a81548173ffffffffffffffffffffffffffffffffffffffff021916908373ffffffffffffffffffffffffffffffffffffffff1602179055506000600160006101000a81548173ffffffffffffffffffffffffffffffffffffffff021916908373ffffffffffffffffffffffffffffffffffffffff1602179055506000809054906101000a900473ffffffffffffffffffffffffffffffffffffffff1673ffffffffffffffffffffffffffffffffffffffff167f71614071b88dee5e0b2ae578a9dd7b2ebbe9ae832ba419dc0242cd065a290b6c60405160405180910390a2565b600160009054906101000a900473ffffffffffffffffffffffffffffffffffffffff1681565b60008060009054906101000a900473ffffffffffffffffffffffffffffffffffffffff1673ffffffffffffffffffffffffffffffffffffffff163373ffffffffffffffffffffffffffffffffffffffff161461117d576040517f08c379a0000000000000000000000000000000000000000000000000000000008152600401808060200182810382526036815260200180611d766036913960400191505060405180910390fd5b61119960025461118b61191a565b611aed90919063ffffffff16565b8210156111f1576040517f08c379a0000000000000000000000000000000000000000000000000000000008152600401808060200182810382526049815260200180611de96049913960600191505060405180910390fd5b60008686868686604051602001808673ffffffffffffffffffffffffffffffffffffffff1673ffffffffffffffffffffffffffffffffffffffff1681526020018581526020018060200180602001848152602001838103835286818151815260200191508051906020019080838360005b8381101561127d578082015181840152602081019050611262565b50505050905090810190601f1680156112aa5780820380516001836020036101000a031916815260200191505b50838103825285818151815260200191508051906020019080838360005b838110156112e35780820151818401526020810190506112c8565b50505050905090810190601f1680156113105780820380516001836020036101000a031916815260200191505b5097505050505050505060405160208183030381529060405280519060200120905060016003600083815260200190815260200160002060006101000a81548160ff0219169083151502179055508673ffffffffffffffffffffffffffffffffffffffff16817f76e2796dc3a81d57b0e8504b647febcbeeb5f4af818e164f11eef8131a6a763f88888888604051808581526020018060200180602001848152602001838103835286818151815260200191508051906020019080838360005b838110156113eb5780820151818401526020810190506113d0565b50505050905090810190601f1680156114185780820380516001836020036101000a031916815260200191505b50838103825285818151815260200191508051906020019080838360005b83811015611451578082015181840152602081019050611436565b50505050905090810190601f16801561147e5780820380516001836020036101000a031916815260200191505b50965050505050505060405180910390a38091505095945050505050565b3073ffffffffffffffffffffffffffffffffffffffff163373ffffffffffffffffffffffffffffffffffffffff1614611520576040517f08c379a0000000000000000000000000000000000000000000000000000000008152600401808060200182810382526038815260200180611d3e6038913960400191505060405180910390fd5b80600160006101000a81548173ffffffffffffffffffffffffffffffffffffffff021916908373ffffffffffffffffffffffffffffffffffffffff160217905550600160009054906101000a900473ffffffffffffffffffffffffffffffffffffffff1673ffffffffffffffffffffffffffffffffffffffff167f69d78e38a01985fbb1462961809b4b2d65531bc93b2b94037f3334b82ca4a75660405160405180910390a250565b6000809054906101000a900473ffffffffffffffffffffffffffffffffffffffff1673ffffffffffffffffffffffffffffffffffffffff163373ffffffffffffffffffffffffffffffffffffffff161461166e576040517f08c379a0000000000000000000000000000000000000000000000000000000008152600401808060200182810382526037815260200180611bae6037913960400191505060405180910390fd5b60008585858585604051602001808673ffffffffffffffffffffffffffffffffffffffff1673ffffffffffffffffffffffffffffffffffffffff1681526020018581526020018060200180602001848152602001838103835286818151815260200191508051906020019080838360005b838110156116fa5780820151818401526020810190506116df565b50505050905090810190601f1680156117275780820380516001836020036101000a031916815260200191505b50838103825285818151815260200191508051906020019080838360005b83811015611760578082015181840152602081019050611745565b50505050905090810190601f16801561178d5780820380516001836020036101000a031916815260200191505b5097505050505050505060405160208183030381529060405280519060200120905060006003600083815260200190815260200160002060006101000a81548160ff0219169083151502179055508573ffffffffffffffffffffffffffffffffffffffff16817f2fffc091a501fd91bfbff27141450d3acb40fb8e6d8382b243ec7a812a3aaf8787878787604051808581526020018060200180602001848152602001838103835286818151815260200191508051906020019080838360005b8381101561186857808201518184015260208101905061184d565b50505050905090810190601f1680156118955780820380516001836020036101000a031916815260200191505b50838103825285818151815260200191508051906020019080838360005b838110156118ce5780820151818401526020810190506118b3565b50505050905090810190601f1680156118fb5780820380516001836020036101000a031916815260200191505b50965050505050505060405180910390a3505050505050565b60025481565b600042905090565b62278d0081565b600a81565b6212750081565b3073ffffffffffffffffffffffffffffffffffffffff163373ffffffffffffffffffffffffffffffffffffffff16146119b9576040517f08c379a0000000000000000000000000000000000000000000000000000000008152600401808060200182810382526031815260200180611e326031913960400191505060405180910390fd5b600a811015611a13576040517f08c379a0000000000000000000000000000000000000000000000000000000008152600401808060200182810382526034815260200180611c5d6034913960400191505060405180910390fd5b62278d00811115611a6f576040517f08c379a0000000000000000000000000000000000000000000000000000000008152600401808060200182810382526038815260200180611c916038913960400191505060405180910390fd5b806002819055506002547f948b1f6a42ee138b7e34058ba85a37f716d55ff25ff05a763f15bed6a04c8d2c60405160405180910390a250565b60036020528060005260406000206000915054906101000a900460ff1681565b6000809054906101000a900473ffffffffffffffffffffffffffffffffffffffff1681565b600080828401905083811015611b6b576040517f08c379a000000000000000000000000000000000000000000000000000000000815260040180806020018281038252601b8152602001807f536166654d6174683a206164646974696f6e206f766572666c6f77000000000081525060200191505060405180910390fd5b809150509291505056fe54696d656c6f636b3a3a657865637574655472616e73616374696f6e3a2043616c6c206d75737420636f6d652066726f6d2061646d696e2e54696d656c6f636b3a3a63616e63656c5472616e73616374696f6e3a2043616c6c206d75737420636f6d652066726f6d2061646d696e2e54696d656c6f636b3a3a657865637574655472616e73616374696f6e3a205472616e73616374696f6e206973207374616c652e54696d656c6f636b3a3a657865637574655472616e73616374696f6e3a205472616e73616374696f6e206861736e2774207375727061737365642074696d65206c6f636b2e54696d656c6f636b3a3a73657444656c61793a2044656c6179206d75737420657863656564206d696e696d756d2064656c61792e54696d656c6f636b3a3a73657444656c61793a2044656c6179206d757374206e6f7420657863656564206d6178696d756d2064656c61792e54696d656c6f636b3a3a657865637574655472616e73616374696f6e3a205472616e73616374696f6e206861736e2774206265656e207175657565642e54696d656c6f636b3a3a61636365707441646d696e3a2043616c6c206d75737420636f6d652066726f6d2070656e64696e6741646d696e2e54696d656c6f636b3a3a73657450656e64696e6741646d696e3a2043616c6c206d75737420636f6d652066726f6d2054696d656c6f636b2e54696d656c6f636b3a3a71756575655472616e73616374696f6e3a2043616c6c206d75737420636f6d652066726f6d2061646d696e2e54696d656c6f636b3a3a657865637574655472616e73616374696f6e3a205472616e73616374696f6e20657865637574696f6e2072657665727465642e54696d656c6f636b3a3a71756575655472616e73616374696f6e3a20457374696d6174656420657865637574696f6e20626c6f636b206d75737420736174697366792064656c61792e54696d656c6f636b3a3a73657444656c61793a2043616c6c206d75737420636f6d652066726f6d2054696d656c6f636b2ea264697066735822122015954fe9269c11413a264903ecffe9c5ff3ec48a42c8228aa344ce248429ada664736f6c634300060a003354696d656c6f636b3a3a636f6e7374727563746f723a2044656c6179206d75737420657863656564206d696e696d756d2064656c61792e54696d656c6f636b3a3a73657444656c61793a2044656c6179206d757374206e6f7420657863656564206d6178696d756d2064656c61792e",
  "linkReferences": {},
  "deployedLinkReferences": {}
}