{
  "_format": "hh-sol-artifact-1",
  "contractName": "NFYStakingNFT",
  "sourceName": "contracts/NFYStakingNFT.sol",
  "abi": [
    {
      "inputs": [],
      "stateMutability": "nonpayable",
      "type": "constructor"
    },
    {
      "anonymous": false,
      "inputs": [
        {
          "indexed": false,
          "internalType": "address",
          "name": "_platformAddress",
          "type": "address"
        },
        {
          "indexed": false,
          "internalType": "uint256",
          "name": "_time",
          "type": "uint256"
        }
      ],
      "name": "AddedPlatformAddress",
      "type": "event"
    },
    {
      "anonymous": false,
      "inputs": [
        {
          "indexed": true,
          "internalType": "address",
          "name": "owner",
          "type": "address"
        },
        {
          "indexed": true,
          "internalType": "address",
          "name": "approved",
          "type": "address"
        },
        {
          "indexed": true,
          "internalType": "uint256",
          "name": "tokenId",
          "type": "uint256"
        }
      ],
      "name": "Approval",
      "type": "event"
    },
    {
      "anonymous": false,
      "inputs": [
        {
          "indexed": true,
          "internalType": "address",
          "name": "owner",
          "type": "address"
        },
        {
          "indexed": true,
          "internalType": "address",
          "name": "operator",
          "type": "address"
        },
        {
          "indexed": false,
          "internalType": "bool",
          "name": "approved",
          "type": "bool"
        }
      ],
      "name": "ApprovalForAll",
      "type": "event"
    },
    {
      "anonymous": false,
      "inputs": [
        {
          "indexed": false,
          "internalType": "address",
          "name": "_staker",
          "type": "address"
        },
        {
          "indexed": false,
          "internalType": "uint256",
          "name": "_tokenId",
          "type": "uint256"
        },
        {
          "indexed": false,
          "internalType": "uint256",
          "name": "_time",
          "type": "uint256"
        }
      ],
      "name": "MintedToken",
      "type": "event"
    },
    {
      "anonymous": false,
      "inputs": [
        {
          "indexed": false,
          "internalType": "address",
          "name": "_stakeholder",
          "type": "address"
        },
        {
          "indexed": false,
          "internalType": "uint256",
          "name": "_tokenId",
          "type": "uint256"
        },
        {
          "indexed": false,
          "internalType": "uint256",
          "name": "_revertNum",
          "type": "uint256"
        },
        {
          "indexed": false,
          "internalType": "uint256",
          "name": "_time",
          "type": "uint256"
        }
      ],
      "name": "RevertCompleted",
      "type": "event"
    },
    {
      "anonymous": false,
      "inputs": [
        {
          "indexed": true,
          "internalType": "address",
          "name": "from",
          "type": "address"
        },
        {
          "indexed": true,
          "internalType": "address",
          "name": "to",
          "type": "address"
        },
        {
          "indexed": true,
          "internalType": "uint256",
          "name": "tokenId",
          "type": "uint256"
        }
      ],
      "name": "Transfer",
      "type": "event"
    },
    {
      "anonymous": false,
      "inputs": [
        {
          "indexed": false,
          "internalType": "address",
          "name": "_previous",
          "type": "address"
        },
        {
          "indexed": false,
          "internalType": "address",
          "name": "_next",
          "type": "address"
        },
        {
          "indexed": false,
          "internalType": "uint256",
          "name": "_time",
          "type": "uint256"
        }
      ],
      "name": "TransferredOwnership",
      "type": "event"
    },
    {
      "inputs": [
        {
          "internalType": "address",
          "name": "_platformAddress",
          "type": "address"
        }
      ],
      "name": "addPlatformAddress",
      "outputs": [],
      "stateMutability": "nonpayable",
      "type": "function"
    },
    {
      "inputs": [
        {
          "internalType": "address",
          "name": "to",
          "type": "address"
        },
        {
          "internalType": "uint256",
          "name": "tokenId",
          "type": "uint256"
        }
      ],
      "name": "approve",
      "outputs": [],
      "stateMutability": "nonpayable",
      "type": "function"
    },
    {
      "inputs": [
        {
          "internalType": "address",
          "name": "owner",
          "type": "address"
        }
      ],
      "name": "balanceOf",
      "outputs": [
        {
          "internalType": "uint256",
          "name": "",
          "type": "uint256"
        }
      ],
      "stateMutability": "view",
      "type": "function"
    },
    {
      "inputs": [],
      "name": "baseURI",
      "outputs": [
        {
          "internalType": "string",
          "name": "",
          "type": "string"
        }
      ],
      "stateMutability": "view",
      "type": "function"
    },
    {
      "inputs": [
        {
          "internalType": "uint256",
          "name": "_token",
          "type": "uint256"
        }
      ],
      "name": "burn",
      "outputs": [],
      "stateMutability": "nonpayable",
      "type": "function"
    },
    {
      "inputs": [
        {
          "internalType": "uint256",
          "name": "tokenId",
          "type": "uint256"
        }
      ],
      "name": "getApproved",
      "outputs": [
        {
          "internalType": "address",
          "name": "",
          "type": "address"
        }
      ],
      "stateMutability": "view",
      "type": "function"
    },
    {
      "inputs": [
        {
          "internalType": "address",
          "name": "owner",
          "type": "address"
        },
        {
          "internalType": "address",
          "name": "operator",
          "type": "address"
        }
      ],
      "name": "isApprovedForAll",
      "outputs": [
        {
          "internalType": "bool",
          "name": "",
          "type": "bool"
        }
      ],
      "stateMutability": "view",
      "type": "function"
    },
    {
      "inputs": [
        {
          "internalType": "address",
          "name": "_minter",
          "type": "address"
        }
      ],
      "name": "mint",
      "outputs": [],
      "stateMutability": "nonpayable",
      "type": "function"
    },
    {
      "inputs": [],
      "name": "name",
      "outputs": [
        {
          "internalType": "string",
          "name": "",
          "type": "string"
        }
      ],
      "stateMutability": "view",
      "type": "function"
    },
    {
      "inputs": [
        {
          "internalType": "address",
          "name": "_stakeholder",
          "type": "address"
        }
      ],
      "name": "nftTokenId",
      "outputs": [
        {
          "internalType": "uint256",
          "name": "id",
          "type": "uint256"
        }
      ],
      "stateMutability": "view",
      "type": "function"
    },
    {
      "inputs": [],
      "name": "owner",
      "outputs": [
        {
          "internalType": "address payable",
          "name": "",
          "type": "address"
        }
      ],
      "stateMutability": "view",
      "type": "function"
    },
    {
      "inputs": [
        {
          "internalType": "uint256",
          "name": "tokenId",
          "type": "uint256"
        }
      ],
      "name": "ownerOf",
      "outputs": [
        {
          "internalType": "address",
          "name": "",
          "type": "address"
        }
      ],
      "stateMutability": "view",
      "type": "function"
    },
    {
      "inputs": [
        {
          "internalType": "address",
          "name": "_stakeholder",
          "type": "address"
        },
        {
          "internalType": "uint256",
          "name": "_tokenId",
          "type": "uint256"
        }
      ],
      "name": "revertNftTokenId",
      "outputs": [],
      "stateMutability": "nonpayable",
      "type": "function"
    },
    {
      "inputs": [
        {
          "internalType": "address",
          "name": "from",
          "type": "address"
        },
        {
          "internalType": "address",
          "name": "to",
          "type": "address"
        },
        {
          "internalType": "uint256",
          "name": "tokenId",
          "type": "uint256"
        }
      ],
      "name": "safeTransferFrom",
      "outputs": [],
      "stateMutability": "nonpayable",
      "type": "function"
    },
    {
      "inputs": [
        {
          "internalType": "address",
          "name": "from",
          "type": "address"
        },
        {
          "internalType": "address",
          "name": "to",
          "type": "address"
        },
        {
          "internalType": "uint256",
          "name": "tokenId",
          "type": "uint256"
        },
        {
          "internalType": "bytes",
          "name": "_data",
          "type": "bytes"
        }
      ],
      "name": "safeTransferFrom",
      "outputs": [],
      "stateMutability": "nonpayable",
      "type": "function"
    },
    {
      "inputs": [
        {
          "internalType": "address",
          "name": "operator",
          "type": "address"
        },
        {
          "internalType": "bool",
          "name": "approved",
          "type": "bool"
        }
      ],
      "name": "setApprovalForAll",
      "outputs": [],
      "stateMutability": "nonpayable",
      "type": "function"
    },
    {
      "inputs": [
        {
          "internalType": "bytes4",
          "name": "interfaceId",
          "type": "bytes4"
        }
      ],
      "name": "supportsInterface",
      "outputs": [
        {
          "internalType": "bool",
          "name": "",
          "type": "bool"
        }
      ],
      "stateMutability": "view",
      "type": "function"
    },
    {
      "inputs": [],
      "name": "symbol",
      "outputs": [
        {
          "internalType": "string",
          "name": "",
          "type": "string"
        }
      ],
      "stateMutability": "view",
      "type": "function"
    },
    {
      "inputs": [
        {
          "internalType": "uint256",
          "name": "index",
          "type": "uint256"
        }
      ],
      "name": "tokenByIndex",
      "outputs": [
        {
          "internalType": "uint256",
          "name": "",
          "type": "uint256"
        }
      ],
      "stateMutability": "view",
      "type": "function"
    },
    {
      "inputs": [],
      "name": "tokenID",
      "outputs": [
        {
          "internalType": "uint256",
          "name": "",
          "type": "uint256"
        }
      ],
      "stateMutability": "view",
      "type": "function"
    },
    {
      "inputs": [
        {
          "internalType": "address",
          "name": "owner",
          "type": "address"
        },
        {
          "internalType": "uint256",
          "name": "index",
          "type": "uint256"
        }
      ],
      "name": "tokenOfOwnerByIndex",
      "outputs": [
        {
          "internalType": "uint256",
          "name": "",
          "type": "uint256"
        }
      ],
      "stateMutability": "view",
      "type": "function"
    },
    {
      "inputs": [
        {
          "internalType": "uint256",
          "name": "tokenId",
          "type": "uint256"
        }
      ],
      "name": "tokenURI",
      "outputs": [
        {
          "internalType": "string",
          "name": "",
          "type": "string"
        }
      ],
      "stateMutability": "view",
      "type": "function"
    },
    {
      "inputs": [],
      "name": "totalSupply",
      "outputs": [
        {
          "internalType": "uint256",
          "name": "",
          "type": "uint256"
        }
      ],
      "stateMutability": "view",
      "type": "function"
    },
    {
      "inputs": [
        {
          "internalType": "address",
          "name": "from",
          "type": "address"
        },
        {
          "internalType": "address",
          "name": "to",
          "type": "address"
        },
        {
          "internalType": "uint256",
          "name": "tokenId",
          "type": "uint256"
        }
      ],
      "name": "transferFrom",
      "outputs": [],
      "stateMutability": "nonpayable",
      "type": "function"
    },
    {
      "inputs": [
        {
          "internalType": "address payable",
          "name": "_owner",
          "type": "address"
        }
      ],
      "name": "transferOwnership",
      "outputs": [],
      "stateMutability": "nonpayable",
      "type": "function"
    }
  ],
  "bytecode": "0x60806040523480156200001157600080fd5b506040518060400160405280600f81526020017f4e4659205374616b696e67204e465400000000000000000000000000000000008152506040518060400160405280600681526020017f4e46594e465400000000000000000000000000000000000000000000000000008152506200008e6200016760201b60201c565b6000806101000a81548173ffffffffffffffffffffffffffffffffffffffff021916908373ffffffffffffffffffffffffffffffffffffffff160217905550620000e56301ffc9a760e01b6200016f60201b60201c565b8160089080519060200190620000fd92919062000279565b5080600990805190602001906200011692919062000279565b506200012f6380ac58cd60e01b6200016f60201b60201c565b62000147635b5e139f60e01b6200016f60201b60201c565b6200015f63780e9d6360e01b6200016f60201b60201c565b505062000328565b600033905090565b63ffffffff60e01b817bffffffffffffffffffffffffffffffffffffffffffffffffffffffff191614156200020c576040517f08c379a000000000000000000000000000000000000000000000000000000000815260040180806020018281038252601c8152602001807f4552433136353a20696e76616c696420696e746572666163652069640000000081525060200191505060405180910390fd5b600160026000837bffffffffffffffffffffffffffffffffffffffffffffffffffffffff19167bffffffffffffffffffffffffffffffffffffffffffffffffffffffff1916815260200190815260200160002060006101000a81548160ff02191690831515021790555050565b828054600181600116156101000203166002900490600052602060002090601f016020900481019282601f10620002bc57805160ff1916838001178555620002ed565b82800160010185558215620002ed579182015b82811115620002ec578251825591602001919060010190620002cf565b5b509050620002fc919062000300565b5090565b6200032591905b808211156200032157600081600090555060010162000307565b5090565b90565b6139c780620003386000396000f3fe608060405234801561001057600080fd5b50600436106101735760003560e01c80636c0360eb116100de578063a22cb46511610097578063c87b56dd11610071578063c87b56dd1461095b578063e985e9c514610a02578063f2fde38b14610a7e578063fd5e0fe214610ac257610173565b8063a22cb465146107e8578063a5c42ef114610838578063b88d4fde1461085657610173565b80636c0360eb1461059a5780636d4b7deb1461061d57806370a082311461067557806386de6c65146106cd5780638da5cb5b1461071b57806395d89b411461076557610173565b80632f745c59116101305780632f745c59146103a857806342842e0e1461040a57806342966c68146104785780634f6ccce7146104a65780636352211e146104e85780636a6278421461055657610173565b806301ffc9a71461017857806306fdde03146101dd578063081812fc14610260578063095ea7b3146102ce57806318160ddd1461031c57806323b872dd1461033a575b600080fd5b6101c36004803603602081101561018e57600080fd5b8101908080357bffffffffffffffffffffffffffffffffffffffffffffffffffffffff19169060200190929190505050610b06565b604051808215151515815260200191505060405180910390f35b6101e5610b6e565b6040518080602001828103825283818151815260200191508051906020019080838360005b8381101561022557808201518184015260208101905061020a565b50505050905090810190601f1680156102525780820380516001836020036101000a031916815260200191505b509250505060405180910390f35b61028c6004803603602081101561027657600080fd5b8101908080359060200190929190505050610c10565b604051808273ffffffffffffffffffffffffffffffffffffffff1673ffffffffffffffffffffffffffffffffffffffff16815260200191505060405180910390f35b61031a600480360360408110156102e457600080fd5b81019080803573ffffffffffffffffffffffffffffffffffffffff16906020019092919080359060200190929190505050610cab565b005b610324610def565b6040518082815260200191505060405180910390f35b6103a66004803603606081101561035057600080fd5b81019080803573ffffffffffffffffffffffffffffffffffffffff169060200190929190803573ffffffffffffffffffffffffffffffffffffffff16906020019092919080359060200190929190505050610e00565b005b6103f4600480360360408110156103be57600080fd5b81019080803573ffffffffffffffffffffffffffffffffffffffff16906020019092919080359060200190929190505050610e76565b6040518082815260200191505060405180910390f35b6104766004803603606081101561042057600080fd5b81019080803573ffffffffffffffffffffffffffffffffffffffff169060200190929190803573ffffffffffffffffffffffffffffffffffffffff16906020019092919080359060200190929190505050610ed1565b005b6104a46004803603602081101561048e57600080fd5b8101908080359060200190929190505050610ef1565b005b6104d2600480360360208110156104bc57600080fd5b8101908080359060200190929190505050610fca565b6040518082815260200191505060405180910390f35b610514600480360360208110156104fe57600080fd5b8101908080359060200190929190505050610fed565b604051808273ffffffffffffffffffffffffffffffffffffffff1673ffffffffffffffffffffffffffffffffffffffff16815260200191505060405180910390f35b6105986004803603602081101561056c57600080fd5b81019080803573ffffffffffffffffffffffffffffffffffffffff169060200190929190505050611024565b005b6105a26111e7565b6040518080602001828103825283818151815260200191508051906020019080838360005b838110156105e25780820151818401526020810190506105c7565b50505050905090810190601f16801561060f5780820380516001836020036101000a031916815260200191505b509250505060405180910390f35b61065f6004803603602081101561063357600080fd5b81019080803573ffffffffffffffffffffffffffffffffffffffff169060200190929190505050611289565b6040518082815260200191505060405180910390f35b6106b76004803603602081101561068b57600080fd5b81019080803573ffffffffffffffffffffffffffffffffffffffff1690602001909291905050506113b9565b6040518082815260200191505060405180910390f35b610719600480360360408110156106e357600080fd5b81019080803573ffffffffffffffffffffffffffffffffffffffff1690602001909291908035906020019092919050505061148e565b005b610723611707565b604051808273ffffffffffffffffffffffffffffffffffffffff1673ffffffffffffffffffffffffffffffffffffffff16815260200191505060405180910390f35b61076d61172c565b6040518080602001828103825283818151815260200191508051906020019080838360005b838110156107ad578082015181840152602081019050610792565b50505050905090810190601f1680156107da5780820380516001836020036101000a031916815260200191505b509250505060405180910390f35b610836600480360360408110156107fe57600080fd5b81019080803573ffffffffffffffffffffffffffffffffffffffff1690602001909291908035151590602001909291905050506117ce565b005b610840611986565b6040518082815260200191505060405180910390f35b6109596004803603608081101561086c57600080fd5b81019080803573ffffffffffffffffffffffffffffffffffffffff169060200190929190803573ffffffffffffffffffffffffffffffffffffffff16906020019092919080359060200190929190803590602001906401000000008111156108d357600080fd5b8201836020820111156108e557600080fd5b8035906020019184600183028401116401000000008311171561090757600080fd5b91908080601f016020809104026020016040519081016040528093929190818152602001838380828437600081840152601f19601f82011690508083019250505050505050919291929050505061198c565b005b6109876004803603602081101561097157600080fd5b8101908080359060200190929190505050611a04565b6040518080602001828103825283818151815260200191508051906020019080838360005b838110156109c75780820151818401526020810190506109ac565b50505050905090810190601f1680156109f45780820380516001836020036101000a031916815260200191505b509250505060405180910390f35b610a6460048036036040811015610a1857600080fd5b81019080803573ffffffffffffffffffffffffffffffffffffffff169060200190929190803573ffffffffffffffffffffffffffffffffffffffff169060200190929190505050611ced565b604051808215151515815260200191505060405180910390f35b610ac060048036036020811015610a9457600080fd5b81019080803573ffffffffffffffffffffffffffffffffffffffff169060200190929190505050611d81565b005b610b0460048036036020811015610ad857600080fd5b81019080803573ffffffffffffffffffffffffffffffffffffffff169060200190929190505050611f74565b005b600060026000837bffffffffffffffffffffffffffffffffffffffffffffffffffffffff19167bffffffffffffffffffffffffffffffffffffffffffffffffffffffff1916815260200190815260200160002060009054906101000a900460ff169050919050565b606060088054600181600116156101000203166002900480601f016020809104026020016040519081016040528092919081815260200182805460018160011615610100020316600290048015610c065780601f10610bdb57610100808354040283529160200191610c06565b820191906000526020600020905b815481529060010190602001808311610be957829003601f168201915b5050505050905090565b6000610c1b82612102565b610c70576040517f08c379a000000000000000000000000000000000000000000000000000000000815260040180806020018281038252602c8152602001806138bc602c913960400191505060405180910390fd5b6006600083815260200190815260200160002060009054906101000a900473ffffffffffffffffffffffffffffffffffffffff169050919050565b6000610cb682610fed565b90508073ffffffffffffffffffffffffffffffffffffffff168373ffffffffffffffffffffffffffffffffffffffff161415610d3d576040517f08c379a00000000000000000000000000000000000000000000000000000000081526004018080602001828103825260218152602001806139406021913960400191505060405180910390fd5b8073ffffffffffffffffffffffffffffffffffffffff16610d5c61211f565b73ffffffffffffffffffffffffffffffffffffffff161480610d8b5750610d8a81610d8561211f565b611ced565b5b610de0576040517f08c379a000000000000000000000000000000000000000000000000000000000815260040180806020018281038252603881526020018061380f6038913960400191505060405180910390fd5b610dea8383612127565b505050565b6000610dfb60046121e0565b905090565b610e11610e0b61211f565b826121f5565b610e66576040517f08c379a00000000000000000000000000000000000000000000000000000000081526004018080602001828103825260318152602001806139616031913960400191505060405180910390fd5b610e718383836122e9565b505050565b6000610ec982600360008673ffffffffffffffffffffffffffffffffffffffff1673ffffffffffffffffffffffffffffffffffffffff16815260200190815260200160002061252c90919063ffffffff16565b905092915050565b610eec8383836040518060200160405280600081525061198c565b505050565b6001151560016000610f0161211f565b73ffffffffffffffffffffffffffffffffffffffff1673ffffffffffffffffffffffffffffffffffffffff16815260200190815260200160002060009054906101000a900460ff16151514610fbe576040517f08c379a000000000000000000000000000000000000000000000000000000000815260040180806020018281038252600d8152602001807f4f6e6c7920506c6174666f726d0000000000000000000000000000000000000081525060200191505060405180910390fd5b610fc781612546565b50565b600080610fe183600461268090919063ffffffff16565b50905080915050919050565b600061101d826040518060600160405280602981526020016138716029913960046126af9092919063ffffffff16565b9050919050565b600115156001600061103461211f565b73ffffffffffffffffffffffffffffffffffffffff1673ffffffffffffffffffffffffffffffffffffffff16815260200190815260200160002060009054906101000a900460ff161515146110f1576040517f08c379a000000000000000000000000000000000000000000000000000000000815260040180806020018281038252600d8152602001807f4f6e6c7920506c6174666f726d0000000000000000000000000000000000000081525060200191505060405180910390fd5b6111076001600c546126ce90919063ffffffff16565b600c8190555061112981600c5460405180602001604052806000815250612756565b600c54600d60008373ffffffffffffffffffffffffffffffffffffffff1673ffffffffffffffffffffffffffffffffffffffff168152602001908152602001600020819055507f52331600d7dd08845796ecfd275f29b8c05b26da7f74e73b27c96eff051e6e2581600c5442604051808473ffffffffffffffffffffffffffffffffffffffff1673ffffffffffffffffffffffffffffffffffffffff168152602001838152602001828152602001935050505060405180910390a150565b6060600b8054600181600116156101000203166002900480601f01602080910402602001604051908101604052809291908181526020018280546001816001161561010002031660029004801561127f5780601f106112545761010080835404028352916020019161127f565b820191906000526020600020905b81548152906001019060200180831161126257829003601f168201915b5050505050905090565b600080600d60008473ffffffffffffffffffffffffffffffffffffffff1673ffffffffffffffffffffffffffffffffffffffff1681526020019081526020016000205414806112e0575060006112de836113b9565b145b156112ee57600090506113b4565b8173ffffffffffffffffffffffffffffffffffffffff1661134d600d60008573ffffffffffffffffffffffffffffffffffffffff1673ffffffffffffffffffffffffffffffffffffffff16815260200190815260200160002054610fed565b73ffffffffffffffffffffffffffffffffffffffff161461137157600090506113b4565b600d60008373ffffffffffffffffffffffffffffffffffffffff1673ffffffffffffffffffffffffffffffffffffffff1681526020019081526020016000205490505b919050565b60008073ffffffffffffffffffffffffffffffffffffffff168273ffffffffffffffffffffffffffffffffffffffff161415611440576040517f08c379a000000000000000000000000000000000000000000000000000000000815260040180806020018281038252602a815260200180613847602a913960400191505060405180910390fd5b611487600360008473ffffffffffffffffffffffffffffffffffffffff1673ffffffffffffffffffffffffffffffffffffffff1681526020019081526020016000206127c7565b9050919050565b600115156001600061149e61211f565b73ffffffffffffffffffffffffffffffffffffffff1673ffffffffffffffffffffffffffffffffffffffff16815260200190815260200160002060009054906101000a900460ff1615151461155b576040517f08c379a000000000000000000000000000000000000000000000000000000000815260040180806020018281038252600d8152602001807f4f6e6c7920506c6174666f726d0000000000000000000000000000000000000081525060200191505060405180910390fd5b8173ffffffffffffffffffffffffffffffffffffffff1661157b82610fed565b73ffffffffffffffffffffffffffffffffffffffff1614611604576040517f08c379a00000000000000000000000000000000000000000000000000000000081526004018080602001828103825260128152602001807f6e6f74206f776e6572206f6620746f6b656e000000000000000000000000000081525060200191505060405180910390fd5b6000600d60008473ffffffffffffffffffffffffffffffffffffffff1673ffffffffffffffffffffffffffffffffffffffff168152602001908152602001600020819055507f6d8b571cf1c1b01e4159dc4d8186cbc6de64f94ac6ef5b58607a9ae10cace0d68282600d60008673ffffffffffffffffffffffffffffffffffffffff1673ffffffffffffffffffffffffffffffffffffffff1681526020019081526020016000205442604051808573ffffffffffffffffffffffffffffffffffffffff1673ffffffffffffffffffffffffffffffffffffffff16815260200184815260200183815260200182815260200194505050505060405180910390a15050565b6000809054906101000a900473ffffffffffffffffffffffffffffffffffffffff1681565b606060098054600181600116156101000203166002900480601f0160208091040260200160405190810160405280929190818152602001828054600181600116156101000203166002900480156117c45780601f10611799576101008083540402835291602001916117c4565b820191906000526020600020905b8154815290600101906020018083116117a757829003601f168201915b5050505050905090565b6117d661211f565b73ffffffffffffffffffffffffffffffffffffffff168273ffffffffffffffffffffffffffffffffffffffff161415611877576040517f08c379a00000000000000000000000000000000000000000000000000000000081526004018080602001828103825260198152602001807f4552433732313a20617070726f766520746f2063616c6c65720000000000000081525060200191505060405180910390fd5b806007600061188461211f565b73ffffffffffffffffffffffffffffffffffffffff1673ffffffffffffffffffffffffffffffffffffffff16815260200190815260200160002060008473ffffffffffffffffffffffffffffffffffffffff1673ffffffffffffffffffffffffffffffffffffffff16815260200190815260200160002060006101000a81548160ff0219169083151502179055508173ffffffffffffffffffffffffffffffffffffffff1661193161211f565b73ffffffffffffffffffffffffffffffffffffffff167f17307eab39ab6107e8899845ad3d59bd9653f200f220920489ca2b5937696c3183604051808215151515815260200191505060405180910390a35050565b600c5481565b61199d61199761211f565b836121f5565b6119f2576040517f08c379a00000000000000000000000000000000000000000000000000000000081526004018080602001828103825260318152602001806139616031913960400191505060405180910390fd5b6119fe848484846127dc565b50505050565b6060611a0f82612102565b611a64576040517f08c379a000000000000000000000000000000000000000000000000000000000815260040180806020018281038252602f815260200180613911602f913960400191505060405180910390fd5b6060600a60008481526020019081526020016000208054600181600116156101000203166002900480601f016020809104026020016040519081016040528092919081815260200182805460018160011615610100020316600290048015611b0d5780601f10611ae257610100808354040283529160200191611b0d565b820191906000526020600020905b815481529060010190602001808311611af057829003601f168201915b505050505090506000600b8054600181600116156101000203166002900490501415611b3c5780915050611ce8565b600081511115611c1557600b816040516020018083805460018160011615610100020316600290048015611ba75780601f10611b85576101008083540402835291820191611ba7565b820191906000526020600020905b815481529060010190602001808311611b93575b505082805190602001908083835b60208310611bd85780518252602082019150602081019050602083039250611bb5565b6001836020036101000a03801982511681845116808217855250505050505090500192505050604051602081830303815290604052915050611ce8565b600b611c208461284e565b6040516020018083805460018160011615610100020316600290048015611c7e5780601f10611c5c576101008083540402835291820191611c7e565b820191906000526020600020905b815481529060010190602001808311611c6a575b505082805190602001908083835b60208310611caf5780518252602082019150602081019050602083039250611c8c565b6001836020036101000a038019825116818451168082178552505050505050905001925050506040516020818303038152906040529150505b919050565b6000600760008473ffffffffffffffffffffffffffffffffffffffff1673ffffffffffffffffffffffffffffffffffffffff16815260200190815260200160002060008373ffffffffffffffffffffffffffffffffffffffff1673ffffffffffffffffffffffffffffffffffffffff16815260200190815260200160002060009054906101000a900460ff16905092915050565b6000809054906101000a900473ffffffffffffffffffffffffffffffffffffffff1673ffffffffffffffffffffffffffffffffffffffff16611dc161211f565b73ffffffffffffffffffffffffffffffffffffffff1614611e4a576040517f08c379a000000000000000000000000000000000000000000000000000000000815260040180806020018281038252600a8152602001807f4f776e6572206f6e6c790000000000000000000000000000000000000000000081525060200191505060405180910390fd5b60008060009054906101000a900473ffffffffffffffffffffffffffffffffffffffff169050816000806101000a81548173ffffffffffffffffffffffffffffffffffffffff021916908373ffffffffffffffffffffffffffffffffffffffff1602179055507f30e048e48a73aeea72c325c17c7dec1889a58fef3848c2d5fbb81502c4702f31816000809054906101000a900473ffffffffffffffffffffffffffffffffffffffff1642604051808473ffffffffffffffffffffffffffffffffffffffff1673ffffffffffffffffffffffffffffffffffffffff1681526020018373ffffffffffffffffffffffffffffffffffffffff1673ffffffffffffffffffffffffffffffffffffffff168152602001828152602001935050505060405180910390a15050565b6000809054906101000a900473ffffffffffffffffffffffffffffffffffffffff1673ffffffffffffffffffffffffffffffffffffffff16611fb461211f565b73ffffffffffffffffffffffffffffffffffffffff161461203d576040517f08c379a000000000000000000000000000000000000000000000000000000000815260040180806020018281038252600a8152602001807f4f776e6572206f6e6c790000000000000000000000000000000000000000000081525060200191505060405180910390fd5b60018060008373ffffffffffffffffffffffffffffffffffffffff1673ffffffffffffffffffffffffffffffffffffffff16815260200190815260200160002060006101000a81548160ff0219169083151502179055507fe6599c7f1b3687d38d7eb4fc4e63d64fd89455e0abaf9cc757d5476a5a54a0068142604051808373ffffffffffffffffffffffffffffffffffffffff1673ffffffffffffffffffffffffffffffffffffffff1681526020018281526020019250505060405180910390a150565b600061211882600461299590919063ffffffff16565b9050919050565b600033905090565b816006600083815260200190815260200160002060006101000a81548173ffffffffffffffffffffffffffffffffffffffff021916908373ffffffffffffffffffffffffffffffffffffffff160217905550808273ffffffffffffffffffffffffffffffffffffffff1661219a83610fed565b73ffffffffffffffffffffffffffffffffffffffff167f8c5be1e5ebec7d5bd14f71427d1e84f3dd0314c0f7b2291e5b200ac8c7c3b92560405160405180910390a45050565b60006121ee826000016129af565b9050919050565b600061220082612102565b612255576040517f08c379a000000000000000000000000000000000000000000000000000000000815260040180806020018281038252602c8152602001806137e3602c913960400191505060405180910390fd5b600061226083610fed565b90508073ffffffffffffffffffffffffffffffffffffffff168473ffffffffffffffffffffffffffffffffffffffff1614806122cf57508373ffffffffffffffffffffffffffffffffffffffff166122b784610c10565b73ffffffffffffffffffffffffffffffffffffffff16145b806122e057506122df8185611ced565b5b91505092915050565b8273ffffffffffffffffffffffffffffffffffffffff1661230982610fed565b73ffffffffffffffffffffffffffffffffffffffff1614612375576040517f08c379a00000000000000000000000000000000000000000000000000000000081526004018080602001828103825260298152602001806138e86029913960400191505060405180910390fd5b600073ffffffffffffffffffffffffffffffffffffffff168273ffffffffffffffffffffffffffffffffffffffff1614156123fb576040517f08c379a00000000000000000000000000000000000000000000000000000000081526004018080602001828103825260248152602001806137996024913960400191505060405180910390fd5b6124068383836129c0565b612411600082612127565b61246281600360008673ffffffffffffffffffffffffffffffffffffffff1673ffffffffffffffffffffffffffffffffffffffff1681526020019081526020016000206129c590919063ffffffff16565b506124b481600360008573ffffffffffffffffffffffffffffffffffffffff1673ffffffffffffffffffffffffffffffffffffffff1681526020019081526020016000206129df90919063ffffffff16565b506124cb818360046129f99092919063ffffffff16565b50808273ffffffffffffffffffffffffffffffffffffffff168473ffffffffffffffffffffffffffffffffffffffff167fddf252ad1be2c89b69c2b068fc378daa952ba7f163c4a11628f55a4df523b3ef60405160405180910390a4505050565b600061253b8360000183612a2e565b60001c905092915050565b600061255182610fed565b905061255f816000846129c0565b61256a600083612127565b6000600a6000848152602001908152602001600020805460018160011615610100020316600290049050146125b957600a600083815260200190815260200160002060006125b891906136d7565b5b61260a82600360008473ffffffffffffffffffffffffffffffffffffffff1673ffffffffffffffffffffffffffffffffffffffff1681526020019081526020016000206129c590919063ffffffff16565b5061261f826004612ab190919063ffffffff16565b5081600073ffffffffffffffffffffffffffffffffffffffff168273ffffffffffffffffffffffffffffffffffffffff167fddf252ad1be2c89b69c2b068fc378daa952ba7f163c4a11628f55a4df523b3ef60405160405180910390a45050565b6000806000806126938660000186612acb565b915091508160001c8160001c8090509350935050509250929050565b60006126c2846000018460001b84612b64565b60001c90509392505050565b60008082840190508381101561274c576040517f08c379a000000000000000000000000000000000000000000000000000000000815260040180806020018281038252601b8152602001807f536166654d6174683a206164646974696f6e206f766572666c6f77000000000081525060200191505060405180910390fd5b8091505092915050565b6127608383612c5a565b61276d6000848484612e4e565b6127c2576040517f08c379a00000000000000000000000000000000000000000000000000000000081526004018080602001828103825260328152602001806137676032913960400191505060405180910390fd5b505050565b60006127d582600001613093565b9050919050565b6127e78484846122e9565b6127f384848484612e4e565b612848576040517f08c379a00000000000000000000000000000000000000000000000000000000081526004018080602001828103825260328152602001806137676032913960400191505060405180910390fd5b50505050565b60606000821415612896576040518060400160405280600181526020017f30000000000000000000000000000000000000000000000000000000000000008152509050612990565b600082905060005b600082146128c0578080600101915050600a82816128b857fe5b04915061289e565b60608167ffffffffffffffff811180156128d957600080fd5b506040519080825280601f01601f19166020018201604052801561290c5781602001600182028036833780820191505090505b50905060006001830390508593505b6000841461298857600a848161292d57fe5b0660300160f81b8282806001900393508151811061294757fe5b60200101907effffffffffffffffffffffffffffffffffffffffffffffffffffffffffffff1916908160001a905350600a848161298057fe5b04935061291b565b819450505050505b919050565b60006129a7836000018360001b6130a4565b905092915050565b600081600001805490509050919050565b505050565b60006129d7836000018360001b6130c7565b905092915050565b60006129f1836000018360001b6131af565b905092915050565b6000612a25846000018460001b8473ffffffffffffffffffffffffffffffffffffffff1660001b61321f565b90509392505050565b600081836000018054905011612a8f576040517f08c379a00000000000000000000000000000000000000000000000000000000081526004018080602001828103825260228152602001806137456022913960400191505060405180910390fd5b826000018281548110612a9e57fe5b9060005260206000200154905092915050565b6000612ac3836000018360001b6132fb565b905092915050565b60008082846000018054905011612b2d576040517f08c379a000000000000000000000000000000000000000000000000000000000815260040180806020018281038252602281526020018061389a6022913960400191505060405180910390fd5b6000846000018481548110612b3e57fe5b906000526020600020906002020190508060000154816001015492509250509250929050565b60008084600101600085815260200190815260200160002054905060008114158390612c2b576040517f08c379a00000000000000000000000000000000000000000000000000000000081526004018080602001828103825283818151815260200191508051906020019080838360005b83811015612bf0578082015181840152602081019050612bd5565b50505050905090810190601f168015612c1d5780820380516001836020036101000a031916815260200191505b509250505060405180910390fd5b50846000016001820381548110612c3e57fe5b9060005260206000209060020201600101549150509392505050565b600073ffffffffffffffffffffffffffffffffffffffff168273ffffffffffffffffffffffffffffffffffffffff161415612cfd576040517f08c379a00000000000000000000000000000000000000000000000000000000081526004018080602001828103825260208152602001807f4552433732313a206d696e7420746f20746865207a65726f206164647265737381525060200191505060405180910390fd5b612d0681612102565b15612d79576040517f08c379a000000000000000000000000000000000000000000000000000000000815260040180806020018281038252601c8152602001807f4552433732313a20746f6b656e20616c7265616479206d696e7465640000000081525060200191505060405180910390fd5b612d85600083836129c0565b612dd681600360008573ffffffffffffffffffffffffffffffffffffffff1673ffffffffffffffffffffffffffffffffffffffff1681526020019081526020016000206129df90919063ffffffff16565b50612ded818360046129f99092919063ffffffff16565b50808273ffffffffffffffffffffffffffffffffffffffff16600073ffffffffffffffffffffffffffffffffffffffff167fddf252ad1be2c89b69c2b068fc378daa952ba7f163c4a11628f55a4df523b3ef60405160405180910390a45050565b6000612e6f8473ffffffffffffffffffffffffffffffffffffffff16613414565b612e7c576001905061308b565b606061301263150b7a0260e01b612e9161211f565b888787604051602401808573ffffffffffffffffffffffffffffffffffffffff1673ffffffffffffffffffffffffffffffffffffffff1681526020018473ffffffffffffffffffffffffffffffffffffffff1673ffffffffffffffffffffffffffffffffffffffff16815260200183815260200180602001828103825283818151815260200191508051906020019080838360005b83811015612f41578082015181840152602081019050612f26565b50505050905090810190601f168015612f6e5780820380516001836020036101000a031916815260200191505b5095505050505050604051602081830303815290604052907bffffffffffffffffffffffffffffffffffffffffffffffffffffffff19166020820180517bffffffffffffffffffffffffffffffffffffffffffffffffffffffff8381831617835250505050604051806060016040528060328152602001613767603291398773ffffffffffffffffffffffffffffffffffffffff166134279092919063ffffffff16565b9050600081806020019051602081101561302b57600080fd5b8101908080519060200190929190505050905063150b7a0260e01b7bffffffffffffffffffffffffffffffffffffffffffffffffffffffff1916817bffffffffffffffffffffffffffffffffffffffffffffffffffffffff191614925050505b949350505050565b600081600001805490509050919050565b600080836001016000848152602001908152602001600020541415905092915050565b600080836001016000848152602001908152602001600020549050600081146131a3576000600182039050600060018660000180549050039050600086600001828154811061311257fe5b906000526020600020015490508087600001848154811061312f57fe5b906000526020600020018190555060018301876001016000838152602001908152602001600020819055508660000180548061316757fe5b600190038181906000526020600020016000905590558660010160008781526020019081526020016000206000905560019450505050506131a9565b60009150505b92915050565b60006131bb838361343f565b613214578260000182908060018154018082558091505060019003906000526020600020016000909190919091505582600001805490508360010160008481526020019081526020016000208190555060019050613219565b600090505b92915050565b60008084600101600085815260200190815260200160002054905060008114156132c6578460000160405180604001604052808681526020018581525090806001815401808255809150506001900390600052602060002090600202016000909190919091506000820151816000015560208201518160010155505084600001805490508560010160008681526020019081526020016000208190555060019150506132f4565b828560000160018303815481106132d957fe5b90600052602060002090600202016001018190555060009150505b9392505050565b60008083600101600084815260200190815260200160002054905060008114613408576000600182039050600060018660000180549050039050600086600001828154811061334657fe5b906000526020600020906002020190508087600001848154811061336657fe5b90600052602060002090600202016000820154816000015560018201548160010155905050600183018760010160008360000154815260200190815260200160002081905550866000018054806133b957fe5b600190038181906000526020600020906002020160008082016000905560018201600090555050905586600101600087815260200190815260200160002060009055600194505050505061340e565b60009150505b92915050565b600080823b905060008111915050919050565b60606134368484600085613462565b90509392505050565b600080836001016000848152602001908152602001600020541415905092915050565b6060824710156134bd576040517f08c379a00000000000000000000000000000000000000000000000000000000081526004018080602001828103825260268152602001806137bd6026913960400191505060405180910390fd5b6134c685613414565b613538576040517f08c379a000000000000000000000000000000000000000000000000000000000815260040180806020018281038252601d8152602001807f416464726573733a2063616c6c20746f206e6f6e2d636f6e747261637400000081525060200191505060405180910390fd5b600060608673ffffffffffffffffffffffffffffffffffffffff1685876040518082805190602001908083835b602083106135885780518252602082019150602081019050602083039250613565565b6001836020036101000a03801982511681845116808217855250505050505090500191505060006040518083038185875af1925050503d80600081146135ea576040519150601f19603f3d011682016040523d82523d6000602084013e6135ef565b606091505b50915091506135ff82828661360b565b92505050949350505050565b6060831561361b578290506136d0565b60008351111561362e5782518084602001fd5b816040517f08c379a00000000000000000000000000000000000000000000000000000000081526004018080602001828103825283818151815260200191508051906020019080838360005b8381101561369557808201518184015260208101905061367a565b50505050905090810190601f1680156136c25780820380516001836020036101000a031916815260200191505b509250505060405180910390fd5b9392505050565b50805460018160011615610100020316600290046000825580601f106136fd575061371c565b601f01602090049060005260206000209081019061371b919061371f565b5b50565b61374191905b8082111561373d576000816000905550600101613725565b5090565b9056fe456e756d657261626c655365743a20696e646578206f7574206f6620626f756e64734552433732313a207472616e7366657220746f206e6f6e20455243373231526563656976657220696d706c656d656e7465724552433732313a207472616e7366657220746f20746865207a65726f2061646472657373416464726573733a20696e73756666696369656e742062616c616e636520666f722063616c6c4552433732313a206f70657261746f7220717565727920666f72206e6f6e6578697374656e7420746f6b656e4552433732313a20617070726f76652063616c6c6572206973206e6f74206f776e6572206e6f7220617070726f76656420666f7220616c6c4552433732313a2062616c616e636520717565727920666f7220746865207a65726f20616464726573734552433732313a206f776e657220717565727920666f72206e6f6e6578697374656e7420746f6b656e456e756d657261626c654d61703a20696e646578206f7574206f6620626f756e64734552433732313a20617070726f76656420717565727920666f72206e6f6e6578697374656e7420746f6b656e4552433732313a207472616e73666572206f6620746f6b656e2074686174206973206e6f74206f776e4552433732314d657461646174613a2055524920717565727920666f72206e6f6e6578697374656e7420746f6b656e4552433732313a20617070726f76616c20746f2063757272656e74206f776e65724552433732313a207472616e736665722063616c6c6572206973206e6f74206f776e6572206e6f7220617070726f766564a2646970667358221220c79d5193c7c1e709069ca2fc88a8ef23fa7109c7dc7c64592109af01f9434e1864736f6c634300060a0033",
  "linkReferences": {},
  "deployedLinkReferences": {}
}